:020000040800F2
:10000000000003206D0600084D2400084F2400085E
:100010005124000853240008552400080000000063
:10002000000000000000000000000000017B00084C
:100030005724000800000000917B00081F7400088E
:10004000BD060008BD060008BD060008BD06000884
:10005000BD060008BD060008BD060008BD06000874
:10006000BD060008BD060008BD060008BD06000864
:10007000BD060008BD060008BD060008BD06000854
:10008000BD060008BD060008BD060008BD06000844
:10009000BD060008BD060008BD060008BD06000834
:1000A000BD060008BD060008BD060008BD06000824
:1000B000BD060008BD060008BD060008BD06000814
:1000C000BD060008BD060008BD060008BD06000804
:1000D000BD060008BD060008BD060008BD060008F4
:1000E000BD060008BD060008BD060008BD060008E4
:1000F000BD060008BD060008BD060008BD060008D4
:10010000BD060008BD060008BD060008BD060008C3
:10011000BD060008BD06000859240008BD060008F9
:10012000BD060008BD060008BD060008BD060008A3
:10013000BD060008BD060008BD060008BD06000893
:10014000BD060008BD060008BD060008BD06000883
:10015000BD060008BD060008BD060008BD06000873
:10016000BD060008BD060008BD060008BD06000863
:10017000BD060008BD060008BD060008000000001E
:10018000BD060008BD060008BD060008BD06000843
:10019000BD060008BD060008BD060008BD06000833
:0C01A00065240008BD060008712400085A
:1001B00010B5054C237833B9044B13B10448AFF3A1
:1001C00000800123237010BD800300200000000088
:1001D0006444020808B5034B1BB103490348AFF35D
:1001E000008008BD00000000840300206444020871
:1001F000034613F8012B002AFBD1181A0138704767
:1002000001F0FF01102A2BDB10F0070F08D010F8C7
:10021000013B013A8B422DD010F0070F42B3F6D1CB
:10022000F0B441EA012141EA014122F007047FF0E4
:1002300000070023F0E80256083C85EA010586EA3B
:10024000010685FA47F5A3FA87F586FA47F6A5FA77
:1002500087F68EB9EED1F0BC01F0FF0102F0070283
:1002600032B110F8013B013A83EA010313B1F8D12E
:100270000020704701387047002D06BF354603380F
:10028000073815F0010F07D1013015F4807F02BF48
:10029000013015F4C03F0130F0BC0138704700BF99
:1002A0007BB972B90029BEBF00204FF0004106E0C3
:1002B00008BF00281CBF6FF000414FF0FF3000F076
:1002C000D3B9ADF1080C6DE904CE002909DB002B90
:1002D0001ADB00F04DF8DDF804E0DDE9022304B09C
:1002E0007047404261EB4101002B1BDB00F040F8FE
:1002F000DDF804E0DDE9022304B0404261EB410196
:10030000524263EB43037047524263EB430300F0F6
:100310002FF8DDF804E0DDE9022304B0404261EB90
:1003200041017047524263EB430300F021F8DDF8CE
:1003300004E0DDE9022304B0524263EB430370475B
:1003400053B94AB9002908BF00281CBF4FF0FF313C
:100350004FF0FF3000F088B9ADF1080C6DE904CE24
:1003600000F006F8DDF804E0DDE9022304B0704790
:100370002DE9F047089D8E4604468846002B4AD159
:100380008A42174662D9B2FA82F64EB1C6F120030C
:1003900001FA06F820FA03F3B74043EA0808B4402C
:1003A0004FEA174E1FFA87FCB8FBFEF1230C0EFB39
:1003B000118843EA084301FB0CF29A4209D9FB1861
:1003C00001F1FF3080F0EA809A4240F2E780023982
:1003D0003B449A1AA3B2B2FBFEF00EFB102243EA92
:1003E000024300FB0CFC9C4509D9FB1800F1FF32CD
:1003F00080F0D6809C4540F2D3803B44023840EAEE
:100400000140A3EB0C0300211DB1F3400022C5E91C
:100410000032BDE8F0878B4205D90DB1C5E9000176
:1004200000210846F5E7B3FA83F1002946D1734568
:1004300002D3824200F20581841A6EEB030201208E
:100440009046002DE5D0C5E90048E2E7002A00F01B
:100450009080B2FA82F6002E40F0A4808A1A030C33
:100460004FEA174E80B2BCB20121B2FBFEFC0EFB7C
:100470001C2243EA024304FB0CF29A4207D9FB1800
:100480000CF1FF3802D29A4200F2E080C4469B1A77
:10049000B3FBFEF20EFB123340EA034302FB04F40B
:1004A0009C4207D9FB1802F1FF3002D29C4200F2B5
:1004B000CA8002461B1B42EA0C40A5E7C1F1200698
:1004C0008B4022FA06F71F430EFA01F420FA06F3D6
:1004D0002EFA06FE4FEA1749234300FA01F81FFAE5
:1004E00087FCBEFBF9F01C0C09FB10EE44EA0E443D
:1004F00000FB0CFEA64502FA01F209D93C1900F1F5
:10050000FF3A80F09C80A64540F2998002383C4436
:10051000A4EB0E041FFA83FEB4FBF9F309FB1344AA
:100520004EEA044403FB0CFCA44508D93C1903F132
:10053000FF3E80F08280A4457FD9023B3C4443EAE1
:100540000040A4EB0C04A0FB02EC64457346E146BA
:1005500062D35FD05DB1B8EB030264EB090404FA27
:1005600006F622FA01F31E43CC40C5E900640021DF
:100570004FE7B1FBF2FC010C41EA0E4180B240EAC8
:1005800001423B4638463C46B846BE462026B1FBB3
:10059000F7F1A2EB080241EA0C4166E7014618E7D1
:1005A00010462CE7C6F120022EFA02F3B740B14004
:1005B00020FA02F24FEA174E0A43B3FBFEF8BCB230
:1005C0000EFB1833110C41EA034108FB04F9B0405B
:1005D00089454FEA104380B23ED9791808F1FF3CB3
:1005E00001D289451FD8A1EB0901B1FBFEF909FB36
:1005F00004F80EFB191192B242EA0142424529D297
:10060000BA1809F1FF31C4D24245C2D2A9F10201A0
:100610003A44BEE7F0459DD2BEEB02036CEB070CFB
:100620000138E14696E7A7EB09094944A8F1020C15
:10063000B1FBFEF909FB04F8DBE773467FE75046A0
:1006400066E70846FDE63B44023A33E7ACF1020CAC
:100650003B441CE749469CE7A1EB0901C446B1FBBA
:10066000FEF909FB04F8C4E7704700BFDFF834D097
:10067000002103E00C4B5B58435004310B480C4BFA
:1006800042189A42F6D30B4A02E0002342F8043B98
:10069000094B9A42F9D304F0EBF822F0CDFF01F0B8
:1006A000AFF870470000032008DB030800000020BB
:1006B0006401002080030020D4460120FEE770473B
:1006C00008B500F0C1FDBDE8084000F043BD00F0F2
:1006D000BDBD704710B50421044621F09FFD2046A2
:1006E00010BD000038B50C4B0C4C18800C4B822010
:1006F00019806368984740F6110398420AD1094D62
:1007000023682C60822098472B688220DB689847FA
:10071000002038BD0120FCE7A60300204C0000208B
:10072000A4030020A80300204FF4A071F020FFF7DD
:10073000D9BF0000F7B5394D2B6804461B698220EC
:100740009847208000284ED02B680DF106025B6987
:1007500001A982209847324B1B78002B4BD0BDF863
:10076000062040F674639A423FD9ADF80630BDF8D2
:1007700006209B1A9BB20A2B42D90B22B3FBF2F341
:10078000284A1288934201D9013A93B2BDF8042055
:10079000254840F6B8318A4234D8C2F571620E322B
:1007A000016892B20F25B2FBF5F2204D2D88AA42C6
:1007B00084BF05F1FF35AAB28A4215468EB22AD906
:1007C000921B91B21A4E3768BB42BAB28CBF9A1ACA
:1007D000D21A92B211440529C4BF05603360036880
:1007E00063803368A38003B0F0BDB32A9CBFB422FA
:1007F000ADF80620BBE7BDF80630A3F5B473B9E742
:100800000023C3E7C2F56D62083292B20E2A016876
:10081000C8D800252A46891A89B2D3E7A803002040
:10082000C4280020A4030020A0030020A603002069
:100830009C03002037B568460D461446FFF77AFF43
:10084000BDF8000030B1BDF802302B60BDF80430B7
:100850002360012003B030BD032821D8DFE800F079
:10086000020B12190F4B1A68B2FA82F252090421D4
:100870000D4804F0C3BC0B4B5A68B2FA82F252091D
:100880000821F5E7074B9A68B2FA82F25209102163
:10089000EEE7044BDA68B2FA82F252092021E7E768
:1008A000704700BFAC03002000100240032821D88D
:1008B000DFE800F0020B12190F4B1A68003A18BF5C
:1008C000012204210D4804F099BC0B4B5A68003AF0
:1008D00018BF01220821F5E7074B9A68003A18BFB4
:1008E00001221021EEE7044BDA68003A18BF01221A
:1008F0002021E7E7704700BFAC0300200010024052
:1009000003280DD8DFE800F00206080A0421054894
:1009100004F079BC0821FAE71021F8E72021F6E776
:10092000704700BF0010024008B5032811D8DFE867
:1009300000F0020A0C0E0421074804F059FC431E83
:100940005842584108BD0821F6E71021F4E720215C
:10095000F2E70020F3E700BF0010024070B5084D39
:1009600000240126E0B2FFF7DFFF18B12B68012B4E
:1009700018BF2E600134052C05F10405F2D170BDBD
:10098000AC030020012380F8781080F8793070479C
:100990007047002070470000034B4164003918BFC6
:1009A00001211970704700BF933901207047002062
:1009B0007047836B0BB10846184770474FF6FF70BE
:1009C0007047406803689B691847704770477047D5
:1009D0007047704710B5044600F04EFD2368034988
:1009E000D3F890302046BDE810401847000000D0F2
:1009F00008B503680446D3F8843098472368204636
:100A0000DB6F984700F0ECF8236820465B6F98474F
:100A1000292001F0D5F900F0E3F8236820465B6F48
:100A20009847F8E710B5044609F060FE23682046B1
:100A3000D3F8BC30BDE81040184700F001BD00F00D
:100A400005BD00F037BD00F0D7BC00F047BD00F099
:100A50004FBD00F0DBBC09F077B810B58421044627
:100A600021F0DCFB204610BD10B590F8341090F852
:100A700078400C4B8C421A7809D03AB90A4A0B4993
:100A80001488088810800C8001221A7010BD002A7A
:100A9000FCD0054A05491488088810800C80002283
:100AA000F3E700BF8C390120883901208A39012001
:100AB00070B50D46194635B9094B0A4A0A4840F245
:100AC000FF2122F0E7FAC0E90F52084B003A18BFA5
:100AD00001221A700368BDE87040D3F890301847BF
:100AE000D44402080C4502085A45020892390120F4
:100AF00008B5094B1B888B4203D8084B1B889342CF
:100B000005D9074B074A0848A32122F0C3FA074B2F
:100B10001980074B1A8008BD883901208A390120C5
:100B20009F450208024602085A4502088E390120F4
:100B300090390120034690F87A0018B1586803688C
:100B40001B68184770470000012108B500220846BD
:100B500006F0EEFC0A4B186028B90A4B0A4A282115
:100B60000A4822F097FA00220421012006F07FFDB6
:100B7000074B186018B9074B034A2C21F0E708BD52
:100B8000C0030020454602088E460208BD46020802
:100B9000BC03002002470208024B4FF0FF311868E7
:100BA00006F010BDC0030020014B186806F036BDEA
:100BB000C0030020024B0021186806F003BD00BFEF
:100BC000C0030020FFF7F0BF03480449006800237A
:100BD0001A4606F087BD00BFBC03002004000020B9
:100BE00013B5084C00231A4601A9206806F0ABFD96
:100BF00020684FF0FF33002201A906F0A4FD02B0E7
:100C000010BD00BFBC03002003685B6C18470120C7
:100C1000704703689B6A1847FEE740F2EF30704761
:100C2000054B0360054B4FF08062C3F88820BFF38B
:100C30004F8FBFF36F8F70470C53020800E100E045
:100C400010B504464FF45A61FFF7EAFF204621F041
:100C5000E5FA204610BD000082B0002301930E4B40
:100C60001A6B42F400021A631A6B02F4000201923A
:100C7000019A1A6942F400021A611A6922F4000208
:100C80001A61064B064A1A61064A5A61064B4FF032
:100C900080629A6002B0704700380240A02A0020AB
:100CA000F90E0008190C000800E100E008B50A2858
:100CB00009D8DFE800F006100E0808080810101028
:100CC0001000022008BD054B054A0648902122F07D
:100CD000E1F90020F6E70120F4E700BF44470208ED
:100CE0005F470208AA47020838B50C46887FFFF71D
:100CF000DDFFA58AE28A164B2169586342EA054264
:100D00005A64628BD963521B1A642568082D0ED170
:100D10009A611A615862207F0E4A42EA0062DA61E3
:100D2000E2681A620C4A5961D9601A6038BD002223
:100D3000D8611A61E1680A0A480902F4784200F4AD
:100D4000FC600243C1F3C4010A439A63034AECE71F
:100D500000B002400900010001230200012303004A
:100D600008B50B280BD8DFE800F00612100A0A0AB3
:100D70000A0808080808022008BD0520FCE7054B02
:100D8000054A06486F2122F085F90020F4E701208A
:100D9000F2E700BF44470208ED470208AA470208ED
:100DA0002DE9F04191F81D800C464046FFF7D8FF31
:100DB000A77F05463846FFF7D3FF06463846FFF7BC
:100DC00075FFA18A628B444B521A1A649A61228B76
:100DD000521A1A61E28A586342EA01425A6421694E
:100DE0006268D963DA602068802828D0227F0FD813
:100DF000202867D0402865D004281AD0364B45EA11
:100E0000026545F40035B845DD6161D0334A44E000
:100E1000B0F5807F04D0B0F5007FEFD1304800E01E
:100E2000304840EA0262DA61E2681A625E62596141
:100E300032E045EA026242F40032DA61F6E7A06885
:100E4000021DDA62227F45EA026545F40035DD6164
:100E50005E625961017841B1012921D0224B234AB8
:100E600023484FF48D7122F015F9DA69418822F494
:100E70007F42013922F0100242EA0122DA610121A7
:100E8000154BDA6942F02002DA61DA699206FCD485
:100E900010229A600029B9D0164A1A60BDE8F08184
:100EA000B2F1FF01DA69408822F47F4200F1FF309D
:100EB00022F0100242EA002242F0100218BF012183
:100EC000DA61DDE745EA0262034B42F40032B4E73F
:100ED00042F20132E1E700BF00B00240012301000D
:100EE000090002000A0002003748020851480208BF
:100EF000AA47020801230200024B1B6858680368D6
:100F00005B6918479439012070B5044625460A4BA1
:100F10000C30002660602672667245F8203B602225
:100F2000294609F039FD04F55A63EE6024359D42E7
:100F3000FBD1204670BD00BF0C530208034B1A685A
:100F4000D207FCD423229A60704700BF00B0024051
:100F50007047000030B50F4C2568ED07FCD4232501
:100F60000904A56041F001010225FF2B656361645E
:100F7000E0630AD00849656241EA0363E361074B15
:100F800022626061E060236030BDE561039BA36382
:100F9000034BF8E700B00240090001000100020025
:100FA0000100030030B50E4C2568ED07FCD4232565
:100FB0001204A56042F001020225FF2B6563626402
:100FC000E063E16008D01B0643F00213E361054BC8
:100FD00065626061236030BD034BE3610123F9E783
:100FE00000B0024001000200020002FF30B50B4CCD
:100FF0002568ED07FCD4232512041B06A56043F4E5
:101000000033022542F0010265636264E063E1603F
:10101000E361034B65626061236030BD00B0024054
:10102000010002000120704714207047142303FBC5
:10103000010008307047142303FB0100083070479B
:101040000120704741F29830704741F2983303FB1A
:1010500001000830704741F2983303FB010008306B
:101060007047012070471C2070471C2303FB0100C0
:10107000083070471C2303FB010008307047084606
:1010800001F036BE10B5034B0360044608F0B3FA16
:10109000204610BDC453020810B50446FFF7F2FF06
:1010A00020461C2121F0BAF8204610BD10B5034B94
:1010B0000360044608F09FFA204610BD90530208D2
:1010C00010B50446FFF7F2FF20464FF49D5121F082
:1010D000A5F8204610BD000010B5034B0360044680
:1010E00008F089FA204610BD5C53020810B504468A
:1010F000FFF7F2FF2046242121F090F8204610BD92
:1011000010B5094B0360044600F59E501830FFF7F8
:10111000B9FF04F13800FFF7C9FF04F11400FFF72D
:10112000DBFF204610BD00BFF853020808B5024897
:10113000FFF7E6FF08BD00BF9C12002010B5044673
:10114000FFF7DEFF204641F2585121F067F82046B4
:1011500010BD00002DE9F34101F0FEF9054601F054
:10116000FFF900240146234628462246009411F048
:10117000A3FF284B284A1A60204602F047FC274D5F
:10118000274B284A28489A6011F0FEFE2B68BFF3CF
:101190005B8FDB0737D4284621F042F898B3234C05
:1011A000234B236004F1380808F59D5707F1240606
:1011B00004F114006060C4F80880E760266108F05C
:1011C0001BFA1C4B6361404608F016FA1A4BA363E6
:1011D000384608F011FA04F5805303F57D70174A7C
:1011E000C3F8D82302F096FC224607F11C013046D2
:1011F00002F086FC304601F07BFD114821F068FFCB
:10120000284621F019F80F4802B0BDE8F041FFF779
:10121000E1BB00BFF83901204804002098120020EB
:10122000680400204C040020080000209C120020CC
:10123000F85302085C53020890530208C453020892
:101240002D110008C4030020704700000148FFF77B
:10125000CFBB00BFC403002070B5264E264C274DDF
:10126000274B23603046FFF74FFE284617F02AF839
:1012700024480FF0FFFB244B2448DC6000224FF48D
:101280008071C3E9121222491A86C3E91A12214950
:1012900083F85820C3E91E011F49C3F880101F4975
:1012A0001F480B60F021C3E90422C3E90622C3E909
:1012B0000822C3E90A22C3E90E22C3E91022C3E9C6
:1012C0001422C3E917225A6683F870205A67C3E9CB
:1012D000016501801348018013484FF4A07101801B
:1012E0001248018012490A70012283F83420114A01
:1012F0001A6070BDF40400209412002068040020DD
:10130000C44402084C040020C40300200000010172
:1013100001000001000450001A001400943901205B
:10132000883901208E3901208A3901209039012025
:101330008C390120205202080148FFF771BC00BF20
:10134000F40400200020704781807047C1807047FE
:1013500001817047418170477047704770477047FF
:10136000704710B4C4880368121B84885B6D091B26
:1013700012B25DF8044B09B218474FF6FF73838130
:101380004FF0FF3303621368C361106070470020A1
:1013900070478B88838001207047704780F8261043
:1013A000704790F82600704710B50022B1F9084048
:1013B000B1F90A10028042808480C18010BD0022F1
:1013C000028042808280C28070470177704780ED42
:1013D000080A704780F82410704780F8251070477D
:1013E00001207047983070478C30704784307047C8
:1013F0007047704770470000034B902283F85A23D0
:1014000083F85823704700BF00E100E0094A0A4909
:10141000D3680A48C3F30A03013B9BB20B801169EE
:10142000C1F30A01013901801364536B43F00103D6
:101430005363704700680140F6270020F42700201E
:10144000014BD3F8AC00704700680140024B012209
:10145000C3F8AC105A6270470068014010B52C21E7
:10146000044620F0DBFE204610BD10B5BC2104462A
:1014700020F0D4FE204610BD70B5044608F0B9FB3C
:1014800023689D6E0EF066F801462046A847236843
:10149000054AD3F88C502046AC460023BDE8704086
:1014A000A2F51631604700BF00B004D008F088BB39
:1014B00008F092BB08F04EBB08F0BDBC90F82520A8
:1014C00012B103685B691847704790F825201AB17C
:1014D00090F8242002B1186070470000034B4FF0D1
:1014E00080629A604FF080729A60704700E100E07D
:1014F000084B4FF08062C3F88820BFF34F8FBFF3D3
:101500006F8F4FF08072C3F88820BFF34F8FBFF307
:101510006F8F704700E100E070B50023124E8380AA
:10152000124B0360336893F8582005460AB1D86C13
:1015300000B998680368DB6A98473368B0FA80F4AA
:10154000D86C640930B10368DB6A9847002808BF8B
:1015500044F001042CB9064B064A07482C2121F01F
:1015600099FD284670BD00BF943901200C54020833
:101570008F480208ED4802082649020870B5254E3A
:101580003568BFF35B8F15F0010540D1304620F080
:1015900047FE00283BD0204C204B256104F134004D
:1015A000C4E90035C4E90255E584A562A5850FF0BC
:1015B00046FD04F158000AF0A3FE194BA36520462E
:1015C000184B40F8843BFFF7A7FF174BC4F8843053
:1015D0002433C4F88C304FF4C803C4E92835002301
:1015E000C4F8AC30C4F8B030C4F8B430C4F8B83083
:1015F0000E480F4BC4F89050C4F89C50C4F8A85043
:10160000C4F8983021F064FD304620F015FE024801
:1016100070BD00BFF8270020FC270020FC5B0208FB
:101620002C540208A4540208B05B0208F513000809
:10163000905B020838B5184C23685BB3174B184A07
:101640001B6C11888B4216D1164B198804F0C0FB15
:10165000236893F86A200025013283F86A2083F812
:101660007C50FFF7B1FA206809F040F82846BDE841
:101670003840FFF7F1B804F0ABFB2468236820463C
:101680001B6A9847012384F87C300020BDE838406D
:10169000FFF70CB938BD00BF943901200068014044
:1016A000F6270020F427002007B5064BADF806000A
:1016B0001B68054801220DF1060105F039F903B058
:1016C0005DF804FB0C0000204C29002080B51E4C66
:1016D0001E4F88B0204603F0BFF94FF0FF3120467F
:1016E00003F053FA204603F0A3FA194E194D80B2C5
:1016F0004FF0FF313080204603F047FA204603F0D8
:1017000097FA80B22880204603F024FA0821384650
:1017100003F06EFD10B9104B01221A7032882B882D
:101720000E499BB292B2684621F078FE6846FEF7F9
:101730005FFD4FF0FF3382B26946094805F089FD2D
:10174000142005F0E9FEC5E7E82A00200008024061
:10175000BE280020BC280020BA28002088490208A2
:101760000429002030B595B0102200210AA821F0EC
:10177000BAFE1422002103A821F0B5FE00241E4B5E
:1017800001941A6C42F080521A641B6C03F080536F
:101790000193019B194B02941A6842F440421A606B
:1017A0001B6803F4404302930122029B4FF48033F1
:1017B000CDE9082302254FF480030821CDE90E531B
:1017C0004FF4B473CDE9101308A8042313931295B2
:1017D00004F056FB04F01AFB0F23CDE903354FF458
:1017E000A0504FF48053CDE90603052103A80594CA
:1017F00004F022FD15B030BD0038024000700040FA
:101800002DE980489BB003F041F8FFF7ABFF1422AD
:1018100000210DA821F067FE0024C74B00941A6B2D
:10182000C64842F010021A631A6B02F010020092CE
:10183000009A01941A6B42F020021A631A6B02F0AC
:1018400020020192019A02941A6B42F080021A63FC
:101850001A6B02F080020292029A03941A6B42F011
:1018600004021A631A6B02F004020392039A0494AE
:101870001A6B42F001021A631A6B02F00102049221
:10188000049A05941A6B42F002021A631A6B02F072
:1018900002020592059A06941A6B42F040021A63FE
:1018A0001A6B02F040020692069A07941A6B42F0F5
:1018B00008021A631B6B03F00803224607933C21BE
:1018C000079B03F09BFC9E480122022103F096FC3B
:1018D00022469B48042103F091FC224699484FF48C
:1018E000405103F08BFC01263C23032593480F94C1
:1018F0000DA9CDE90D360227109503F095FB904810
:101900000DA9CDE90D764FF00408CDE90F4403F0A1
:101910008BFB8B480DA9CDE90D86CDE90F4703F070
:1019200083FB89480F940DA9CDE90D8403F07CFB5E
:101930004FF4405383480DA9CDE90D36CDE90F474B
:1019400003F072FB212380480F940DA9CDE90D35DA
:1019500003F06AFB08237A480F960DA9CDE90D34F0
:1019600003F062FB22467948794D102103F046FCD2
:101970004FF010080DA97548CDE90D86CDE90F444B
:1019800003F052FB7348744B036003F043FADFF833
:10199000E8C1724B2C62C5E900C328464FF480436E
:1019A000C5E90434C5E90244C5E9064403F034FE40
:1019B0004146284604F078F82146284604F093F87A
:1019C000674DDFF8B8E1AC624FF48273C5E900E31C
:1019D0004FF400781823C5E9068328460A23C5E991
:1019E0000244C5E90444C5E90844EB6204F044FF3D
:1019F0008F232246394652488DF824308DF83440E2
:101A000003F0FCFB32464FF47A7309A9284604F030
:101A10008FFF4FF47A7332460DA9284605F034F94A
:101A20003246394646484F4D03F0E8FB9DF83430C6
:101A3000D32B04BF4C4B1E704C4B0126C5E900361E
:101A40004FF0100A40230024C5E904A34FF4C073EB
:101A5000C5E906344FF40063C5E908344FF4005378
:101A600002274FF00409AB624FF0030B07230DA9C7
:101A70002846CDE90D73CDE90F934FF00808C5E96D
:101A80000249CDE911B7139704F0DAFD4FF6FF7262
:101A900009A92846CDE90A86089409960C9404F011
:101AA000EFFD304602F01EFF4FF6FF7209A92846EF
:101AB000CDE90978CDE90B6404F0E2FD4FF6FF7241
:101AC00009A92846CDE909B8CDE90B9404F0D8FD61
:101AD0004FF40C730893089B0C934FF6FF7209A9FF
:101AE0002846CDE909980B9604F0CAFD40F26A51E8
:101AF000284604F0E3FD342221460DEB020021F0DC
:101B0000F2FC1B4D1B4B2C61C5E900340923C5E9D0
:101B100005361D23C5E9073B40F20D1240F2431381
:101B2000C5E9092340F2171140F247132846C5E9D9
:101B30000B13C5E9024423E00038024000100240C4
:101B400000080240000C0240000002400004024075
:101B50004C2A0020E02A002000300240A08601002C
:101B60004C290020D0280020C4280020400100A0DB
:101B7000A429002000680140005C004000500140A2
:101B8000AC8685F8364004F041F8FF21F022CDE91B
:101B900012144FF005084FF480614FF4A073CDE9A3
:101BA0000E24CDE91418CDE916420DA92246284687
:101BB000CDE91037374D18930D94ADF864408DF88A
:101BC000664004F0D7F8344B2B601B6898472B68AD
:101BD000324DDB689847324B2846C5E90034C5E9E9
:101BE0000274C5E90A47C5E90C4403F023F93146FC
:101BF000284603F0D5F9524621460DA821F073FC82
:101C0000284D2948AC604FF48033C5E90003274BC9
:101C1000AB6228462E612C7685F82040EC62EC60A1
:101C2000EF6185F830406E6102F070FE0DA9284624
:101C3000CDE90D460F9402F0FFFF0DA92846CDE92E
:101C40000D871B4D02F0F8FF1A484FF4E133C0E94D
:101C500000530C23C0E90534C0E902440461C461A7
:101C600005F0C8FAFEF72CFDFEF729FD05F0E4FBB0
:101C7000114A1248214605F00BFC114B114A18601D
:101C80002146114805F004FC104B186005F0E6FBF6
:101C9000FEE700BFC028002014000020A02A00207A
:101CA00000B00240E82A0020002001400100000F9F
:101CB00000100140042900200C550208CD16000830
:101CC000CC280020E8540208CF060008C8280020CD
:101CD000704770477FB5094B8DF817201B6802933A
:101CE0000DF117020123009201930A4601460448B0
:101CF00003F03AFD07B05DF804FB00BF10000020C0
:101D00004C2A00207FB500238DF81730084B1B6844
:101D100002930A4601230DF1170100910193014638
:101D2000044803F0B1FD9DF8170007B05DF804FB0F
:101D3000100000204C2A00201FB5084C2468009297
:101D4000CDE901340A4601230146054803F09CFD14
:101D5000003818BF012004B010BD00BF10000020E3
:101D60004C2A002002F0BEBD10B5064C00222046D1
:101D7000042103F043FA20460122BDE8104004216B
:101D800003F03CBA0008024038B50B4D044601226E
:101D90000A484FF4005103F031FA0022042128468A
:101DA00003F02CFA2046FFF77FFC28460122BDE80D
:101DB0003840042103F022BA00080240000C02401F
:101DC00038B50B4D044600220A484FF4005103F089
:101DD00015FA00220421284603F010FA2046FFF7E6
:101DE00063FC28460122BDE83840042103F006BA0E
:101DF00000080240000C0240F7B5144E144F05468F
:101E00000C4630460022042103F0F8F900224FF47A
:101E10000051384603F0F2F92846FFF745FC0D4B18
:101E20000D481B68224601A904F02EFF3846012206
:101E30004FF40051019C03F0E1F9304601220421E6
:101E400003F0DCF9204603B0F0BD00BF00080240FB
:101E5000000C02400C0000204C29002002F042BD82
:101E60000268034B9A4201D102F02ABD704700BFBD
:101E7000001000407047000082B00E4B002200921C
:101E8000596C41F480415964596C01F480410091CE
:101E900000990192196C41F0805119641B6C03F098
:101EA00080530193019B0F216FF0010002B002F0FB
:101EB00071BF00BF0038024010B5044688B014223C
:101EC000002103A821F00FFB2268114B9A421DD17B
:101ED00003F58C33002101915A6C0E4842F4807254
:101EE0005A645A6C02F480720192019A02911A6B40
:101EF00042F001021A631B6B03F001030293029B81
:101F000003A90323CDE9033303F08EF808B010BD15
:101F100000200140000002400268094B9A4282B052
:101F20000BD100230193074B1A6B42F480521A63C2
:101F30001B6B03F480530193019B02B0704700BFF9
:101F4000003002400038024007B50F4B02689A4249
:101F500016D10022A3F5F0430192196B41F4000160
:101F600019631B6B03F40003019305215A20019BA5
:101F700002F010FF5A2003B05DF804EB02F03CBF02
:101F800003B05DF804FB00BF00B002402DE9F04350
:101F9000044689B01422002103A821F0A4FA226883
:101FA000244B9A4243D1244C244800250095236BAE
:101FB00043F004032363236B03F004030093009BAB
:101FC0000195236B43F001032363236B03F00103AB
:101FD0000193019B4FF012094FF400734FF0010879
:101FE0000327042603A9CDE90339CDE90587079620
:101FF00003F01AF84FF480731148079603A9CDE94E
:102000000339CDE9058703F00FF80295236C43F4FB
:1020100000032364236C03F400030293029B236AEE
:1020200043F400032362236A23F40003236209B00C
:10203000BDE8F083005C0040003802400008024028
:1020400000000240F0B599B004461422002107A810
:1020500021F049FA30220DEB0200002121F043FA71
:1020600022685E4B9A4240F0B78008230C93C0234D
:102070001093042312930CA84FF40033159304F02B
:10208000B3F908B1FFF7F6FE554B5648002400940B
:102090005A6C42F080625A645A6C02F0806200927C
:1020A000009A01941A6B42F020021A631A6B02F034
:1020B00020020192019A02941A6B42F001021A6303
:1020C0001A6B02F001020292029A03941A6B42F018
:1020D00002021A631A6B02F002020392039A04943A
:1020E0001A6B42F040021A631A6B02F0400204922B
:1020F000049A05941A6B42F004021A631A6B02F0F8
:1021000004020592059A06941A6B42F008021A63BB
:102110001B6B03F00803069302250E26069B0B9605
:102120004FF4806307A9CDE90735CDE9094502F0F1
:102130007BFF41F658032C480B9607A9CDE90735DC
:102140000927CDE9094502F06FFF032327480B97C4
:1021500007A9CDE90735CDE9094502F065FF4FF440
:10216000706322480B9607A9CDE90735CDE90945EB
:1021700002F05AFF4FF40C631D480B9607A9CDE9F6
:102180000735CDE9094502F04FFFC02319480B96EA
:1021900007A9CDE90735CDE9094502F045FF082338
:1021A00015480B9607A9CDE90735CDE9094502F099
:1021B0003BFF4FF4A0530E480B9707A9CDE9073515
:1021C000CDE9094502F030FF58202246052102F0F2
:1021D000E1FD582002F010FE19B0F0BD006801408A
:1021E0000038024000140240000002400004024097
:1021F0000018024000080240000C024010B50446DE
:1022000088B01422002103A821F06DF92268144B34
:102210009A4223D103F56843002101915A6C114879
:1022200042F480125A645A6C02F480120192019AAC
:1022300002911A6B42F020021A631B6B03F0200319
:102240000293029B4FF4607202230321CDE9032322
:102250000523CDE9061303A902F0E6FE08B010BD80
:10226000005001400014024010B5044688B014220A
:10227000002103A821F037F92268144B9A4223D198
:1022800003F59433002101915A6C114842F0100279
:102290005A645A6C02F010020192019A02911A6B70
:1022A00042F001021A631B6B03F001030293029BCD
:1022B0004FF4C06202230321CDE903230723CDE9B4
:1022C000061303A902F0B0FE08B010BD00100140D3
:1022D000000002402DE9F04186B0002303932B4B10
:1022E0001C68002C4FD14FF00108C3F80080284B28
:1022F00000949A6B274842EA08029A639B6B03EAB0
:1023000008030093022703260C25009B01A94FF622
:102310003F03CDE90137CDE9046502F085FE1E4893
:10232000059501A9CDE90187CDE9034602F07CFEC0
:1023300048F233131948059501A9CDE90137CDE9D4
:10234000034602F071FE4FF683731548059501A907
:10235000CDE90137CDE9034602F066FE4CF2037386
:102360001048059501A9CDE90137CDE9034602F0F2
:102370005BFE60230C48059501A9CDE90137CDE945
:10238000034602F051FE06B0BDE8F081302B00207C
:1023900000380240001402400008024000180240C9
:1023A00000100240000C02400004024070B588B0EA
:1023B00000230293204B1A6C42F010021A641B6C2B
:1023C00003F010030293054601A903A8029B03F042
:1023D000EDFF069B4BBB03F0C9FF184E184B336053
:1023E00040F2E733F360174BB0FBF3F3013B73604C
:1023F000304600233361B360B36104F00FFE04463E
:1024000080B9304604F0E4FC044658B9362002F0A6
:10241000F3FC0F2D0DD822462946362002F0BAFCD7
:10242000094B1D60204608B070BD03F09FFF4000BF
:10243000D3E70124F6E700BF00380240342B002028
:102440000010004040420F007C0000207047FEE773
:10245000FEE7FEE7FEE77047014804F0F7BC00BF67
:10246000342B0020014803F028BC00BFA429002021
:10247000014802F00BBD00BFA02A002001207047D8
:1024800008B521F0D3F8162303604FF0FF3008BDE4
:1024900008B521F0CBF816230360FEE770B50D46B2
:1024A00014460E46731B9C4201DC204670BDAFF300
:1024B000008006F8010BF5E770B50D4614460E4690
:1024C000731B9C4201DC204670BD16F8010BAFF374
:1024D0000080F5E74FF0FF3070474FF400534B603A
:1024E0000020704701207047002070470A4A116899
:1024F00008B5034609B909491160106869460344E3
:102500008B4206D921F092F80C2303604FF0FF3084
:1025100008BD1360FCE700BF7C2B0020D8460120DB
:10252000704710B5042104461FF078FE204610BD08
:10253000012908B506D0022908D059B901F0B2FA2C
:10254000006808BD01F0AEFA4068FAE701F0AAFAA7
:102550008068F6E70020F4E7004870474455020819
:102560000720704713B5002451B1036801948DF81A
:10257000034001AA9C680DF10303A04702B010BDFF
:102580000846FBE7C0897047008A7047C0887047DB
:1025900080887047807A00F07F007047807AC00999
:1025A00070470020704700009FED010A704700BF90
:1025B00000000000704710B5082104461FF02EFEF1
:1025C000204610BD7047704700F598730868496849
:1025D00003C370477047704741607047704770474A
:1025E000064BC0F84C310023C0F8503100F5A273FF
:1025F000C0F84801C0F84031704700BF252B0008E3
:10260000012303727047704770477047704738B5B1
:10261000054640680368DB699847044604B938BD3D
:10262000A188AB89C91A236820461B6B09B2984759
:10263000A469F3E710B4C26841685410034601EB83
:102640006200D20748BF0A599B685DF8044B48BF37
:10265000D35818470346406830B19A681AB9D86809
:1026600000F0010070470120704710B50C210446AE
:102670001FF0D4FD204610BD10B5142104461FF0F4
:10268000CDFD204610BD10B5102104461FF0C6FD3B
:10269000204610BD10B5102104461FF0BFFD204696
:1026A00010BD10B54FF4AE7104461FF0B7FD2046C3
:1026B00010BD10B50CF04EFF0368BDE81040DB6B99
:1026C000184710B50CF046FF0368BDE810405B6B7F
:1026D000184710B50CF03EFF0368BDE810405B6B77
:1026E0001847000013B50446807A637A0130C0B2FF
:1026F0009842A07205D9012323720023A37202B06D
:1027000010BDB4F90C2000210FF002F9C30707D562
:1027100000284FF6FF73C8BF012313FA80F000B200
:10272000144AE08112880023ADF8023083B2D21A35
:10273000ADF80020228A20829B1AADF804300E4B9F
:102740001B88ADF806300CF005FF036802AA1B6C6D
:1027500012E906009847A37A012BD0D1074B1B78CA
:10276000002BCCD00CF0F6FE02B0BDE810400CF00F
:10277000F7BE00BF883901208A3901209239012033
:1027800037B50546807A6B7A0130C0B29842A8729C
:1027900005D901232B720023AB7203B030BDB5F90C
:1027A0000C20B5F90E4000210FF0B2F8C30707D591
:1027B00000284FF6FF73C8BF012313FA80F000B260
:1027C000AB7AE881041B012BA4B206D1174B1B780E
:1027D0001BB10CF0BFFE0CF0C3FE154A002312889B
:1027E000ADF80230EB891A445B42ADF80430114B6E
:1027F000ADF800201B88ADF806300CF0ABFE036886
:1028000002AA12E906001B6C984768680368DB6936
:1028100098470546002DC0D0A9882B68214428463A
:102820001B6B09B29847AD69F4E700BF92390120EC
:10283000883901208A39012010B50446D0F84001BA
:1028400058B10368DB68984738B1D4F84001036891
:102850009B6898470023C4F8403110BD2DE9F14F23
:10286000D0E9556A0746B06803681B6A984741F289
:102870009733984205D8494B494AA321494820F04B
:1028800009FC706803681B6A98471B2803D8464BED
:10289000434AA421F2E7F06803681B6A98470F28AF
:1028A00003D8424B3E4AA521E8E70CF053FEDFF87F
:1028B000089104300CF09BFED9F8000010B10368B9
:1028C000DB689847D9F8000010B103681B68984787
:1028D000DFF8E880D8F8000010B103685B6998471A
:1028E000D7F83C0110B103685B689847D8F800003E
:1028F00010B103681B689847D7F83C0110B1036812
:102900009B689847F068036800215B6A9847284BEA
:1029100003604FF4A0530381264B1B884FF0000B3C
:1029200080F80AB05B420446C0F804B0A0F80EB0CC
:102930008381B068036859465B6A9847054601F091
:10294000F1FB7068036859465B6A9847294606465A
:1029500001F058F9331DC7F83C61C9F80040C8F8C8
:102960000050CAF800302B68C6F808A02846DB687B
:10297000EE639847336830461B68984721462846DF
:102980000EF0C0FF236820461B69984723685B69E7
:10299000204601B0BDE8F04F184700BFAC4902081F
:1029A0003A4A02081F4B0208664B0208094C02080B
:1029B0007856020888390120DC390120D8390120F5
:1029C0002DE9F14FD0E955BA0746DBF80800036856
:1029D0001B6A9847B0F5C07F05D2494B494AA321ED
:1029E000494820F057FBDBF8040003681B6A98474E
:1029F0000F2803D8454B434AA421F1E7DBF80C002C
:102A000003681B6A9847132803D8414B3D4AA52108
:102A1000E6E70CF09FFDDFF8049104300CF0E7FDD1
:102A2000D9F8000010B10368DB689847D9F80000B6
:102A300010B103681B689847DFF8E480D8F80000FD
:102A400010B103685B699847D7F83C0110B103687F
:102A50005B689847D8F8000010B103681B68984776
:102A6000D7F83C0110B103689B689847DBF80C006D
:102A7000036800215B6A9847264B03604FF4A0531C
:102A80000381254B002686721B8846600446C6815A
:102A900006828381DBF80800036831465B6A984749
:102AA000054601F079F8DBF80400036831465B6AFB
:102AB00098472946064601F041F8331DC7F83C61A6
:102AC000C9F80040C8F80050CAF800302B68C6F8B2
:102AD00008A02846DB68EE639847336830461B68D9
:102AE0009847214628460EF00DFF236820461B69B3
:102AF000984723685B69204601B0BDE8F04F18474E
:102B0000AC490208AC4C02081F4B0208664B020895
:102B1000094C02089C56020888390120DC39012042
:102B2000D83901202DE9F14FD0E9556A0746B06840
:102B300003681B6A9847B0F5C07F05D2444B454AED
:102B4000A321454820F0A6FA706803681B6A9847DD
:102B50000F2803D8414B3F4AA421F2E7F0680368ED
:102B60001B6A98470B2803D83D4B3A4AA521E8E752
:102B70000CF0F0FCDFF8F09004300CF038FDD9F8E0
:102B8000000010B10368DB689847D9F8000010B165
:102B900003681B689847DFF8D480D8F8000010B1AC
:102BA00003685B699847D7F83C0110B103685B681C
:102BB0009847D8F8000010B103681B689847D7F809
:102BC0003C0110B103689B689847F06803680021D6
:102BD0005B6A98474FF0000B224BC0F804B00446E4
:102BE00080F808B00360B068036859465B6A98478C
:102BF000054600F0D1FF7068036859465B6A984744
:102C00002946064600F09AFF331DC7F83C61C9F813
:102C10000040C8F80050CAF800302B68C6F808A079
:102C20002846DB68EE639847336830461B68984750
:102C3000214628460EF066FE236820461B69984709
:102C400023685B69204601B0BDE8F04F184700BF1C
:102C5000AC490208904D02081F4B0208664B02085F
:102C6000094C020854560208DC390120D8390120E9
:102C7000044B1B6893F858200AB1D86C00B99868C7
:102C8000704700BF94390120F8B5174604460E4638
:102C90000CF04AFD124B1C60124B2360124B0025B6
:102CA000C4E95135114BC4E9535518680368012133
:102CB0009B68C4E94F55C4E955769847284600F00B
:102CC000A5FEFFF7D5FF17F0A6F9FFF7D1FF17F024
:102CD0001DFAFFF7CDFF17F025FA2046F8BD00BF1B
:102CE000E839012000560208E8550208943901200D
:102CF000064BC0F84C310023C0F8503100F5A273E8
:102D0000C0F84801C0F84031704700BF252B0008CB
:102D1000064BC0F84C310023C0F8503100F5A273C7
:102D2000C0F84801C0F84031704700BFC129000811
:102D3000064BC0F84C310023C0F8503100F5A273A7
:102D4000C0F84801C0F84031704700BF5D28000856
:102D5000406A7047806A704770478A880B8810B550
:102D6000D20A4C88C1699BB251F8220043EA04435D
:102D7000184410BD10B50446BAB1107B68B1537B3E
:102D8000D27A1B0203F4E0631A43236A03EB820343
:102D90001A888A4202D193F9020010BD05D8013881
:102DA00080B204330028F3D1F7E70020F5E710B52F
:102DB0002C2104461FF032FA204610BD30B58BB0EE
:102DC0000446BDF860500895BDF85C5007959DF825
:102DD000505006959DF84C5005959DF84850049527
:102DE0009DF8445003959DF8405002959DF83C5045
:102DF0000195BDF8385000950EF0DEF9064B2360C2
:102E0000159BE361169B2362199B63621A9BA36265
:102E100020460BB030BD00BFC05602087047704757
:102E200070477047704730B5036885B06D460181C3
:102E3000D3F88430014604462846984795E80700B1
:102E40003C3484E8070005B030BD30B5036885B078
:102E50006D464181D3F884300146044628469847A0
:102E600095E807003C3484E8070005B030BD002237
:102E7000028042808280C280704780F8361070479E
:102E800070B5036804461B6B1546984723682946AE
:102E900020465B6EBDE87040184700207047806C8C
:102EA0007047704770477047704730B4C2684468D5
:102EB0005510034604EB6200D20748BF62599B6875
:102EC00030BC48BFD35818470346406830B19A68B1
:102ED0001AB9D86800F0010070470120704710B59A
:102EE0004C2104461FF09AF9204610BD10B5102160
:102EF00004461FF093F9204610BD10B54FF4B87189
:102F000004461FF08BF9204610BD08B5FEF7D6FA2F
:102F100008BD0000036870B55E6B124B1B68044669
:102F20008DB22BB9104B114A6C21114820F0B2F828
:102F30001049828D0988914203D80F4B0B4A6D21AD
:102F4000F3E713F812200D4B1B6853F822000368B7
:102F50001B6B9847291A3346204609B2BDE87040DA
:102F6000184700BFEC390120624E0208A44E020847
:102F7000DF4E0208F0390120264F0208F439012003
:102F800000F59670884208B505D10CF0E3FABDE86B
:102F90000840FFF7CDBE08BD00224FF0FF31C0E969
:102FA00000218260704770B5036804461B6B1546AC
:102FB00098472368294620465B6BBDE87040184758
:102FC0000022C0E90122C0E90322C0E90522C0E9CC
:102FD00007224FF480728284014A0260704700BF6A
:102FE0002857020810B526220446002120F07BFA5B
:102FF0002046FFF7E5FF0A4B23600A4BA3624FF61A
:10300000FF73A3854FF47F020023C4E90C322387AA
:103010004FF0FF32C4E91023E363204610BD00BF28
:10302000C05C0208D85502082DE9F04F044689B06B
:10303000264600250EF0BAFA7F4BE56346F8403B82
:1030400026222946304620F04EFA3046FFF7B8FFD8
:1030500004F16C0B794B2364FF2726224FF6FF788F
:10306000294684F866705846A566ADF8188020F0A9
:103070003AFA5846FFF7A4FF714BE366BDF81830E3
:10308000A4F8923004F1980A06A9584684F894707E
:1030900009F065FE04F1E0075046FFF7A3FF38464C
:1030A000FFF7A0FF04F59679664BC4F8E0302622BE
:1030B0002946C4F82851484620F015FA4846FFF73B
:1030C0007FFF012384F850315F4BC4F82C315F4BF4
:1030D000A4F85A81C4E958345D4BA4F85C812A46AF
:1030E000C4E95A35304684F85E812946C4F8545103
:1030F00084F85851FFF757FF3046F021FEF728F9C2
:1031000030464FF4A071FEF725F904F104084FF0A2
:103110007F43A3663146404606F080FA792258463E
:103120001C21FFF740FF584606A9ADF8185009F0DA
:1031300016FE5946404606F071FA86221C2150467A
:10314000FFF731FF6E46434BC4F8C8305146304656
:10315000A4F8CC5009F0D2F996E8070004F1D403A2
:1031600083E80700DFF810B1CDF818B0052306A9F1
:103170005046ADF81C3009F05BFC5146404606F065
:103180004DFA862288213846FFF70DFF324BC4F8EE
:103190001031D4F8E030A4F81451D3F88430394613
:1031A0003046984796E8070004F58E7383E80700D9
:1031B0002A4B1B682BB92A4B2A4A60212A481FF048
:1031C00069FF2A4B1B88032B03D8294B254A612111
:1031D000F4E7284B0321186800F054FCC4F82801D8
:1031E000384609F005FC042306A93846ADF81C3022
:1031F000CDF818B009F01CFC3946404606F00EFA2E
:103200004846CE221421FFF7CEFE062306AA05A9C2
:103210004846ADF81430ADF8183009F067FC04F5F5
:10322000B0734046C4F85431494606F0F7F92046D9
:1032300009B0BDE8F08F00BF38580208505D0208A1
:103240002C5E020890570208B85D02082058020858
:10325000812F00080909EBFF0505F2FFEC39012079
:10326000624E0208644F0208DF4E0208F039012066
:10327000264F0208F8390120D8550208806A7047A5
:103280007047704770477047704730B4C2684468F1
:103290005510034604EB6200D20748BF62599B6891
:1032A00030BC48BFD35818470346406830B19A68CD
:1032B0001AB9D86800F0010070470120704790F8F3
:1032C0002D3080F85C3070470146343091F82C3056
:1032D00013B1623109F043BD6031FBE710B56421E1
:1032E00004461EF09BFF204610BD10B51021044679
:1032F0001EF094FF204610BD10B54FF43771044600
:103300001EF08CFF204610BD10B50446006B50B176
:103310000368DB68984730B1206B036821469B68DF
:10332000BDE81040184710BD0B7970B590F82C60BF
:1033300004460D460BB916B170BD002EFCD0B3FA91
:1033400083F35B0984F82C3023682046D3F88C3053
:103350009847236820465B699847002EECD02B796C
:10336000012BE9D123682046D3F88830BDE87040AE
:10337000184700F5BA738B4210B5044609D10CF01A
:10338000E9F8FFF7C5FC23682046DB6ABDE810407A
:10339000184710BD70B5036804469B6B15469847E7
:1033A000236829462046DB6BBDE8704018470B8830
:1033B00070B5A0F860300546138825F8623F0446D2
:1033C00028460FF08DFE064628460FF0BDFE31461A
:1033D00002462046FFF7DEFF23682046D3F88C30F4
:1033E000BDE870401847000038B5262204460D4657
:1033F000002120F078F82046FFF7E2FD064B23601D
:103400002B88E384FF23204684F82830294609F0DE
:10341000A6FC204638BD00BF2C5E0208F7B54FF46D
:103420007F430646838540F2011300258384134BB6
:103430008562C0E90155C0E90355C0E90555C0E9F9
:103440000755056346F8343B04464FF6FF7701A95C
:103450003046ADF80470FFF7C7FF2A4629463046CC
:10346000A4F86070A4F86270FFF79DFD2046314615
:1034700006F0D4F8204603B0F0BD00BF6C58020837
:103480002DE9F04F04468FB0A14600250EF08EF8CE
:10349000C14BE56349F8403B26222946484620F0C7
:1034A00022F84846FFF78CFDBC4B236404F16C0AFC
:1034B000FF234FF6FF7784F866300CA9A5665046C7
:1034C000ADF83070FFF790FF04F1980304F1C40BDE
:1034D0000CA918460293ADF83070FFF785FF0CA9D0
:1034E0005846ADF83070FFF77FFF04F1F0030CA9E8
:1034F00018460393ADF83070FFF776FF04F58E732E
:103500000CA918460493ADF83070FFF76DFF04F571
:10351000A4730CA904F5BA7618460593ADF830707B
:10352000FFF762FF3046FFF779FF04F5EC731846AA
:103530009B4F0093FFF756FD04F5097304F51B78C4
:10354000C4F8D8711846C4F820520193FFF74AFD19
:103550004046FFF747FD934BC4F86C72C4E9B3349F
:10356000914BC4F8B452C4E9B5352A4629464846B9
:10357000FFF719FD4FF4A0724846F021271DFFF711
:1035800009FF4FF07F43A3664946384606F046F8E8
:10359000062229465046FFF706FD4FF003090CA905
:1035A0005046ADF8309009F0DAFB5146384606F047
:1035B00035F806220298DFF8FCA11221FFF7F3FC90
:1035C0000298ADF830900CA909F0C9FB0299384671
:1035D00006F024F8062258462421FFF7E4FC0CA943
:1035E0005846ADF8309009F0BAFB5946384606F017
:1035F00015F83E2203986C21FFF7D5FC02230398AF
:10360000ADF830300CA909F0AAFB0399384606F052
:1036100005F8049840F20F127821FFF7C4FC042249
:103620000498ADF830200CA909F099FB04993846AC
:1036300005F0F4FF05984FF490726821FFF7B3FC92
:1036400005220598ADF830200CA909F088FB0599F2
:10365000384605F0E3FF4FF0010B0CAA0BA93046EA
:10366000ADF82CB0ADF830B0FFF7A1FE2A462946E0
:1036700004F5D470FFF797FC04F53372C4F8A42165
:10368000304640F21D12D221FFF78DFC2322304636
:103690001E21FFF77FFE3146384605F0BFFF009838
:1036A0002A46B521FFF77FFC00980F223B21FFF748
:1036B00071FE3E4AC4F80822D4F8D8210099D2F805
:1036C0008420A4F80C5206AE3046904796E80700D6
:1036D00004F5057C8CE8070002230098ADF834302F
:1036E0000CA9CDF830A009F0A3F90099384605F0EF
:1036F00095FF4A4601983821FFF755FC2C4BC4F83A
:1037000054320199A4F85852304608F0F7FE96E872
:10371000070004F5187C8CE807000198CDF830A06C
:103720000CA9ADF834B009F083F90199384605F0D9
:1037300075FF4A4640467821FFF735FC1322404684
:103740003D21FFF727FE1A4BC4F89C32D4F86C32A7
:10375000A4F8A05241463046D3F88430984796E802
:10376000070004F52A7383E8070004F52E73C4F8F4
:10377000B4320CA94046A4F8B852CDF830A0ADF848
:10378000345009F055F93846414605F047FF2046C8
:103790000FB0BDE8F08F00BF24590208505D020849
:1037A000905702080C590208733300081010E8FF04
:1037B0000505F0FFD85502087047000030B5164DDA
:1037C0002C6814F001048FB0BFF35B8F21D1284621
:1037D0001EF026FDE8B13F230993104B0893104BD0
:1037E00007930123CDE9054304930423CDE9024364
:1037F0000A230C4900930C22CDE90B440A480A9491
:103800000194FFF7DBFA09481FF062FC28461EF01E
:1038100013FD05480FB030BD802B00205870020802
:1038200064700208946E0208842B0020B9370008E7
:103830007047000030B5164D2C6814F001048FB0AD
:10384000BFF35B8F20D128461EF0EAFCE0B13F2396
:103850000993104B0893104B104911480A94012208
:10386000CDE906430423CDE9033228230093CDE9B3
:103870000B44CDE901440594FFF7A0FA09481FF075
:1038800027FC28461EF0D8FC05480FB030BD00BF0D
:10389000B02B00205C700208687002083C6F0208C0
:1038A000B42B0020313800087047000030B5164DA9
:1038B0002C6814F001048FB0BFF35B8F21D1284630
:1038C0001EF0AEFCE8B13F230993104B0893104B58
:1038D00007930123CDE9054304930423CDE9024373
:1038E00012230C4900931322CDE90B440A480A9491
:1038F0000194FFF763FA09481FF0EAFB28461EF01F
:103900009BFC05480FB030BDE02B00206070020822
:103910006C7002084C6F0208E42B0020A9380008E4
:1039200000207047002070470EB403B503AB0021A0
:1039300053F8042B01930CF0BDFE02B05DF804EBCC
:1039400003B070470CB407B504AB53F8042B0193D4
:103950000CF0B0FE03B05DF804EB02B0704700005D
:10396000436C10B5044673B3038F2BB9184B194A37
:10397000C52119481FF08EFBC38E00EB43035B8CFF
:103980000BB30EF04AFD238F012B03D8134B144ABF
:10399000CB21EEE7E28E531C9BB2092B194688BF60
:1039A000A3F10A0104EB410140F63F10498C81422A
:1039B00009D10A2B04EB420228BF002304EB430386
:1039C000508C588451842046BDE810400EF028BC2D
:1039D000AF4F0208B84F020863500208AD5002080A
:1039E000BB5002080EF0E3BB10B586B002AC84E811
:1039F00006001A460AAB05930193099B00932146E2
:103A0000089B0BF045F906B010BD000038B518BB97
:103A1000124B13481C681349B4B122682244026057
:103A2000626822440A60A26814440F4B00221A8084
:103A300000F038F8054600F033F80C4B1C600C4BD6
:103A40001D600C4B188007E00B4B03600B4B0B60A9
:103A50000B4B1C68002CE8D138BD00BF1C2C00208B
:103A6000142C0020102C0020182C0020EC390120F0
:103A7000F4390120F03901208870020870700208C2
:103A8000B4700208044B1B6853F82100034B1B68F9
:103A900003EB4000704700BF102C0020142C0020C6
:103AA0000620704700487047202C002010B5FFF713
:103AB000FDFE044C2060FFF7BDFE6060FFF77EFE58
:103AC000A06010BD202C002010B5002404600C6004
:103AD00014601C6010BD704710B54FF4AE71044601
:103AE0001EF09CFB204610BD10B50446D0F85801CE
:103AF00000F014F82046BDE810400BF0D5BD0000E2
:103B000010B50446FFF7C0F8014B2360204610BDF6
:103B10005C5902080022026082807047704770473B
:103B200004387047704710B5102104461EF076FB2C
:103B3000204610BDA0F10400F5E7000000228260DD
:103B4000024A026018324260C1607047B0590208F0
:103B500070470000D0F8702103680132C0F870216E
:103B6000014ADB6A11881847B828002010B5034BBA
:103B700003600446FFF797F9204610BDD8590208A4
:103B800010B50446FFF7F2FF20464FF4C0711EF057
:103B900045FB204610BD000010B50446FFF744FA6F
:103BA000034B23600023C4F87031204610BD00BFD2
:103BB000D8590208FFF778B938B5044600F5BA7548
:103BC0000B462846054A06210FF0D0F9C4F82851C3
:103BD00004F1E000BDE838400CF096BE8D510208BB
:103BE000704704387047C0680368DB68184770473F
:103BF00010B51C2104461EF011FB204610BDA0F19B
:103C00000400F5E710B5054C046000221834C0E943
:103C10000312826044604261028310BD105A0208A0
:103C2000704700F5805210B5002304460321C0F808
:103C3000FC32C2E9E413C2F8883382F88C3321469F
:103C4000C0F8F03DC2F88433024600F5167082F8E1
:103C500008330C32824281F87D3501F12C01F6D116
:103C600004F5A470CE226721FDF77BFB2368204674
:103C70001B6B00219847236820465B6BBDE8104012
:103C80001847C36B00F58050D0F894231A8370470F
:103C900038B5044600F6F4550B462846054A082177
:103CA0000FF064F9C4F8B45204F51B70BDE8384055
:103CB0000CF02ABE8D51020800F5805310B5D3F8E0
:103CC00090330446032B0AD8DFE803F002171E27BF
:103CD00003689B6B98470BF03DFCFFF709F804F174
:103CE0006C000CF011FE04F198000CF00DFE04F1D4
:103CF000C400BDE810400CF007BE012380F89130ED
:103D0000002384F8BD3005E0012380F8913080F86D
:103D1000BD30002384F8E930E1E7012380F89130D9
:103D2000EFE700000F4B70B50446036041F25035D9
:103D300040F60476B54205D0635960191B68984770
:103D40002C3DF7E740F6C45540F22C5663596019F4
:103D50001B682C3D9847B542F8D12046FFF793FAEF
:103D6000204670BD385A020810B50446FFF7DAFF46
:103D7000204641F298311EF051FA204610BD000055
:103D800013B50A4B0A4A1B88128892B20446009265
:103D90009BB2084A0C2100F538700FF0E7F804F5E3
:103DA000EC7002B0BDE810400CF0AEBDBE280020A3
:103DB000BC2800209051020838B5084D0C4601225D
:103DC0001021284601F01AFA204600F08BFD284603
:103DD0000022BDE83840102101F010BA0004024072
:103DE000B2F90400B2F9083010B5B1F90440034447
:103DF0009C4215DAB1F908302344984210DAB2F93E
:103E00000600B2F90A30B1F9064003449C4207DAD1
:103E1000B1F90A3023449842ACBF0020012010BD04
:103E20000020FCE72DE9F04FD0F8FC32B74DB0F898
:103E3000DC22013385B0C0F8FC322B889BB29A4259
:103E4000044606D0298889B2FFF79AFF2B88A4F888
:103E5000DC32AF4BB4F952611A882B8840F2D3613F
:103E60009BB28B4240F2D280288840F62C1380B25D
:103E700098428CBF03200020A6490B8840F2D365EE
:103E80009BB2AB4240F2C5800B8840F62C119BB22E
:103E90008B428CBF0323002304F580559E49D5F83F
:103EA0007C730988B4F950C1C01900F1B580A1EB49
:103EB0000C018142A8BF0146D5F88003C5F87C13E8
:103EC0001B1800F1AB80921B0A3A9A42A8BF1A460F
:103ED00004F5A47AC5F8802309B212B25046FDF762
:103EE00040FA8E4B1A7800211970002A40D0D5F87C
:103EF0008473002F3CD1D4F8F02D894B9A4237DCE3
:103F000004F542710C2000FB07F3CE5C002E40F05C
:103F100087802344012632442C2083F808637843A9
:103F2000C4F8F02DB4F95021B4F94C11271802EB64
:103F3000D27201EB6201B7F9602502EBD272A1EBFC
:103F40006201B4F94E21C3F80013C3F80423D7F873
:103F5000583500F5AB6009B220449B6D984787F84F
:103F60007D650A212046FFF727FF0523C5F8843326
:103F7000D5F88433002BC4BF03F1FF33C5F8843375
:103F800004F55F63019304F60C63274604F5AB6602
:103F900002934FF00C0B4FF0000897F808336BB109
:103FA000D7F80423B6F90A30043A5B429A42C7F8BC
:103FB00004233ADA87F8088386F82580019B2C369B
:103FC0009E4207F10C07E8D195F88C6304F5736203
:103FD0004FF0000804F60C694FF00C0B0BFB08F7D0
:103FE00019F8073033B12EB951462046FFF7F8FED5
:103FF000002854D108F10108B8F1190F02F12C0280
:10400000ECD1002E6AD105B0BDE8F08F6FF0020050
:1040100032E76FF002033FE700214DE7002257E748
:104020000137322F7FF46FAF9FE73368B7F9001382
:104030009B6D12B2304698474FF0000904F5736249
:104040000BFB09F302990393C95C01B33146204687
:10405000FFF7C6FE039BD0B1234487F8088386F898
:10406000258083F80C8E2C2303FB0943104683F82C
:10407000558FD3F8303F5B699847D5F89413236880
:104080000A311B6BC5F894132046984796E709F14F
:104090000109B9F1190F02F12C02D1D18EE7D5F83F
:1040A00090132C2303FB08430139C5F8901383F8C0
:1040B000556FD3F8303F10465B699847E3192046A7
:1040C00083F80C6E23685B6B9847FA212046FFF754
:1040D00073FE012385F88C33C5F88863D5F88833DF
:1040E0000133DA0758BF94F86D21C5F888335CBFF7
:1040F00082F0010284F86D213B2BC1BF002385F8BB
:104100008C33012384F86D317DE700BFBE28002089
:104110008A390120BC28002088390120BA280020D3
:10412000FFC99A3B2DE9F74F0446FFF7A9F9344B35
:1041300023600023C4E9BE3304F5AB66A4F8DC3287
:10414000A04604F55F6935464FF6FF77284601A97A
:104150002C35ADF80470FFF747F94D45F6D1002333
:1041600004F5736504F59B57C4F8F03D1C37AA4667
:104170004FF6FF7B504601A90AF12C0AADF804B0B6
:10418000FFF732F9BA45F5D104F580534FF0000A34
:104190000322C3E9E1AAC3E9E42A042283F88CA339
:1041A00004EB020B336888F808A31B6EADF80420FB
:1041B000304601A9984786F825A0314658462C3646
:1041C00005F02CFA4E4508F10C084FF00402E9D135
:1041D0004FF0020800262B6828461B6EADF80480BD
:1041E00001A9984785F82560294658462C3505F0E1
:1041F00015FABD42EFD1204603B0BDE8F08F00BFF5
:10420000385A02082DE9F74F0446FFF73DF804F548
:104210003873C4F82032434B1988204689B2FFF71F
:10422000AFFD234604F516702246002183F80813DB
:104230000C33834282F87D1502F12C02F6D1DFF8AF
:10424000ECA0BAF800300522143B142793FBF2F3DC
:104250004FF0000900934FF0010B3AB205264FF0E2
:1042600000080099019209EB08050C2303FB0543A4
:1042700008FB01F10A31C3F8041E83F80CBEC3F831
:10428000087E2C235D4305F57360254409B2D5F8FB
:10429000303F20449B6D9847013E019A85F855BFF9
:1042A00008F10108DDD11437782F09F10509D4D1BF
:1042B000B4F95011BAF8003001EBD1714910C1EBDB
:1042C0005301194B1A88B4F9523104F58055D21AAA
:1042D0000A3AC5F87C13C5F8802309B212B204F576
:1042E000A470FDF73EF80323C4F8FC62C5E9E43688
:1042F000236820465B6B98472368D5F894131B6BA3
:104300002046984704F1F00084F815610CF0FCFA9F
:1043100004F58E7084F8416103B0BDE8F04F0CF0F5
:10432000F3BA00BFBE2800208A3901208839012055
:10433000F02070474FF4A07070472920FDF740BD72
:104340002820FDF73DBD08B5FDF70EFDCA20FDF79D
:1043500037FDC320FDF718FD0820FDF715FD50209F
:10436000FDF712FDCF20FDF72BFD0020FDF70CFD22
:10437000C120FDF709FD3020FDF706FDED20FDF71A
:104380001FFD6420FDF700FD0320FDF7FDFC12205A
:10439000FDF7FAFC8120FDF7F7FCE820FDF710FDA2
:1043A0008520FDF7F1FC0020FDF7EEFC7820FDF7FD
:1043B000EBFCCB20FDF704FD3920FDF7E5FC2C20BC
:1043C000FDF7E2FC0020FDF7DFFC3420FDF7DCFC0C
:1043D0000220FDF7D9FCF720FDF7F2FC2020FDF7C5
:1043E000D3FCEA20FDF7ECFC0020FDF7CDFC00201B
:1043F000FDF7CAFCB120FDF7E3FC0020FDF7C4FC8B
:104400001B20FDF7C1FCB620FDF7DAFC0A20FDF702
:10441000BBFCA220FDF7B8FCC020FDF7D1FC1020AA
:10442000FDF7B2FCC120FDF7CBFC1020FDF7ACFC82
:10443000C520FDF7C5FC4520FDF7A6FC1520FDF7BE
:10444000A3FCC720FDF7BCFC9020FDF79DFC3620A7
:10445000FDF7B6FCC820FDF797FCF220FDF7B0FC95
:104460000020FDF791FCB020FDF7AAFCC220FDF76B
:104470008BFCB620FDF7A4FC0A20FDF785FCA720E5
:10448000FDF782FC2720FDF77FFC0420FDF77CFC74
:104490002A20FDF795FC0020FDF776FC0020FDF7B3
:1044A00073FC0020FDF770FCEF20FDF76DFC2B2066
:1044B000FDF786FC0020FDF767FC0020FDF764FC9B
:1044C0000120FDF761FC3F20FDF75EFCF620FDF7C3
:1044D00077FC0120FDF758FC0020FDF755FC062075
:1044E000FDF752FC2C20FDF76BFCC820FDF7B6FC55
:1044F0002620FDF765FC0120FDF746FCE020FDF7D6
:104500005FFC0F20FDF740FC2920FDF73DFC242037
:10451000FDF73AFC0C20FDF737FC0E20FDF734FCCC
:104520000920FDF731FC4E20FDF72EFC7820FDF729
:104530002BFC3C20FDF728FC0920FDF725FC13206F
:10454000FDF722FC0520FDF71FFC1720FDF71CFCE2
:104550001120FDF719FC0020FDF716FCE120FDF706
:104560002FFC0020FDF710FC1620FDF70DFC1B2092
:10457000FDF70AFC0420FDF707FC1120FDF704FC01
:104580000720FDF701FC3120FDF7FEFB3320FDF78E
:10459000FBFB4220FDF7F8FB0520FDF7F5FB0C20A7
:1045A000FDF7F2FB0A20FDF7EFFB2820FDF7ECFBFF
:1045B0002F20FDF7E9FB0F20FDF7E6FB1120FDF7AB
:1045C000FFFBC820FDF74AFC2920FDF7F9FBBDE8F9
:1045D00008402C20FDF7F4BB08B5FDF7C5FB03210F
:1045E000D320FDF709FC80B208BD10B5C4B2022289
:1045F00003212046FDF76EFB0A20FDF7B3FB2046A2
:1046000000220321FDF766FBBDE810400220FDF704
:10461000A9BB38B50446E4B2FDF75AFB0021204699
:10462000FDF770FB012105462046FDF76BFB40EAD4
:10463000052080B238BD10B5C4B240212046FDF738
:1046400061FB030607D54C212046FDF75BFB0038D4
:1046500018BF012010BD01224B212046FDF73AFB77
:10466000204600224B21FDF735FB0020F2E773B511
:104670000423C4B20E461546D7210DEB0302204693
:10468000FDF75AFB019B1BBA1A0DC3F30B233280B3
:1046900020462B8001224B21FDF71CFB00224B21E1
:1046A0002046FDF717FB02B070BD000010B50A4AA6
:1046B0001378984204460DD0517888420AD00BB145
:1046C00041B90123D454FDF703FB2046BDE8104057
:1046D000FFF78BBF10BD00BF2C2C002010B5C4B25B
:1046E00009212046FDF70EFB40F00102D2B2204620
:1046F0000921BDE81040FDF7EDBA10B5C4B209219B
:104700002046FDF7FFFA092100F0FE022046BDE831
:104710001040FDF7DFBA38B5C4B20D4620460A2175
:10472000FDF7F0FA40EA0502D2B220460A21BDE8C0
:104730003840FDF7CFBA10B50446FDF7CAFA204657
:104740001F21FFF7E8FF2046BDE81040FFF7C6BF76
:1047500038B5C4B20D4620460A21FDF7D3FA20EA47
:104760000502D2B220460A21BDE83840FDF7B2BAB0
:1047700010B50446FFF7C1FF20461F21BDE81040D9
:10478000FFF7E6BF10B5C0B20C460B21FDF7BAFA31
:10479000204010BD1F21FFF7F5BF0A46C0B20B2114
:1047A000FDF798BA1F21FFF7F8BF38B5C4B20D4620
:1047B00020461721FDF7A6FA20EA0502D2B22046CC
:1047C0001721BDE83840FDF785BA70B5C4B206467A
:1047D00004212046FDF796FA042100F0FB0205466D
:1047E0002046FDF777FA3046F021FFF7DEFF05F0AF
:1047F000F80220460421FDF76DFA492220212046C7
:10480000FDF768FA0220FDF7ADFA204601222121CA
:10481000FDF760FA20469A224121FDF75BFA204617
:1048200001224A21FDF756FA204601224B21FDF7CD
:1048300051FA204600224B21FDF74CFA2046012276
:104840005621FDF747FA204601225821FDF742FA8A
:10485000204601224021FDF73DFA2046FF220B2190
:10486000FDF738FABDE870400220FDF77BBA000082
:10487000054BD3F8882042F47002C3F888204FF02B
:1048800000629A60704700BF00ED00E008B50B4B76
:104890001A6842F400721A601A6842F480621A6060
:1048A0001A6842F480721A60032000F061FA002056
:1048B000FDF77CFDFDF7E0FA002008BD003C02405A
:1048C000034A044B11681B780B441360704700BF08
:1048D000302C002078000020014B1868704700BF82
:1048E000302C002038B50446FFF7F6FF631C1CBFD0
:1048F000054B1B78054618BFE418FFF7EDFF431B77
:10490000A342FAD338BD00BF7800002038B5044672
:10491000002800F09B80056C25B9FDF7CDFA656491
:1049200084F83C50236CDB0600F18E80236C23F46A
:10493000885323F0020343F002032364444B5A6874
:1049400022F440325A605A6861680A435A60236808
:1049500021695A6822F480725A605A6842EA012238
:104960005A605A68A16822F040725A605A680A4335
:104970005A609A68E16822F400629A609A680A4371
:104980009A603449A26A8A4252D0996821F07061D3
:10499000996099680A439A609A68E16A22F04052E5
:1049A0009A609A680A439A609A6822F002029A60B2
:1049B0009A68217E42EA41029A6094F82020002AF7
:1049C0003ED05A68616A42F400625A605A6822F422
:1049D00060425A605A68013942EA41325A60DA6AE2
:1049E000E16922F47002DA62DA6A013942EA0152BC
:1049F000DA629A6822F400729A609A6894F8301029
:104A000042EA41229A609A68616922F480629A605F
:104A10009A68002042EA81229A606064236C23F045
:104A2000030343F001032364002384F83C3038BDC2
:104A30009A6822F070629A609A6822F04052B2E757
:104A40005A6822F40062C9E70120EDE70120EEE791
:104A5000002301400100000F82B00023019390F871
:104A60003C30012B69D0012380F83C3003689A6800
:104A7000D2070BD59A68D1071AD4036C43F0100300
:104A80000364436C43F0010343644CE09A682C498F
:104A900042F001029A602B4A1268B2FBF1F202EB7B
:104AA00042020192019A002AE4D0019A013AF8E701
:104AB000026C22F4E06222F0010242F4807202648D
:104AC0005A68520541BF026C22F4405242F48052AF
:104AD0000264026C12F480521CBF426C22F0060287
:104AE0004264002280F83C206FF022021A60164ACD
:104AF000516811F01F0F15491CD18B4207D001F5E9
:104B000080718B420CD1526812F01F0F0BD19A6842
:104B100012F0405F07D19A6842F080429A6002E04A
:104B20000B498B4202D0002002B07047526812F04D
:104B3000100FEBE78B42F6D1E9E70220F4E700BF64
:104B400040420F007400002000230140002001407B
:104B50000022014090F83C30012B14D003689A6881
:104B600022F001029A609B68DB0707D4036C23F4F0
:104B7000885323F0010343F001030364002380F80A
:104B80003C30184670470220704703689A68520507
:104B900070B504460D460BD59B68DE0508D5036C41
:104BA00043F020030364002380F83C30012070BDF3
:104BB000FFF792FE064623681A6891070CD56FF03E
:104BC00012021A60226C42F4007222649A6812F097
:104BD000405F17D00020EAE7681CEDD065B9236874
:104BE0001B6813F00203E6D1226C84F83C3042F0DB
:104BF000040222640320DAE7FFF76EFE801BA8425E
:104C0000EDD8D8E7227E002AE4D1DA6A12F4700FD8
:104C100002D09B685A05DDD4236C23F4807323648F
:104C2000236CDB04D6D4236C43F001032364D1E767
:104C30000368D86C70470000F7B50023019390F823
:104C40003C30012B054600F08680012380F83C3083
:104C500008682B688E68092884B233D904EB4402B3
:104C6000DF681E3A4FF0070C0CFA02FC27EA0C072B
:104C7000DF60DF6806FA02F23A43DA604968062923
:104C800001EB81022DD8596B053A1F26964021EA87
:104C900006015963596B04FA02F20A435A632F4A18
:104CA00093420AD1122837D12D4B5A6822F40002C0
:104CB0005A605A6842F480025A60002085F83C002D
:104CC00003B0F0BD1A6900EB400C072707FA0CF798
:104CD00022EA07021A611A6906FA0CF616431E61E7
:104CE000CCE70C294FF01F010BD81E6B233A9140E3
:104CF00026EA01011963196B04FA02F20A431A63E6
:104D0000CDE7DE6A413A914026EA0101D962D96ACB
:104D100094400C43DC62C2E7124B984201D0112848
:104D2000CBD10F4B5A6822F480025A605A6842F481
:104D300000025A600B4B9842BFD10B4B0B4A1B68C9
:104D4000B3FBF2F30A2253430193019B002BB4D02F
:104D5000019B013BF8E70220B2E700BF00200140C1
:104D600000230140120000107400002040420F0098
:104D70000749CA6822F4E0620302120403F4E06304
:104D8000120C134343F0BF6343F40033CB6070470E
:104D900000ED00E0164B30B5DC68C4F30224C4F12A
:104DA0000703251D042B28BF0423062D4FF0FF35D4
:104DB0008CBF033C002405FA03F321EA0303A5405A
:104DC00022EA0502A340002843EA0203ACBF00F137
:104DD0006040084A4FEA0313B8BF00F00F00DBB28F
:104DE000AABF00F56140135480F8003330BD00BF06
:104DF00000ED00E014ED00E0002807DB044A410963
:104E0000012300F01F00834042F82130704700BFAB
:104E100000E100E010B5044650B1437903F0FF0211
:104E200013B90271FDF778F801236371002010BDFA
:104E30000120FCE710B5044620B390F8393003F0A8
:104E4000FF021BB980F83820FDF77EF8022384F8B2
:104E50003930236861681A6822F440320A431A60C4
:104E60005A6BA16822F007020A435A631A6CE16880
:104E70006FF30D020A431A6400200123E06384F8F3
:104E8000393010BD0120FCE770477047036870B5EA
:104E90005E681D68F207044614D5E90512D51A6844
:104EA00022F480721A60C26B42F00102C2630122D6
:104EB0009A60042380F83930002380F83830436941
:104EC00003B19847B20616D5AB0414D523681A6807
:104ED00022F400521A6020229A60E36B43F002032E
:104EE000E363042384F83930002384F8383063699D
:104EF0000BB120469847300716D5290514D52368ED
:104F00001A6822F400621A6008229A60E36B43F088
:104F10000403E363042384F83930002384F8383031
:104F200063690BB12046984772070BD56B0509D50D
:104F300023681A6822F480621A6004229A6020466C
:104F4000FFF7A2FFB00714D5A90512D523681A6888
:104F500022F400721A6002229A60E36BE363012379
:104F600084F83930002384F8383023690BB12046A7
:104F70009847F20613D5EB0411D523681A6822F47A
:104F800080521A6010229A60E36BE363012384F875
:104F90003930002384F838302046FFF776FF70BDA3
:104FA000F0B590F83820012A03464FF002002BD0CC
:104FB000012283F8382083F8390003EB0112D2E98B
:104FC0000740556A174F44EA0040093C012C9CBF3A
:104FD00005F07F4210434FEA01161A6888BF40EA85
:104FE000056091B9516A394001435162012C9969B8
:104FF000916103D8596A21F07F419162012200201A
:1050000083F8392083F83800F0BDD1693940014375
:10501000D1619919012C896911619CBF25F07F45E7
:105020001562EBE7F0FFFC002DE9F74FDFF8BC91CC
:105030006C4A00230D6801249C4004EA0506AC4339
:1050400040F0B7804D68032705F003044FEA43089A
:1050500007FA08FC671E012F6FEA0C0C34D887682A
:1050600007EA0C0ECF6807FA08F747EA0E078760D1
:10507000476827EA060EC5F300179F4047EA0E0768
:105080004760C76807EA0C0E8F6807FA08F747EA17
:105090000E07022CC76019D14FEAD30A00EB8A0A27
:1050A00003F0070BDAF820704FEA8B0B4FF00F0E6E
:1050B0000EFA0BFE27EA0E0E0F6907FA0BF747EA06
:1050C0000E07CAF8207001E0032CDAD1076804FA51
:1050D00008F407EA0C073C4315F4403F046068D02D
:1050E00000240194D9F8444044F48044C9F8444071
:1050F000D9F8444023F0030707F1804704F48044C3
:1051000007F59C37019403F0030C019CD7F808E0E5
:105110004FEA8C0C0F2404FA0CF42EEA040E324CE5
:10512000A0424DD004F58064A0424BD004F58064C9
:10513000A04249D004F58064A04247D004F58064C1
:10514000A04245D004F58064A04243D004F58064B9
:10515000A04241D004F58064A0423FD004F58064B1
:10516000A0423DD004F58064A04214BF0A24092463
:1051700004FA0CF444EA0E04BC609468F74315F496
:10518000801F0CBF3C4034439460D46815F4001F6A
:105190000CBF3C403443D460546815F4003F0CBF4E
:1051A0003C40344354601468ED0354BF3C403443E6
:1051B00014600133102B7FF43DAF03B0BDE8F08FD6
:1051C0000024D5E70124D3E70224D1E70324CFE765
:1051D0000424CDE70524CBE70624C9E70724C7E765
:1051E0000824C5E7003C01400000024000380240AE
:1051F0000369194214BF0120002070470AB1816180
:1052000070470904FBE7436901EA030221EA03014D
:1052100041EA02418161704701684B6913F4806380
:105220004FF0000210D06FF480634B6120230263C3
:1052300080F83D3080F83E20036C80F83C2043F03D
:105240000403036401207047184670472DE9F846AF
:1052500006460F4691461D464FEA114A3368BAF199
:10526000010F0CBF5C699C6927EA0404A4B2B4FA7C
:1052700084F46409A14501D0002025E06A1CEED029
:10528000FFF72AFB089BC01AA84201D8002DE5D1E0
:105290003368BAF1010F0CBF5B699B6927EA03030E
:1052A0009BB2B3FA83F35B099945D7D1002320223F
:1052B000336386F83D2086F83E30326C86F83C3009
:1052C00042F0200232640120BDE8F8862DE9F04169
:1052D00004460F46164698462568686927EA000086
:1052E00080B2C0B16B695A0517D52B6843F40073BF
:1052F0002B606FF480636B6120220023236384F8AA
:105300003D2084F83E30236C43F0040323640023E3
:1053100084F83C300120BDE8F081731CDDD0FFF73C
:10532000DBFAA0EB0800B04201D8002ED4D12368EC
:105330005A6927EA020292B2002ACDD00023202225
:10534000236384F83D2084F83E30236C1343DDE76B
:1053500070B504460D46164623685B691B0601D5E9
:1053600000201EE02046FFF757FFC8B96A1CF3D0A3
:10537000FFF7B2FA801BA84201D8002DECD12368B8
:105380005B6913F08003E7D12022236384F83D207A
:1053900084F83E30226C84F83C3042F020022264D3
:1053A000012070BD2DE9F0431546026885B0DDE9A6
:1053B0000C789946136843F4807313600E463B469D
:1053C000CDF8008000224FF001110446FFF73EFFA8
:1053D000236838B11B68DB0502D54FF400732364E2
:1053E000032620E006F0FE061E611A4943463A46AF
:1053F0002046FFF76BFFA8B9236803905A69039210
:105400009B690393424639462046039BFFF7A0FF62
:10541000064660B1236C042B01BF2268136843F475
:10542000007313600126304605B0BDE8F083B9F182
:10543000010F236802D1EDB21D61F4E72A0A1A6157
:10544000394642462046FFF783FF0028E2D1236811
:10545000F1E700BF020001002DE9FF479A4603680B
:1054600015461A6842F480621A601A68DDE90C7801
:1054700042F480721A600E463B46CDF8008000224E
:105480004FF001110446FFF7E1FE236838B11B68B5
:10549000DB0544BF4FF400732364032021E05FFA6F
:1054A00086F906F0FE061E612B4943463A46204621
:1054B000FFF70CFFA0B9236803905A6903929B6918
:1054C0000393424639462046039BFFF741FF58B1FC
:1054D000236C042B01BF2268136843F4007313602C
:1054E000012004B0BDE8F087BAF1010F23681AD19A
:1054F000EDB242461D6139462046FFF729FF0246BC
:105500000028E5D121680B6843F480730B602046C6
:10551000CDF800803B464FF00111FFF797FE22685F
:1055200060B11368B4E72A0A1A6139464246204638
:10553000FFF70EFF0028CBD12368D9E749F001031C
:105540001361054943463A462046FFF7BFFE00383F
:1055500018BF0120C5E700BF0200010070B5044676
:105560000D46164623685B695B0701D500201EE0E7
:105570002046FFF751FEC8B96A1CF3D0FFF7ACF91B
:10558000801BA84201D8002DECD123685B6913F081
:105590000403E7D12022236384F83D2084F83E30C1
:1055A000226C84F83C3042F020022264012070BD5D
:1055B00070B504460D46164621684B6913F040034A
:1055C00001D0002011E04A69D2060FD56FF0100219
:1055D0004A612022236384F83D2084F83E30236C06
:1055E0002364002384F83C30012070BDFFF774F978
:1055F000801BA84201D8002DDED123685B6913F01F
:105600004003D9D12022236384F83D2084F83E3022
:10561000236C1343E4E7000070B5044608B9012089
:1056200070BD90F83D3003F0FF021BB980F83C20BC
:10563000FCF7ACFC242384F83D3023681A6822F080
:1056400001021A601A6842F400421A601A6822F4D1
:1056500000421A6000F08AFE3F4B65689D4294BF8D
:105660003E4B3F4B98428CBF00230123002BD6D1E9
:105670002268394E51683B4BB0FBF3F321F03F01F8
:105680001943B542516088BF4FF49676116A88BFBE
:10569000734321F03F0184BF4FF47A76B3FBF6F3F6
:1056A00001330B431362D169431E2B4821F44F4150
:1056B000854221F0FF0132D86D0040F6FC70B3FB4B
:1056C000F5F30133034242D0C3F30B031943D16115
:1056D000D4E907301168034321F0C0010B43136084
:1056E0009168D4E9030321F40341034321F0FF014E
:1056F0000B439360D4E90530D168034321F0FF01E7
:105700000B43D360136843F0010313600020202390
:10571000206484F83D30206384F83E0080E7A06870
:1057200050B905EB4505B3FBF5F30133C3F30B03A8
:105730007BB143F40043C9E719206843B3FBF0F39E
:105740000133C3F30B0323B143F44043BEE7042307
:10575000BCE70123BAE700BFA08601007F841E00DA
:10576000FF083D0040420F002DE9F74304469946EB
:105770000C9E0F469046FFF7AFF894F83D30202B73
:10578000054603D0022003B0BDE8F08300903C49F9
:10579000192301222046FFF759FD0028F2D194F881
:1057A0003C30012BEED02068012384F83C300368A4
:1057B000D9075EBF036843F001030360036823F465
:1057C00000630360212384F83D30402384F83E3099
:1057D000002323640A9B6362BDF82C306385638DCC
:1057E0002385284BE3624246CDE900654B463946A6
:1057F0002046FFF7D7FD00282AD00120C3E7FFF796
:10580000A7FD40B1236C042B01BF2268136843F449
:1058100000731360F1E7636A27681A4612F8011BE8
:1058200039616262628D218D013A92B262857A6934
:10583000481E80B2520720850AD548B15A783A618D
:1058400002336362638D013B02399BB2218563851C
:10585000238D2A4631462046002BD0D1FFF77EFE0D
:105860000028CFD12268136843F40073136020230B
:1058700084F83D3084F83C0084F83E0083E700BFA4
:10588000020010000000FFFF2DE9F043044687B03E
:105890009946109F0D469046FFF71EF894F83D304C
:1058A000202B064604D00225284607B0BDE8F08329
:1058B00000907A49192301222046FFF7C7FC0028EF
:1058C000F1D194F83C30012BEDD02068012384F80D
:1058D0003C300368DB075EBF036843F001030360ED
:1058E000036823F400630360222384F83D304023DF
:1058F00084F83E30002323640E9B6362BDF83C3085
:105900006385638D2385664BE3622946CDE9007686
:105910004B4642462046FFF79FFD054608B101254C
:10592000C2E7228D2368B2B902905A6902929A693D
:105930000292029A1A6842F400721A60DFF86481D7
:10594000238D002B2CD1202284F83D2084F83C307C
:1059500084F83E30A8E7012A0AD11A6822F480624E
:105960001A6003905A6903929A690392039AE1E7D5
:10597000022A0ED11A6822F480621A601A6842F470
:1059800000621A6004905A6904929B690493049B14
:10599000D4E705905A6905929B690593059BCDE76D
:1059A000032B56D8012B15D1324639462046FFF736
:1059B000FFFD0028B3D123681A69636A1A70636A0D
:1059C00001336362238D013B2385638D013B9BB2D1
:1059D0006385B5E7022B00963B464FF00002414637
:1059E000204619D1FFF732FC002898D123681A68A5
:1059F00042F400721A601A69636A1A70626A531C70
:105A00006362238D013B2385638D013B9BB26385DC
:105A100023681B695370D2E7FFF718FC0246002881
:105A20007FF47DAF2368196821F4806119601969DA
:105A3000636A1970636A01336362238D013B2385B6
:105A4000638D013B9BB26385414600963B462046F1
:105A5000C8E7324639462046FFF7AAFD00287FF402
:105A60005EAF23681A69636A1A70628D616A013ACF
:105A700092B24B1C628522686362238D5069013BA0
:105A80009BB2400723857FF55BAF032B02BF1368F2
:105A900023F48063136013694B7090E702001000D9
:105AA0000000FFFF0400010010B590F83D30202BEE
:105AB000DCB216D1242380F83D3003681A6822F046
:105AC00001021A605A6A22F010025A625A6A11439D
:105AD00059621A6842F001021A6080F83D400020C5
