:020000040800F2
:10000000000003206D0600082D2400082F2400089E
:1000100031240008332400083524000800000000C3
:10002000000000000000000000000000017B00084C
:100030003724000800000000917B000827740008A6
:10004000BD060008BD060008BD060008BD06000884
:10005000BD060008BD060008BD060008BD06000874
:10006000BD060008BD060008BD060008BD06000864
:10007000BD060008BD060008BD060008BD06000854
:10008000BD060008BD060008BD060008BD06000844
:10009000BD060008BD060008BD060008BD06000834
:1000A000BD060008BD060008BD060008BD06000824
:1000B000BD060008BD060008BD060008BD06000814
:1000C000BD060008BD060008BD060008BD06000804
:1000D000BD060008BD060008BD060008BD060008F4
:1000E000BD060008BD060008BD060008BD060008E4
:1000F000BD060008BD060008BD060008BD060008D4
:10010000BD060008BD060008BD060008BD060008C3
:10011000BD060008BD06000839240008BD06000819
:10012000BD060008BD060008BD060008BD060008A3
:10013000BD060008BD060008BD060008BD06000893
:10014000BD060008BD060008BD060008BD06000883
:10015000BD060008BD060008BD060008BD06000873
:10016000BD060008BD060008BD060008BD06000863
:10017000BD060008BD060008BD060008000000001E
:10018000BD060008BD060008BD060008BD06000843
:10019000BD060008BD060008BD060008BD06000833
:0C01A00045240008BD060008512400089A
:1001B00010B5054C237833B9044B13B10448AFF3A1
:1001C00000800123237010BD800300200000000088
:1001D0006444020808B5034B1BB103490348AFF35D
:1001E000008008BD00000000840300206444020871
:1001F000034613F8012B002AFBD1181A0138704767
:1002000001F0FF01102A2BDB10F0070F08D010F8C7
:10021000013B013A8B422DD010F0070F42B3F6D1CB
:10022000F0B441EA012141EA014122F007047FF0E4
:1002300000070023F0E80256083C85EA010586EA3B
:10024000010685FA47F5A3FA87F586FA47F6A5FA77
:1002500087F68EB9EED1F0BC01F0FF0102F0070283
:1002600032B110F8013B013A83EA010313B1F8D12E
:100270000020704701387047002D06BF354603380F
:10028000073815F0010F07D1013015F4807F02BF48
:10029000013015F4C03F0130F0BC0138704700BF99
:1002A0007BB972B90029BEBF00204FF0004106E0C3
:1002B00008BF00281CBF6FF000414FF0FF3000F076
:1002C000D3B9ADF1080C6DE904CE002909DB002B90
:1002D0001ADB00F04DF8DDF804E0DDE9022304B09C
:1002E0007047404261EB4101002B1BDB00F040F8FE
:1002F000DDF804E0DDE9022304B0404261EB410196
:10030000524263EB43037047524263EB430300F0F6
:100310002FF8DDF804E0DDE9022304B0404261EB90
:1003200041017047524263EB430300F021F8DDF8CE
:1003300004E0DDE9022304B0524263EB430370475B
:1003400053B94AB9002908BF00281CBF4FF0FF313C
:100350004FF0FF3000F088B9ADF1080C6DE904CE24
:1003600000F006F8DDF804E0DDE9022304B0704790
:100370002DE9F047089D8E4604468846002B4AD159
:100380008A42174662D9B2FA82F64EB1C6F120030C
:1003900001FA06F820FA03F3B74043EA0808B4402C
:1003A0004FEA174E1FFA87FCB8FBFEF1230C0EFB39
:1003B000118843EA084301FB0CF29A4209D9FB1861
:1003C00001F1FF3080F0EA809A4240F2E780023982
:1003D0003B449A1AA3B2B2FBFEF00EFB102243EA92
:1003E000024300FB0CFC9C4509D9FB1800F1FF32CD
:1003F00080F0D6809C4540F2D3803B44023840EAEE
:100400000140A3EB0C0300211DB1F3400022C5E91C
:100410000032BDE8F0878B4205D90DB1C5E9000176
:1004200000210846F5E7B3FA83F1002946D1734568
:1004300002D3824200F20581841A6EEB030201208E
:100440009046002DE5D0C5E90048E2E7002A00F01B
:100450009080B2FA82F6002E40F0A4808A1A030C33
:100460004FEA174E80B2BCB20121B2FBFEFC0EFB7C
:100470001C2243EA024304FB0CF29A4207D9FB1800
:100480000CF1FF3802D29A4200F2E080C4469B1A77
:10049000B3FBFEF20EFB123340EA034302FB04F40B
:1004A0009C4207D9FB1802F1FF3002D29C4200F2B5
:1004B000CA8002461B1B42EA0C40A5E7C1F1200698
:1004C0008B4022FA06F71F430EFA01F420FA06F3D6
:1004D0002EFA06FE4FEA1749234300FA01F81FFAE5
:1004E00087FCBEFBF9F01C0C09FB10EE44EA0E443D
:1004F00000FB0CFEA64502FA01F209D93C1900F1F5
:10050000FF3A80F09C80A64540F2998002383C4436
:10051000A4EB0E041FFA83FEB4FBF9F309FB1344AA
:100520004EEA044403FB0CFCA44508D93C1903F132
:10053000FF3E80F08280A4457FD9023B3C4443EAE1
:100540000040A4EB0C04A0FB02EC64457346E146BA
:1005500062D35FD05DB1B8EB030264EB090404FA27
:1005600006F622FA01F31E43CC40C5E900640021DF
:100570004FE7B1FBF2FC010C41EA0E4180B240EAC8
:1005800001423B4638463C46B846BE462026B1FBB3
:10059000F7F1A2EB080241EA0C4166E7014618E7D1
:1005A00010462CE7C6F120022EFA02F3B740B14004
:1005B00020FA02F24FEA174E0A43B3FBFEF8BCB230
:1005C0000EFB1833110C41EA034108FB04F9B0405B
:1005D00089454FEA104380B23ED9791808F1FF3CB3
:1005E00001D289451FD8A1EB0901B1FBFEF909FB36
:1005F00004F80EFB191192B242EA0142424529D297
:10060000BA1809F1FF31C4D24245C2D2A9F10201A0
:100610003A44BEE7F0459DD2BEEB02036CEB070CFB
:100620000138E14696E7A7EB09094944A8F1020C15
:10063000B1FBFEF909FB04F8DBE773467FE75046A0
:1006400066E70846FDE63B44023A33E7ACF1020CAC
:100650003B441CE749469CE7A1EB0901C446B1FBBA
:10066000FEF909FB04F8C4E7704700BFDFF834D097
:10067000002103E00C4B5B58435004310B480C4BFA
:1006800042189A42F6D30B4A02E0002342F8043B98
:10069000094B9A42F9D304F0EFF822F0CDFF01F0B4
:1006A000AFF870470000032028D80308000000209E
:1006B0006401002080030020C0460120FEE770474F
:1006C00008B500F0C1FDBDE8084000F043BD00F0F2
:1006D000BDBD704710B50421044621F09FFD2046A2
:1006E00010BD000038B50C4B0C4C18800C4B822010
:1006F00019806368984740F6110398420AD1094D62
:1007000023682C60822098472B688220DB689847FA
:10071000002038BD0120FCE7A60300204C0000208B
:10072000A4030020A80300204FF4A071F020FFF7DD
:10073000D9BF0000F7B5394D2B6804461B698220EC
:100740009847208000284ED02B680DF106025B6987
:1007500001A982209847324B1B78002B4BD0BDF863
:10076000062040F674639A423FD9ADF80630BDF8D2
:1007700006209B1A9BB20A2B42D90B22B3FBF2F341
:10078000284A1288934201D9013A93B2BDF8042055
:10079000254840F6B8318A4234D8C2F571620E322B
:1007A000016892B20F25B2FBF5F2204D2D88AA42C6
:1007B00084BF05F1FF35AAB28A4215468EB22AD906
:1007C000921B91B21A4E3768BB42BAB28CBF9A1ACA
:1007D000D21A92B211440529C4BF05603360036880
:1007E00063803368A38003B0F0BDB32A9CBFB422FA
:1007F000ADF80620BBE7BDF80630A3F5B473B9E742
:100800000023C3E7C2F56D62083292B20E2A016876
:10081000C8D800252A46891A89B2D3E7A803002040
:10082000B0280020A4030020A0030020A60300207D
:100830009C03002037B568460D461446FFF77AFF43
:10084000BDF8000030B1BDF802302B60BDF80430B7
:100850002360012003B030BD032821D8DFE800F079
:10086000020B12190F4B1A68B2FA82F252090421D4
:100870000D4804F0C7BC0B4B5A68B2FA82F2520919
:100880000821F5E7074B9A68B2FA82F25209102163
:10089000EEE7044BDA68B2FA82F252092021E7E768
:1008A000704700BFAC03002000100240032821D88D
:1008B000DFE800F0020B12190F4B1A68003A18BF5C
:1008C000012204210D4804F09DBC0B4B5A68003AEC
:1008D00018BF01220821F5E7074B9A68003A18BFB4
:1008E00001221021EEE7044BDA68003A18BF01221A
:1008F0002021E7E7704700BFAC0300200010024052
:1009000003280DD8DFE800F00206080A0421054894
:1009100004F07DBC0821FAE71021F8E72021F6E772
:10092000704700BF0010024008B5032811D8DFE867
:1009300000F0020A0C0E0421074804F05DFC431E7F
:100940005842584108BD0821F6E71021F4E720215C
:10095000F2E70020F3E700BF0010024070B5084D39
:1009600000240126E0B2FFF7DFFF18B12B68012B4E
:1009700018BF2E600134052C05F10405F2D170BDBD
:10098000AC030020012380F8781080F8793070479C
:100990007047002070470000034B4164003918BFC6
:1009A00001211970704700BF7F3901207047002076
:1009B0007047836B0BB10846184770474FF6FF70BE
:1009C0007047406803689B691847704770477047D5
:1009D0007047704710B5044600F04EFD2368034988
:1009E000D3F890302046BDE810401847000000D0F2
:1009F00008B503680446D3F8843098472368204636
:100A0000DB6F984700F0ECF8236820465B6F98474F
:100A1000292001F0C5F900F0E3F8236820465B6F58
:100A20009847F8E710B5044609F060FE23682046B1
:100A3000D3F8BC30BDE81040184700F001BD00F00D
:100A400005BD00F037BD00F0D7BC00F047BD00F099
:100A50004FBD00F0DBBC09F077B810B58421044627
:100A600021F0DCFB204610BD10B590F8341090F852
:100A700078400C4B8C421A7809D03AB90A4A0B4993
:100A80001488088810800C8001221A7010BD002A7A
:100A9000FCD0054A05491488088810800C80002283
:100AA000F3E700BF7839012074390120763901203D
:100AB00070B50D46194635B9094B0A4A0A4840F245
:100AC000FF2122F0E7FAC0E90F52084B003A18BFA5
:100AD00001221A700368BDE87040D3F890301847BF
:100AE000D44402080C4502085A4502087E39012008
:100AF00008B5094B1B888B4203D8084B1B889342CF
:100B000005D9074B074A0848A32122F0C3FA074B2F
:100B10001980074B1A8008BD7439012076390120ED
:100B20009F450208024602085A4502087A39012008
:100B30007C390120034690F87A0018B158680368A0
:100B40001B68184770470000012108B500220846BD
:100B500006F0F2FC0A4B186028B90A4B0A4A282111
:100B60000A4822F097FA00220421012006F083FDB2
:100B7000074B186018B9074B034A2C21F0E708BD52
:100B8000C0030020454602088E460208BD46020802
:100B9000BC03002006470208024B4FF0FF311868E3
:100BA00006F014BDC0030020014B186806F03ABDE2
:100BB000C0030020024B0021186806F007BD00BFEB
:100BC000C0030020FFF7F0BF03480449006800237A
:100BD0001A4606F08BBD00BFBC03002004000020B5
:100BE00013B5084C00231A4601A9206806F0AFFD92
:100BF00020684FF0FF33002201A906F0A8FD02B0E3
:100C000010BD00BFBC03002003685B6C18470120C7
:100C1000704703689B6A1847FEE740F2EF30704761
:100C2000054B0360054B4FF08062C3F88820BFF38B
:100C30004F8FBFF36F8F70471853020800E100E039
:100C400010B504464FF45A61FFF7EAFF204621F041
:100C5000E5FA204610BD000082B0002301930E4B40
:100C60001A6B42F400021A631A6B02F4000201923A
:100C7000019A1A6942F400021A611A6922F4000208
:100C80001A61064B064A1A61064A5A61064B4FF032
:100C900080629A6002B07047003802408C2A0020BF
:100CA000F90E0008190C000800E100E008B50A2858
:100CB00009D8DFE800F006100E0808080810101028
:100CC0001000022008BD054B054A0648902122F07D
:100CD000E1F90020F6E70120F4E700BF48470208E9
:100CE00063470208AE47020838B50C46887FFFF715
:100CF000DDFFA58AE28A164B2169586342EA054264
:100D00005A64628BD963521B1A642568082D0ED170
:100D10009A611A615862207F0E4A42EA0062DA61E3
:100D2000E2681A620C4A5961D9601A6038BD002223
:100D3000D8611A61E1680A0A480902F4784200F4AD
:100D4000FC600243C1F3C4010A439A63034AECE71F
:100D500000B002400900010001230200012303004A
:100D600008B50B280BD8DFE800F00612100A0A0AB3
:100D70000A0808080808022008BD0520FCE7054B02
:100D8000054A06486F2122F085F90020F4E701208A
:100D9000F2E700BF48470208F5470208AE470208DD
:100DA0002DE9F04191F81D800C464046FFF7D8FF31
:100DB000A77F05463846FFF7D3FF06463846FFF7BC
:100DC00075FFA18A628B444B521A1A649A61228B76
:100DD000521A1A61E28A586342EA01425A6421694E
:100DE0006268D963DA602068802828D0227F0FD813
:100DF000202867D0402865D004281AD0364B45EA11
:100E0000026545F40035B845DD6161D0334A44E000
:100E1000B0F5807F04D0B0F5007FEFD1304800E01E
:100E2000304840EA0262DA61E2681A625E62596141
:100E300032E045EA026242F40032DA61F6E7A06885
:100E4000021DDA62227F45EA026545F40035DD6164
:100E50005E625961017841B1012921D0224B234AB8
:100E600023484FF48D7122F015F9DA69418822F494
:100E70007F42013922F0100242EA0122DA610121A7
:100E8000154BDA6942F02002DA61DA699206FCD485
:100E900010229A600029B9D0164A1A60BDE8F08184
:100EA000B2F1FF01DA69408822F47F4200F1FF309D
:100EB00022F0100242EA002242F0100218BF012183
:100EC000DA61DDE745EA0262034B42F40032B4E73F
:100ED00042F20132E1E700BF00B00240012301000D
:100EE000090002000A0002003F48020859480208AF
:100EF000AE47020801230200024B1B6858680368D2
:100F00005B6918478039012070B5044625460A4BB5
:100F10000C30002660602672667245F8203B602225
:100F2000294609F039FD04F55A63EE6024359D42E7
:100F3000FBD1204670BD00BF18530208034B1A684E
:100F4000D207FCD423229A60704700BF00B0024051
:100F50007047000030B50F4C2568ED07FCD4232501
:100F60000904A56041F001010225FF2B656361645E
:100F7000E0630AD00849656241EA0363E361074B15
:100F800022626061E060236030BDE561039BA36382
:100F9000034BF8E700B00240090001000100020025
:100FA0000100030030B50E4C2568ED07FCD4232565
:100FB0001204A56042F001020225FF2B6563626402
:100FC000E063E16008D01B0643F00213E361054BC8
:100FD00065626061236030BD034BE3610123F9E783
:100FE00000B0024001000200020002FF30B50B4CCD
:100FF0002568ED07FCD4232512041B06A56043F4E5
:101000000033022542F0010265636264E063E1603F
:10101000E361034B65626061236030BD00B0024054
:10102000010002000120704714207047142303FBC5
:10103000010008307047142303FB0100083070479B
:101040000120704741F28430704741F2843303FB42
:1010500001000830704741F2843303FB010008307F
:101060007047012070471C2070471C2303FB0100C0
:10107000083070471C2303FB010008307047084606
:1010800001F026BE10B5034B0360044608F0B3FA26
:10109000204610BDD053020810B50446FFF7F2FFFA
:1010A00020461C2121F0BAF8204610BD10B5034B94
:1010B0000360044608F09FFA204610BD9C530208C6
:1010C00010B50446FFF7F2FF204641F28C3121F0C3
:1010D000A5F8204610BD000010B5034B0360044680
:1010E00008F089FA204610BD6853020810B504467E
:1010F000FFF7F2FF2046242121F090F8204610BD92
:1011000010B5094B0360044600F59E500430FFF70C
:10111000B9FF04F13800FFF7C9FF04F11400FFF72D
:10112000DBFF204610BD00BF0454020808B502488A
:10113000FFF7E6FF08BD00BF9C12002010B5044673
:10114000FFF7DEFF204641F2445121F067F82046C8
:1011500010BD00002DE9F34101F0EEF9054601F064
:10116000EFF900240146234628462246009411F058
:10117000A3FF274B274A1A60204602F057FC264D52
:10118000264B274A27489A6011F0FEFE2B68BFF3D2
:101190005B8FDB0736D4284621F042F890B3224C0F
:1011A000224F234B236007F1240604F1140004F1BD
:1011B00038086060C4F80880E760266108F01CFA0F
:1011C0001C4B6361404608F017FA1B4BA36338467B
:1011D00008F012FA04F58053184AC3F8C42304F542
:1011E0009F5002F0A7FC224604F59F51304602F0C2
:1011F00097FC304601F06CFD114821F069FF28464C
:1012000021F01AF80F4802B0BDE8F041FFF7E2BB49
:10121000E4390120480400209812002068040020CE
:101220004C040020080000209C12002060260020B2
:1012300004540208685302089C530208D053020861
:101240002D110008C4030020704700000148FFF77B
:10125000CFBB00BFC403002070B5264E264C274DDF
:10126000274B23603046FFF74FFE284617F02AF839
:1012700024480FF0FFFB244B2448DC6000224FF48D
:101280008071C3E9121222491A86C3E91A12214950
:1012900083F85820C3E91E011F49C3F880101F4975
:1012A0001F480B60F021C3E90422C3E90622C3E909
:1012B0000822C3E90A22C3E90E22C3E91022C3E9C6
:1012C0001422C3E917225A6683F870205A67C3E9CB
:1012D000016501801348018013484FF4A07101801B
:1012E0001248018012490A70012283F83420114A01
:1012F0001A6070BDF40400209412002068040020DD
:10130000C44402084C040020C40300200000010172
:1013100001000001000450001A001400803901206F
:10132000743901207A390120763901207C39012075
:10133000783901202C5202080148FFF771BC00BF28
:10134000F40400200020704781807047C1807047FE
:1013500001817047418170477047704770477047FF
:10136000704710B4C4880368121B84885B6D091B26
:1013700012B25DF8044B09B218474FF6FF73838130
:101380004FF0FF3303621368C361106070470020A1
:1013900070478B88838001207047704780F8261043
:1013A000704790F82600704710B50022B1F9084048
:1013B000B1F90A10028042808480C18010BD0022F1
:1013C000028042808280C28070470177704780ED42
:1013D000080A704780F82410704780F8251070477D
:1013E00001207047983070478C30704784307047C8
:1013F0007047704770470000034B902283F85A23D0
:1014000083F85823704700BF00E100E0094A0A4909
:10141000D3680A48C3F30A03013B9BB20B801169EE
:10142000C1F30A01013901801364536B43F00103D6
:101430005363704700680140E2270020E027002046
:10144000014BD3F8AC00704700680140024B012209
:10145000C3F8AC105A6270470068014010B52C21E7
:10146000044620F0DBFE204610BD10B5BC2104462A
:1014700020F0D4FE204610BD70B5044608F0B9FB3C
:1014800023689D6E0EF066F801462046A847236843
:10149000054AD3F88C502046AC460023BDE8704086
:1014A000A2F51631604700BF00B004D008F088BB39
:1014B00008F092BB08F04EBB08F0BDBC90F82520A8
:1014C00012B103685B691847704790F825201AB17C
:1014D00090F8242002B1186070470000034B4FF0D1
:1014E00080629A604FF080729A60704700E100E07D
:1014F000084B4FF08062C3F88820BFF34F8FBFF3D3
:101500006F8F4FF08072C3F88820BFF34F8FBFF307
:101510006F8F704700E100E070B50023124E8380AA
:10152000124B0360336893F8582005460AB1D86C13
:1015300000B998680368DB6A98473368B0FA80F4AA
:10154000D86C640930B10368DB6A9847002808BF8B
:1015500044F001042CB9064B064A07482C2121F01F
:1015600099FD284670BD00BF80390120185402083B
:1015700097480208F54802082E49020870B5254E22
:101580003568BFF35B8F15F0010540D1304620F080
:1015900047FE00283BD0204C204B256104F134004D
:1015A000C4E90035C4E90255E584A562A5850FF0BC
:1015B00046FD04F158000AF0A3FE194BA36520462E
:1015C000184B40F8843BFFF7A7FF174BC4F8843053
:1015D0002433C4F88C304FF4C803C4E92835002301
:1015E000C4F8AC30C4F8B030C4F8B430C4F8B83083
:1015F0000E480F4BC4F89050C4F89C50C4F8A85043
:10160000C4F8983021F064FD304620F015FE024801
:1016100070BD00BFE4270020E8270020085C020816
:1016200038540208B0540208BC5B0208F5130008E5
:101630009C5B020838B5184C23685BB3174B184AFB
:101640001B6C11888B4216D1164B198804F0C4FB11
:10165000236893F86A200025013283F86A2083F812
:101660007C50FFF7B1FA206809F040F82846BDE841
:101670003840FFF7F1B804F0AFFB24682368204638
:101680001B6A9847012384F87C300020BDE838406D
:10169000FFF70CB938BD00BF803901200068014058
:1016A000E2270020E027002007B5064BADF8060032
:1016B0001B68054801220DF1060105F03DF903B054
:1016C0005DF804FB0C0000203829002000B51E4CFA
:1016D0001E4E89B0204603F0C3F94FF0FF3120467B
:1016E00003F057FA204603F0A7FA80B24FF0FF311B
:1016F0003080204603F04DFA204603F09DFA144D49
:1017000080B22880204603F029FA1248042103F011
:1017100073FD10B9104B01221A7032882B880F49C3
:101720009BB292B2684621F079FE6846FEF760FDF2
:101730004FF0FF3382B26946094805F08EFD142050
:1017400005F0EEFEC6E700BFD42A0020AA2800203C
:10175000A828002000000240A62800209049020886
:10176000F028002030B595B0102200210AA821F001
:10177000BAFE1422002103A821F0B5FE00241E4B5E
:1017800001941A6C42F080521A641B6C03F080536F
:101790000193019B194B02941A6842F440421A606B
:1017A0001B6803F4404302930122029B4FF48033F1
:1017B000CDE9082302254FF480030821CDE90E531B
:1017C0004FF4B473CDE9101308A8042313931295B2
:1017D00004F05AFB04F01EFB0F23CDE903354FF450
:1017E000A0504FF48053CDE90603052103A80594CA
:1017F00004F026FD15B030BD0038024000700040F6
:101800002DE980489BB003F045F8FFF7ABFF1422A9
:1018100000210DA821F067FE0024C94B00941A6B2B
:10182000C848DFF8589342F010021A631A6B02F0AE
:1018300010020092009A01941A6B42F020021A637F
:101840001A6B02F020020192019A02941A6B42F084
:1018500080021A631A6B02F080020292029A0394C9
:101860001A6B42F004021A631A6B02F0040203922C
:10187000039A04941A6B42F001021A631A6B02F085
:1018800001020492049A05941A6B42F002021A6350
:101890001A6B02F002020592059A06941A6B42F046
:1018A00040021A631A6B02F040020692069A0794ED
:1018B0001A6B42F008021A631B6B03F008032246FE
:1018C00007933C21079B03F09DFC9F4801220221C6
:1018D00003F098FC22469C48042103F093FC224626
:1018E0009A484FF4405103F08DFC01263C234FF001
:1018F000030894480F940DA9CDE90D360227CDF8C1
:10190000408003F095FB90480DA90425CDE90D76A4
:10191000CDE90F4403F08CFB8B480DA9CDE90D56A2
:10192000CDE90F4703F084FB89480F940DA9CDE959
:101930000D5403F07DFB4FF4405384480DA9CDE9CD
:101940000D36CDE90F4703F073FB81480F940DA9C5
:10195000CDE90D8803F06CFB0DA97D480F96CDE90C
:101960000D5403F065FB7B487B4B7C4DDFF8108208
:10197000036003F053FA7A4B2C62C5E900832846D2
:101980004FF48043C5E90434C5E90244C5E906447F
:1019900003F046FE1021284604F08AF82146284626
:1019A000704D04F0A4F84FF48273C5E900934FF42E
:1019B000007A1823C5E906A328460A23C5E902448C
:1019C000C5E90444C5E90844AC62EB6204F058FF81
:1019D0008F23224639465C488DF824308DF83440F8
:1019E00003F010FC32464FF47A7309A9284604F03C
:1019F000A3FF4FF47A7332460DA9284605F048F943
:101A0000324639465048584D03F0FCFB9DF83430BF
:101A1000D32B04BF554B1E70554B0126C5E900362C
:101A20004FF0100A40230024C5E904A34FF4C0730B
:101A3000C5E906344FF40063C5E908344FF4005398
:101A400002274FF00409AB624FF0030B07230DA9E7
:101A50002846CDE90D73CDE90F934FF00808C5E98D
:101A60000249CDE911B7139704F0EEFD4FF6FF726E
:101A700009A92846CDE90A86089409960C9404F031
:101A800003FE304602F032FF4FF6FF7209A92846E6
:101A9000CDE90978CDE90B6404F0F6FD4FF6FF724D
:101AA00009A92846CDE909B8CDE90B9404F0ECFD6D
:101AB0004FF40C730893089B0C934FF6FF7209A91F
:101AC0002846CDE909980B9604F0DEFD40F26A51F4
:101AD000284604F0F7FD342221460DEB020021F0E8
:101AE00002FD244D244B2C61C5E900340923C5E9CE
:101AF00005361D23C5E9073B40F20D1240F24313A2
:101B0000C5E9092340F2171140F247132846C5E9F9
:101B10000B13C5E90244AC8685F8364004F07AF828
:101B2000FF21F022CDE912144FF4806005214FF41B
:101B3000A073CDE91401CDE90E240DA922E000BF68
:101B4000003802400010024000080240000C024031
:101B500000000240CC2A002000300240382A002039
:101B6000A086010038290020BC280020B0280020D1
:101B7000400100A090290020006801400050014071
:101B8000005C0040CDE9164228462246394D1893A4
:101B9000CDE910370D94ADF864408DF8664004F03F
:101BA000EDF8354B2B601B6898472B68334DDB688D
:101BB0009847334B2846C5E90034C5E90274C5E9A6
:101BC0000A47C5E90C4403F039F93146284603F0C9
:101BD000EBF9524621460DA821F085FC294DDFF88E
:101BE000C8C0AC604FF48033C5E900C32846264B1B
:101BF000AB622E612C7685F82040EC62EC60EF61E0
:101C000085F830406E6102F085FE0DA92846CDE9C9
:101C10000D460F9403F014F80DA92846CDE90D6781
:101C200003F00EF8DFF884E018484FF4E133C0E920
:101C300000E30C23C0E90534C0E902440461C46137
:101C400005F0DCFAFEF73CFDFEF739FD05F0F8FB88
:101C50000F4A1048214605F01FFC0F4B0F4A186031
:101C600021460F4805F018FC0E4B186005F0FAFBF2
:101C7000FEE700BFAC280020140000208C2A0020C2
:101C800000B00240D42A00200100000FF0280020FC
:101C900018550208CD160008B8280020F454020890
:101CA000CF060008B42800200020014000100140A9
:101CB000704770477FB5094B8DF817201B6802935A
:101CC0000DF117020123009201930A4601460448D0
:101CD00003F04EFD07B05DF804FB00BF10000020CC
:101CE000382A00207FB500238DF81730084B1B6879
:101CF00002930A4601230DF1170100910193014659
:101D0000044803F0C5FD9DF8170007B05DF804FB1B
:101D100010000020382A00201FB5084C24680092CB
:101D2000CDE901340A4601230146054803F0B0FD20
:101D3000003818BF012004B010BD00BF1000002003
:101D4000382A002002F0D2BD10B5064C00222046F1
:101D5000042103F057FA20460122BDE81040042177
:101D600003F050BA0008024038B50B4D044601227A
:101D70000A484FF4005103F045FA00220421284696
:101D800003F040FA2046FFF78FFC28460122BDE809
:101D90003840042103F036BA00080240000C02402B
:101DA00038B50B4D044600220A484FF4005103F0A9
:101DB00029FA00220421284603F024FA2046FFF7DE
:101DC00073FC28460122BDE83840042103F01ABA0A
:101DD00000080240000C0240F7B5144E144F0546AF
:101DE0000C4630460022042103F00CFA00224FF486
:101DF0000051384603F006FA2846FFF755FC0D4B14
:101E00000D481B68224601A904F042FF3846012212
:101E10004FF40051019C03F0F5F9304601220421F2
:101E200003F0F0F9204603B0F0BD00BF0008024007
:101E3000000C02400C0000203829002002F056BDA2
:101E40000268034B9A4201D102F03EBD704700BFC9
:101E5000001000407047000082B00E4B002200923C
:101E6000596C41F480415964596C01F480410091EE
:101E700000990192196C41F0805119641B6C03F0B8
:101E800080530193019B0F216FF0010002B002F01B
:101E900085BF00BF0038024010B5044688B0142248
:101EA000002103A821F01FFB2268114B9A421DD18B
:101EB00003F58C33002101915A6C0E4842F4807274
:101EC0005A645A6C02F480720192019A02911A6B60
:101ED00042F001021A631B6B03F001030293029BA1
:101EE00003A90323CDE9033303F0A2F808B010BD22
:101EF00000200140000002400268094B9A4282B073
:101F00000BD100230193074B1A6B42F480521A63E2
:101F10001B6B03F480530193019B02B0704700BF19
:101F2000003002400038024007B50F4B02689A4269
:101F300016D10022A3F5F0430192196B41F4000180
:101F400019631B6B03F40003019305215A20019BC5
:101F500002F024FF5A2003B05DF804EB02F050BFFA
:101F600003B05DF804FB00BF00B002402DE9F04370
:101F7000044689B01422002103A821F0B4FA226893
:101F8000244B9A4243D1244C244800250095236BCE
:101F900043F004032363236B03F004030093009BCB
:101FA0000195236B43F001032363236B03F00103CB
:101FB0000193019B4FF012094FF400734FF0010899
:101FC0000327042603A9CDE90339CDE90587079640
:101FD00003F02EF84FF480731148079603A9CDE95A
:101FE0000339CDE9058703F023F80295236C43F408
:101FF00000032364236C03F400030293029B236A0F
:1020000043F400032362236A23F40003236209B02C
:10201000BDE8F083005C0040003802400008024048
:1020200000000240F0B599B004461422002107A830
:1020300021F059FA30220DEB0200002121F053FA71
:1020400022685E4B9A4240F0B78008230C93C0236D
:102050001093042312930CA84FF40033159304F04B
:10206000C7F908B1FFF7F6FE554B56480024009417
:102070005A6C42F080625A645A6C02F0806200929C
:10208000009A01941A6B42F020021A631A6B02F054
:1020900020020192019A02941A6B42F001021A6323
:1020A0001A6B02F001020292029A03941A6B42F038
:1020B00002021A631A6B02F002020392039A04945A
:1020C0001A6B42F040021A631A6B02F0400204924B
:1020D000049A05941A6B42F004021A631A6B02F018
:1020E00004020592059A06941A6B42F008021A63DC
:1020F0001B6B03F00803069302250E26069B0B9626
:102100004FF4806307A9CDE90735CDE9094502F011
:102110008FFF41F658032C480B9607A9CDE90735E8
:102120000927CDE9094502F083FF032327480B97D0
:1021300007A9CDE90735CDE9094502F079FF4FF44C
:10214000706322480B9607A9CDE90735CDE909450B
:1021500002F06EFF4FF40C631D480B9607A9CDE902
:102160000735CDE9094502F063FFC02319480B96F6
:1021700007A9CDE90735CDE9094502F059FF082344
:1021800015480B9607A9CDE90735CDE9094502F0B9
:102190004FFF4FF4A0530E480B9707A9CDE9073521
:1021A000CDE9094502F044FF58202246052102F0FE
:1021B000F5FD582002F024FE19B0F0BD0068014082
:1021C00000380240001402400000024000040240B7
:1021D0000018024000080240000C024010B50446FE
:1021E00088B01422002103A821F07DF92268144B45
:1021F0009A4223D103F56843002101915A6C11489A
:1022000042F480125A645A6C02F480120192019ACC
:1022100002911A6B42F020021A631B6B03F0200339
:102220000293029B4FF4607202230321CDE9032342
:102230000523CDE9061303A902F0FAFE08B010BD8C
:10224000005001400014024010B5044688B014222A
:10225000002103A821F047F92268144B9A4223D1A8
:1022600003F59433002101915A6C114842F0100299
:102270005A645A6C02F010020192019A02911A6B90
:1022800042F001021A631B6B03F001030293029BED
:102290004FF4C06202230321CDE903230723CDE9D4
:1022A000061303A902F0C4FE08B010BD00100140DF
:1022B000000002402DE9F04186B0002303932B4B30
:1022C0001C68002C4FD14FF00108C3F80080284B48
:1022D00000949A6B274842EA08029A639B6B03EAD0
:1022E00008030093022703260C25009B01A94FF643
:1022F0003F03CDE90137CDE9046502F099FE1E48A0
:10230000059501A9CDE90187CDE9034602F090FECC
:1023100048F233131948059501A9CDE90137CDE9F4
:10232000034602F085FE4FF683731548059501A913
:10233000CDE90137CDE9034602F07AFE4CF2037392
:102340001048059501A9CDE90137CDE9034602F012
:102350006FFE60230C48059501A9CDE90137CDE951
:10236000034602F065FE06B0BDE8F0811C2B00209C
:1023700000380240001402400008024000180240E9
:1023800000100240000C02400004024070B588B00A
:1023900000230293204B1A6C42F010021A641B6C4B
:1023A00003F010030293054601A903A8029B04F061
:1023B00001F8069B4BBB03F0DDFF184E184B336052
:1023C00040F2E733F360174BB0FBF3F3013B73606C
:1023D000304600233361B360B36104F023FE04464A
:1023E00080B9304604F0F8FC044658B9362002F0B3
:1023F00007FD0F2D0DD822462946362002F0CEFCCF
:10240000094B1D60204608B070BD03F0B3FF4000CB
:10241000D3E70124F6E700BF00380240202B00205C
:102420000010004040420F007C0000207047FEE793
:10243000FEE7FEE7FEE77047014804F00BBD00BF72
:10244000202B0020014803F03CBC00BF9029002055
:10245000014802F01FBD00BF8C2A002001207047F8
:1024600008B521F0E3F8162303604FF0FF3008BDF4
:1024700008B521F0DBF816230360FEE770B50D46C2
:1024800014460E46731B9C4201DC204670BDAFF320
:10249000008006F8010BF5E770B50D4614460E46B0
:1024A000731B9C4201DC204670BD16F8010BAFF394
:1024B0000080F5E74FF0FF3070474FF400534B605A
:1024C0000020704701207047002070470A4A1168B9
:1024D00008B5034609B90949116010686946034403
:1024E0008B4206D921F0A2F80C2303604FF0FF3095
:1024F00008BD1360FCE700BF682B0020C046012028
:10250000704710B5042104461FF088FE204610BD18
:10251000012908B506D0022908D059B901F0D2FA2C
:10252000006808BD01F0CEFA4068FAE701F0CAFA87
:102530008068F6E70020F4E700487047505502082D
:102540000720704713B5002451B1036801948DF83A
:10255000034001AA9C680DF10303A04702B010BD1F
:102560000846FBE7C0897047008A7047C0887047FB
:1025700080887047807A00F07F007047807AC009B9
:1025800070470020704700009FED010A704700BFB0
:1025900000000000704710B5082104461FF03EFE01
:1025A000204610BD7047704700F598730868496869
:1025B00003C370477047704741607047704770476A
:1025C000064BC0F84C310023C0F8503100F5A2731F
:1025D000C0F84801C0F84031704700BF052B000823
:1025E000012303727047704770477047704738B5D2
:1025F000054640680368DB699847044604B938BD5E
:10260000A188AB89C91A236820461B6B09B2984779
:10261000A469F3E710B4C26841685410034601EBA3
:102620006200D20748BF0A599B685DF8044B48BF57
:10263000D35818470346406830B19A681AB9D86829
:1026400000F0010070470120704710B50C210446CE
:102650001FF0E4FD204610BD10B5142104461FF004
:10266000DDFD204610BD10B5102104461FF0D6FD3B
:10267000204610BD10B5102104461FF0CFFD2046A6
:1026800010BD10B54FF4AE7104461FF0C7FD2046D3
:1026900010BD10B50CF05EFF0368BDE81040DB6BA9
:1026A000184710B50CF056FF0368BDE810405B6B8F
:1026B000184710B50CF04EFF0368BDE810405B6B87
:1026C0001847000013B50446807A637A0130C0B21F
:1026D0009842A07205D9012323720023A37202B08D
:1026E00010BDB4F90C2000210FF012F9C30707D573
:1026F00000284FF6FF73C8BF012313FA80F000B221
:10270000144AE08112880023ADF8023083B2D21A55
:10271000ADF80020228A20829B1AADF804300E4BBF
:102720001B88ADF806300CF015FF036802AA1B6C7D
:1027300012E906009847A37A012BD0D1074B1B78EA
:10274000002BCCD00CF006FF02B0BDE810400CF01E
:1027500007BF00BF74390120763901207E3901207E
:1027600037B50546807A6B7A0130C0B29842A872BC
:1027700005D901232B720023AB7203B030BDB5F92C
:102780000C20B5F90E4000210FF0C2F8C30707D5A1
:1027900000284FF6FF73C8BF012313FA80F000B280
:1027A000AB7AE881041B012BA4B206D1174B1B782E
:1027B0001BB10CF0CFFE0CF0D3FE154A002312889B
:1027C000ADF80230EB891A445B42ADF80430114B8E
:1027D000ADF800201B88ADF806300CF0BBFE036896
:1027E00002AA12E906001B6C984768680368DB6957
:1027F00098470546002DC0D0A9882B68214428465B
:102800001B6B09B29847AD69F4E700BF7E39012020
:10281000743901207639012010B50446D0F8400102
:1028200058B10368DB68984738B1D4F840010368B1
:102830009B6898470023C4F8403110BD2DE9F14F43
:10284000D0E9556A0746B06803681B6A984741F2A9
:102850008333984205D8494B494AA321494820F07F
:1028600019FC706803681B6A98471B2803D8464BFD
:10287000434AA421F2E7F06803681B6A98470F28CF
:1028800003D8424B3E4AA521E8E70CF063FEDFF88F
:10289000089104300CF0ABFED9F8000010B10368C9
:1028A000DB689847D9F8000010B103681B689847A7
:1028B000DFF8E880D8F8000010B103685B6998473A
:1028C000D7F83C0110B103685B689847D8F800005E
:1028D00010B103681B689847D7F83C0110B1036832
:1028E0009B689847F068036800215B6A9847284B0B
:1028F00003604FF4A0530381264B1B884FF0000B5D
:1029000080F80AB05B420446C0F804B0A0F80EB0EC
:102910008381B068036859465B6A9847054601F0B1
:10292000D9FB7068036859465B6A98472946064692
:1029300001F078F9331DC7F83C61C9F80040C8F8C8
:102940000050CAF800302B68C6F808A02846DB689B
:10295000EE639847336830461B68984721462846FF
:102960000EF0D0FF236820461B69984723685B69F7
:10297000204601B0BDE8F04F184700BFB449020837
:10298000424A0208274B02086E4B0208114C02080B
:102990008456020874390120C8390120C439012045
:1029A0002DE9F14FD0E955BA0746DBF80800036876
:1029B0001B6A9847B0F5C07F05D2494B494AA3210D
:1029C000494820F067FBDBF8040003681B6A98475E
:1029D0000F2803D8454B434AA421F1E7DBF80C004C
:1029E00003681B6A9847132803D8414B3D4AA52129
:1029F000E6E70CF0AFFDDFF8049104300CF0F7FDD2
:102A0000D9F8000010B10368DB689847D9F80000D6
:102A100010B103681B689847DFF8E480D8F800001D
:102A200010B103685B699847D7F83C0110B103689F
:102A30005B689847D8F8000010B103681B68984796
:102A4000D7F83C0110B103689B689847DBF80C008D
:102A5000036800215B6A9847264B03604FF4A0533C
:102A60000381254B002686721B8846600446C6817A
:102A700006828381DBF80800036831465B6A984769
:102A8000054601F099F8DBF80400036831465B6AFB
:102A900098472946064601F061F8331DC7F83C61A6
:102AA000C9F80040C8F80050CAF800302B68C6F8D2
:102AB00008A02846DB68EE639847336830461B68F9
:102AC0009847214628460EF01DFF236820461B69C3
:102AD000984723685B69204601B0BDE8F04F18476E
:102AE000B4490208B44C0208274B02086E4B020896
:102AF000114C0208A856020874390120C839012077
:102B0000C43901202DE9F14FD0E9556A0746B06874
:102B100003681B6A9847B0F5C07F05D2444B454A0D
:102B2000A321454820F0B6FA706803681B6A9847ED
:102B30000F2803D8414B3F4AA421F2E7F06803680D
:102B40001B6A98470B2803D83D4B3A4AA521E8E772
:102B50000CF000FDDFF8F09004300CF048FDD9F8DF
:102B6000000010B10368DB689847D9F8000010B185
:102B700003681B689847DFF8D480D8F8000010B1CC
:102B800003685B699847D7F83C0110B103685B683C
:102B90009847D8F8000010B103681B689847D7F829
:102BA0003C0110B103689B689847F06803680021F6
:102BB0005B6A98474FF0000B224BC0F804B0044604
:102BC00080F808B00360B068036859465B6A9847AC
:102BD000054600F0F1FF7068036859465B6A984744
:102BE0002946064600F0BAFF331DC7F83C61C9F814
:102BF0000040C8F80050CAF800302B68C6F808A09A
:102C00002846DB68EE639847336830461B68984770
:102C1000214628460EF076FE236820461B69984719
:102C200023685B69204601B0BDE8F04F184700BF3C
:102C3000B4490208984D0208274B02086E4B02085F
:102C4000114C020860560208C8390120C43901201D
:102C5000044B1B6893F858200AB1D86C00B99868E7
:102C6000704700BF80390120F8B5174604460E466C
:102C70000CF05AFD124B1C60124B2360124B0025C6
:102C8000C4E95135114BC4E9535518680368012153
:102C90009B68C4E94F55C4E955769847284600F02B
:102CA000C5FEFFF7D5FF17F0B6F9FFF7D1FF17F014
:102CB0002DFAFFF7CDFF17F035FA2046F8BD00BF1B
:102CC000D43901200C560208F4550208803901203D
:102CD000064BC0F84C310023C0F8503100F5A27308
:102CE000C0F84801C0F84031704700BF052B00080C
:102CF000064BC0F84C310023C0F8503100F5A273E8
:102D0000C0F84801C0F84031704700BFA129000851
:102D1000064BC0F84C310023C0F8503100F5A273C7
:102D2000C0F84801C0F84031704700BF3D28000896
:102D3000406A7047806A704770478A880B8810B570
:102D4000D20A4C88C1699BB251F8220043EA04437D
:102D5000184410BD10B50446BAB1107B68B1537B5E
:102D6000D27A1B0203F4E0631A43236A03EB820363
:102D70001A888A4202D193F9020010BD05D80138A1
:102D800080B204330028F3D1F7E70020F5E710B54F
:102D90002C2104461FF042FA204610BD30B58BB0FE
:102DA0000446BDF860500895BDF85C5007959DF845
:102DB000505006959DF84C5005959DF84850049547
:102DC0009DF8445003959DF8405002959DF83C5065
:102DD0000195BDF8385000950EF0EEF9064B2360D2
:102DE000159BE361169B2362199B63621A9BA36286
:102DF00020460BB030BD00BFCC560208704770476C
:102E000070477047704730B5036885B06D460181E3
:102E1000D3F88430014604462846984795E80700D1
:102E20003C3484E8070005B030BD30B5036885B098
:102E30006D464181D3F884300146044628469847C0
:102E400095E807003C3484E8070005B030BD002257
:102E5000028042808280C280704780F836107047BE
:102E600070B5036804461B6B1546984723682946CE
:102E700020465B6EBDE87040184700207047806CAC
:102E80007047704770477047704730B4C2684468F5
:102E90005510034604EB6200D20748BF62599B6895
:102EA00030BC48BFD35818470346406830B19A68D1
:102EB0001AB9D86800F0010070470120704710B5BA
:102EC0004C2104461FF0AAF9204610BD10B5102170
:102ED00004461FF0A3F9204610BD10B54FF4B87199
:102EE00004461FF09BF9204610BD08B5FEF7E6FA30
:102EF00008BD0000036870B55E6B124B1B6804468A
:102F00008DB22BB9104B114A6C21114820F0C2F838
:102F10001049828D0988914203D80F4B0B4A6D21CD
:102F2000F3E713F812200D4B1B6853F822000368D7
:102F30001B6B9847291A3346204609B2BDE87040FA
:102F4000184700BFD83901206A4E0208AC4E02086B
:102F5000E74E0208DC3901202E4F0208E03901203B
:102F600000F59670884208B505D10CF0F3FABDE87B
:102F70000840FFF7CDBE08BD00224FF0FF31C0E989
:102F800000218260704770B5036804461B6B1546CC
:102F900098472368294620465B6BBDE87040184778
:102FA0000022C0E90122C0E90322C0E90522C0E9EC
:102FB00007224FF480728284014A0260704700BF8A
:102FC0003457020810B526220446002120F08BFA5F
:102FD0002046FFF7E5FF0A4B23600A4BA3624FF63A
:102FE000FF73A3854FF47F020023C4E90C322387CB
:102FF0004FF0FF32C4E91023E363204610BD00BF49
:10300000CC5C0208E45502082DE9F04F044689B073
:10301000264600250EF0CAFA7E4BE56346F8403B93
:1030200029462622304620F05EFA3046FFF7B8FFE8
:1030300004F16C0B784B2364FF2726224FF6FF78B0
:10304000294684F86670A5665846ADF8188020F0C9
:103050004AFA5846FFF7A4FF704BE366BDF81830F4
:10306000A4F8923004F1980A06A9584684F894709E
:1030700009F075FE04F1E0075046FFF7A3FF38465C
:10308000FFF7A0FF04F59679654BC4F8E0302946B8
:103090002622C4F82851484620F025FA4846FFF772
:1030A0007FFF012384F850315E4BC4F82C315E4B16
:1030B000C4F85451C4E958345C4B84F858512A463A
:1030C000C4E95A3529463046A4F85A81A4F85C81EF
:1030D00084F85E81FFF757FF3046F021FEF738F99C
:1030E00030464FF4A071FEF735F904F104084FF0B3
:1030F0007F43A3663146404606F090FA792258464F
:103100001C21FFF740FF584606A9ADF8185009F0FA
:1031100026FE5946404606F081FA86221C2150467A
:10312000FFF731FF6E46424BC4F8C830A4F8CC50CC
:103130005146304609F0E2F996E8070004F1D4035D
:1031400083E807004FF0060B3A4B069306A950465A
:10315000ADF81CB009F06CFC5146404606F05EFA32
:10316000862288213846FFF70EFF334AC4F8102123
:10317000D4F8E020A4F81451D2F88420394630461F
:10318000904796E8070004F58E7585E807002B4AFE
:1031900012682AB92A4B2B4A60212B481FF07AFF6C
:1031A0002A4A1288042A03D8294B264A6121F4E7C7
:1031B000284A0421106800F075FCC4F8280138463C
:1031C00009F016FC1B4B0693052206A93846ADF8FC
:1031D0001C2009F02DFC3946404606F01FFA4846EF
:1031E000CE221421FFF7CFFE06AA05A94846ADF866
:1031F00014B0ADF818B009F079FC04F5B07340468E
:10320000C4F85431494606F009FA204609B0BDE831
:10321000F08F00BF445802085C5D0208385E020867
:103220009C570208C45D02082C580208612F000850
:103230000909EBFFE45502080505F2FFD839012022
:103240006A4E02086C4F0208E74E0208DC39012082
:103250002E4F0208E4390120806A7047704770479A
:1032600070477047704730B4C268446855100346D1
:1032700004EB6200D20748BF62599B6830BC48BF6C
:10328000D35818470346406830B19A681AB9D868CD
:1032900000F0010070470120704790F82D3080F851
:1032A0005C3070470146343091F82C3013B16231F4
:1032B00009F055BD6031FBE710B5642104461EF0EE
:1032C000ADFF204610BD10B5102104461EF0A6FF2C
:1032D000204610BD10B54FF4207104461EF09EFF2D
:1032E000204610BD10B50446006B50B10368DB6882
:1032F000984730B1206B036821469B68BDE81040B9
:10330000184710BD0B7970B590F82C6004460D4637
:103310000BB916B170BD002EFCD0B3FA83F35B0974
:1033200084F82C3023682046D3F88C3098472368E3
:1033300020465B699847002EECD02B79012BE9D110
:1033400023682046D3F88830BDE87040184700F560
:10335000BA738B4210B5044609D10CF0FBF8FFF7A5
:10336000C7FC23682046DB6ABDE81040184710BD43
:1033700070B5036804469B6B154698472368294639
:103380002046DB6BBDE8704018470B8870B5A0F88D
:1033900060300546138825F8623F044628460FF042
:1033A0009FFE064628460FF0CFFE314602462046D5
:1033B000FFF7DEFF23682046D3F88C30BDE870406D
:1033C0001847000038B5262204460D46002120F09B
:1033D0008AF82046FFF7E4FD064B23602B88E38440
:1033E000FF23204684F82830294609F0B8FC2046FF
:1033F00038BD00BF385E020810B526220446002101
:1034000020F071F82046FFF7CBFD0A4BA3624FF680
:10341000FF73A3854FF47F020023C4E90C32064AF0
:10342000226023874FF0FF32C4E91023E363A364D3
:10343000204610BDE45502089C570208F7B54FF42A
:103440007F430646838540F2011300258384134B96
:103450008562C0E90155C0E90355C0E90555C0E9D9
:103460000755056346F8343B04464FF6FF7701A93C
:103470003046ADF80470FFF7A5FF2A4629463046CE
:10348000A4F86070A4F86270FFF77DFD2046314615
:1034900006F0C4F8204603B0F0BD00BF785802081B
:1034A0002DE9F04F04468FB0A14600250EF07EF8BE
:1034B000BA4BE56349F8403B26222946484620F0AE
:1034C00012F84846FFF76CFDB54B236404F16C0815
:1034D000FF234FF6FF7604F1980784F866300CA9B5
:1034E0004046A56604F1C40BADF83060FFF76AFFF3
:1034F0000CA93846ADF83060FFF764FF0CA95846B8
:10350000ADF83060FFF75EFF04F1F0030CA9184638
:103510000393ADF83060FFF755FF04F58E730CA9E7
:1035200018460493ADF83060FFF74CFF04F5A47320
:103530000CA904F5BA7A18460593ADF83060FFF788
:1035400041FF5046FFF77AFF04F5EC7318460193EC
:10355000FFF752FF04F5097318460293FFF74CFF7B
:10356000904BC4E99C34904B4846C4E99E352A46AA
:103570002946FFF708FD4FF4A0724846F021261DAA
:10358000FFF7F6FE4FF07F43A3664946304606F04C
:1035900045F82A4640462946FFF7F5FC4FF0030957
:1035A00040460CA9ADF8309009F0D9FB41463046B1
:1035B00006F034F82A4638461221FFF7E4FC384674
:1035C0000CA9ADF8309009F0CAFB3946304606F038
:1035D00025F82A4624215846FFF7D5FC0CA9584661
:1035E000ADF8309009F0BBFB5946304606F016F8AE
:1035F000612203986C21FFF7C6FC4FF00209039883
:10360000ADF830900CA909F0AAFB0399304606F0FA
:1036100005F8BC2204987821FFF7B5FC0423049830
:10362000ADF830300CA909F09AFB0499304605F04A
:10363000F5FFD82205986C21FFF7A5FC0523059816
:10364000ADF830300CA909F08AFB0599304605F039
:10365000E5FF4FF001080CAA0BA95046ADF82C80ED
:10366000ADF83080FFF791FE2A46294604F5D47064
:10367000FFF789FC04F51C73C4F8A43140F21D1255
:10368000D2215046FFF77FFC23221E215046FFF730
:103690006FFE5146304605F0C1FF2A460198A12130
:1036A000FFF771FC414BC4F80832D4F8D8310199C6
:1036B000D3F88430A4F80C5206AF3846984797E800
:1036C000070004F5057383E80700394B1A682AB927
:1036D000384B394A602139481FF0DCFCDFF8E8B08C
:1036E000BBF80020022A03D8354B334A6121F2E7A8
:1036F000DFF8D8A04946DAF80000DFF8D49000F0EF
:10370000D1F9C4F82002019809F072F94FF00303CF
:103710000198ADF834300CA9CDF8309009F088F953
:103720000199304605F07AFF0298BC222946FFF73E
:103730002AFC244AC4F85422D4F824220299D2F84C
:103740008420A4F858523846904797E80700184B51
:103750001B6804F5187C8CE80700002BB8D0BBF878
:103760000030002BC0D02946DAF8000000F09AF9AA
:10377000C4F86C02029809F03BF90298CDF8309039
:103780000CA9ADF8348009F053F93046029905F0E0
:1037900045FF20460FB0BDE8F08F00BF305902084A
:1037A0005C5D0208185902084F3300080505F0FF58
:1037B000D83901206A4E02086C4F0208E74E020811
:1037C0002E4F02081010E8FFDC390120E4390120F7
:1037D000E45502087047000030B5164D2C6814F00F
:1037E00001048FB0BFF35B8F20D128461EF018FD77
:1037F000E0B13F230993104B0893104B1049114837
:103800000A940122CDE906430423CDE903320A23B9
:103810000093CDE90B44CDE901440594FFF7BEFACE
:1038200009481FF055FC28461EF006FD05480FB05C
:1038300030BD00BF6C2B0020746D0208806D020843
:10384000AC6C0208702B0020D537000870470000D0
:1038500030B5164D2C6814F001048FB0BFF35B8FA8
:1038600020D128461EF0DCFCE0B13F230993104B29
:103870000893104B104911480A940122CDE90643E0
:103880000423CDE9033228230093CDE90B44CDE98D
:1038900001440594FFF782FA09481FF019FC2846F5
:1038A0001EF0CAFC05480FB030BD00BF9C2B0020A5
:1038B000786D0208846D0208BC6C0208A02B002001
:1038C0004D3800087047000030B5174D2C6814F0D3
:1038D00001048FB0BFF35B8F23D128461EF0A0FCFC
:1038E000F8B13F230993114B0893114B079302231F
:1038F000CDE9053301220423CDE9033216230D4916
:1039000000930C221B23CDE90B44CDE901440A4866
:103910000A94FFF743FA09481FF0DAFB28461EF025
:103920008BFC05480FB030BDCC2B00207C6D02080D
:10393000886D0208CC6C0208D02B0020C538000826
:1039400000207047002070470EB403B503AB002180
:1039500053F8042B01930CF0ADFE02B05DF804EBBC
:1039600003B070470CB407B504AB53F8042B0193B4
:103970000CF0A0FE03B05DF804EB02B0704700004D
:10398000436C10B5044673B3038F2BB9184B194A17
:10399000C52119481FF07EFBC38E00EB43035B8CEF
:1039A0000BB30EF03AFD238F012B03D8134B144AAF
:1039B000CB21EEE7E28E531C9BB2092B194688BF40
:1039C000A3F10A0104EB410140F63F10498C81420A
:1039D00009D10A2B04EB420228BF002304EB430366
:1039E000508C588451842046BDE810400EF018BC1D
:1039F000B74F0208C04F02086B500208B5500208CA
:103A0000C35002080EF0D3BB10B586B002AC84E8F8
:103A100006001A460AAB05930193099B00932146C1
:103A2000089B0BF035F906B010BD000038B518BB87
:103A3000124B13481C681349B4B122682244026037
:103A4000626822440A60A26814440F4B00221A8064
:103A500000F038F8054600F033F80C4B1C600C4BB6
:103A60001D600C4B188007E00B4B03600B4B0B6089
:103A70000B4B1C68002CE8D138BD00BF082C00207F
:103A8000002C0020FC2B0020042C0020D839012021
:103A9000E0390120DC390120A86D02088C6D020894
:103AA000D06D0208044B1B6853F82100034B1B68C0
:103AB00003EB4000704700BFFC2B0020002C0020CF
:103AC00007207047004870470C2C002010B5FFF706
:103AD000FBFE044C2060FFF7BBFE6060FFF77CFE3E
:103AE000A06010BD0C2C002010B5002404600C60F8
:103AF00014601C6010BD704710B54FF4AE710446E1
:103B00001EF08CFB204610BD10B50446D0F85801BD
:103B100000F014F82046BDE810400BF0C5BD0000D1
:103B200010B50446FFF7A0F8014B2360204610BDF6
:103B3000685902080022026082807047704770470F
:103B400004387047704710B5102104461EF066FB1C
:103B5000204610BDA0F10400F5E7000000228260BD
:103B6000024A026018324260C1607047BC590208C4
:103B700070470000D0F8702103680132C0F870214E
:103B8000014ADB6A11881847A428002010B5034BAE
:103B900003600446FFF777F9204610BDE459020898
:103BA00010B50446FFF7F2FF20464FF4C0711EF037
:103BB00035FB204610BD000010B50446FFF724FA7F
:103BC000034B23600023C4F87031204610BD00BFB2
:103BD000E4590208FFF758B938B5044600F5BA753C
:103BE0000B462846054A06210FF0C0F9C4F82851B3
:103BF00004F1E000BDE838400CF086BE95510208A3
:103C0000704704387047C0680368DB68184770471E
:103C100010B51C2104461EF001FB204610BDA0F18A
:103C20000400F5E710B5054C046000221834C0E923
:103C30000312826044604261028310BD1C5A020874
:103C40007047000000F580520023032110B5C0F832
:103C5000A032C2F880131449C2F87833044682F8BF
:103C60007C330B80C0F8943D2146C2F87433024681
:103C700000F5167082F8AC320C32824281F82135A0
:103C800001F12C01F6D104F5A470CE226721FDF7D5
:103C900068FB236820461B6B002198472368204659
:103CA0005B6BBDE810401847A4280020024B1A881F
:103CB000C36B1A83704700BFA428002010B50B46C1
:103CC0000446064A082100F698500FF04FF904F612
:103CD000A850BDE810400CF017BE00BF9551020877
:103CE00000F5805310B5D3F880330446032B0AD86F
:103CF000DFE803F002171E2703689B6B98470BF061
:103D000029FCFEF7E5FF04F16C000CF0FDFD04F169
:103D100098000CF0F9FD04F1C400BDE810400CF06F
:103D2000F3BD012380F89130002384F8BD3005E015
:103D3000012380F8913080F8BD30002384F8E93009
:103D4000E1E7012380F89130EFE700000F4B70B5F9
:103D5000044603604FF49A5540F6F466B54205D028
:103D6000635960191B6898472C3DF7E740F6685582
:103D7000635960191B682C3D9847B5F59A6FF7D1C8
:103D80002046FFF76EFA204670BD00BF445A020875
:103D900010B50446FFF7DAFF204641F284311EF0E9
:103DA0003DFA204610BD000013B50A4B0A4A1B8895
:103DB000128892B2044600929BB2084A0C2100F588
:103DC00021700FF0D3F804F5097002B0BDE810407F
:103DD0000CF09ABDAA280020A828002098510208BB
:103DE000B2F90400B2F9083010B5B1F90440034447
:103DF0009C4215DAB1F908302344984210DAB2F93E
:103E00000600B2F90A30B1F9064003449C4207DAD1
:103E1000B1F90A3023449842ACBF0020012010BD04
:103E20000020FCE72DE9F04FD0F8A032A34DB0F808
:103E30008022013385B0C0F8A0322B889BB29A4211
:103E4000044606D0298889B2FFF7AEFF2B88A4F874
:103E500080329B4A2B8810889A4AB4F952111288F2
:103E6000B4F95061521A98499BB2098880B240F661
:103E7000FF75132BA5EB0000A2F10A02A1EB0601CE
:103E800040F3AB8040F6EB76B342C8BF2B4604F557
:103E90008055132803FB01F140F6FF7391FBF3F10A
:103EA000C5F86C1340F39B8040F6EB76B042C8BF78
:103EB000184604F5A47A40F6FF73424309B292FB18
:103EC000F3F25046C5F8702312B2FDF74AFA7F4B61
:103ED0001A7800211970A2B3D5F8740388BBD4F8FE
:103EE000942DB2F57A7F2CDA04F52B710C2606FBA3
:103EF00000F3CF5C002F74D123440126324483F8B1
:103F0000AC62C4F8942DB4F95021B4F94C1102EB11
:103F1000D27201EB6201B4F94E21C3F8A412C3F8C6
:103F2000A8222C234343E71803F2FC40D7F8FC34C3
:103F300009B29B6D2044984787F821650A23C5F88C
:103F40007433D5F87433DFF88891002BC4BF03F1C4
:103F5000FF33C5F8743304F69453019304F6FC530D
:103F6000274604F2FC4602934FF00C0B97F8AC3254
:103F700073B1D7F8A822B6F90A30043A5B429A42E4
:103F8000C7F8A82231DA002387F8AC3286F825304A
:103F9000019B2C36B34207F10C07E7D195F87C73EF
:103FA00004F57262002604F6FC594FF00C0B0BFB73
:103FB00006F819F8083033B12FB951462046FFF7FB
:103FC0000FFF00284BD10136192E02F12C02EED141
:103FD000002F5BD105B0BDE8F08F002357E700202C
:103FE00067E70130322882D1A8E73368B7F9A41215
:103FF0009B6D12B2304698474FF0000804F572628C
:104000000BFB08F302990393C95C01B331462046C8
:10401000FFF7E6FE039BD0B12344002287F8AC22D1
:1040200086F8252083F8FC2D2C2303FB084320462B
:1040300083F8452FB9F800300A339BB2A9F8003055
:10404000B9F80010236889B21B6B9847A0E708F104
:104050000108B8F1190F02F12C02D1D198E7D5F877
:1040600080232C2303FB0643013AC5F8802383F801
:10407000457F04EB0803204683F8FC7D23685B6BD7
:104080009847012385F87C33C5F87873D5F87833E1
:104090000133DA0758BF94F86D21C5F878335CBF57
:1040A00082F0010284F86D213B2BC1BF002385F80B
:1040B0007C33012384F86D318CE700BFAA280020EF
:1040C000A82800207639012074390120A628002074
:1040D000A42800202DE9F74F0446FFF7E1F94B4BE8
:1040E00023600023C4E9A73304F2FC46A4F880321D
:1040F000274604F6945835464FF6FF79284601A91D
:104100002C35ADF80490FFF75DF94545F6D14FF435
:104110008072A4F8CC2D3E4AC4F8D02D4FF47F0213
:10412000C4F8DC2D3B4AA4F8D49D0023C4F8A82D84
:1041300004F572654FF0FF3204F59B59C4F8943DC5
:10414000C4F8AC3DC4F8B03DC4F8B43DC4F8B83DC3
:10415000C4F8BC3DC4F8C03DC4F8C43DC4F8C83D73
:10416000C4F8D83DA4F8E03DC4F8E43DC4F8E82D17
:10417000C4F8EC3DC4F8F03D09F10C09AA464FF62D
:10418000FF7B504601A90AF12C0AADF804B0FFF7F5
:1041900019F9CA45F5D104F580534FF0000A0322FE
:1041A000C3E9DDAAC3F88023042283F87CA304EBCF
:1041B000020B336887F8ACA21B6EADF804203046C2
:1041C00001A9984786F825A0314658462C3605F0B7
:1041D00025FA464507F10C074FF00402E9D1022702
:1041E00000262B6828461B6EADF8047001A998477D
:1041F00085F82560294658462C3505F00FFA4D45BF
:10420000EFD1204603B0BDE8F08F00BF445A02084A
:10421000E45502089C5702082DE9F74F0446FFF7C2
:1042200021F804F52173C4F86C323F4B19882046FD
:1042300089B2FFF7B9FD234604F516702246002126
:1042400083F8AC120C33834282F8211502F12C0260
:10425000F6D1DFF8E0A0BAF800300522143B1427AD
:1042600093FBF2F34FF0000900934FF0010B3AB2C9
:1042700005264FF000080099019209EB08050C2370
:1042800003FB054308FB01F10A31C3F8F41D83F871
:10429000FCBDC3F8F87D2C235D4305F57260254411
:1042A00009B2D5F8203F20449B6D9847013E019A02
:1042B00085F845BF08F10108DDD11437782F09F1E1
:1042C0000509D4D1B4F95011BAF8003001EBD1711D
:1042D0004910C1EB5301154B1A88B4F9523104F55A
:1042E0008055D21A0A3AC5F86C13C5F8702304F544
:1042F000A47012B209B2FDF734F80323C4F8A06227
:10430000C5F880330A4B1E8004F69853C4F8F03D7C
:10431000236820461B6B3146984723685B6B204619
:1043200003B0BDE8F04F1847AA28002076390120D5
:10433000A428002074390120F02070474FF4A070A9
:1043400070472920FDF72CBD2820FDF729BD08B5B1
:10435000FDF7FAFCCA20FDF723FDC320FDF704FD9D
:104360000820FDF701FD5020FDF7FEFCCF20FDF7F2
:1043700017FD0020FDF7F8FCC120FDF7F5FC30200B
:10438000FDF7F2FCED20FDF70BFD6420FDF7ECFCE2
:104390000320FDF7E9FC1220FDF7E6FC8120FDF784
:1043A000E3FCE820FDF7FCFC8520FDF7DDFC0020A8
:1043B000FDF7DAFC7820FDF7D7FCCB20FDF7F0FC09
:1043C0003920FDF7D1FC2C20FDF7CEFC0020FDF7B5
:1043D000CBFC3420FDF7C8FC0220FDF7C5FCF7201C
:1043E000FDF7DEFC2020FDF7BFFCEA20FDF7D8FC3E
:1043F0000020FDF7B9FC0020FDF7B6FCB120FDF769
:10440000CFFC0020FDF7B0FC1B20FDF7ADFCB62073
:10441000FDF7C6FC0A20FDF7A7FCA220FDF7A4FCCF
:10442000C020FDF7BDFC1020FDF79EFCC120FDF76C
:10443000B7FC1020FDF798FCC520FDF7B1FC452026
:10444000FDF792FC1520FDF78FFCC720FDF7A8FCB7
:104450009020FDF789FC3620FDF7A2FCC820FDF76F
:1044600083FCF220FDF79CFC0020FDF77DFCB020D2
:10447000FDF796FCC220FDF777FCB620FDF790FC17
:104480000A20FDF771FCA720FDF76EFC2720FDF741
:104490006BFC0420FDF768FC2A20FDF781FC00205E
:1044A000FDF762FC0020FDF75FFC0020FDF75CFCDF
:1044B000EF20FDF759FC2B20FDF772FC0020FDF7E3
:1044C00053FC0020FDF750FC0120FDF74DFC3F2080
:1044D000FDF74AFCF620FDF763FC0120FDF744FCE4
:1044E0000020FDF741FC0620FDF73EFC2C20FDF7E7
:1044F00057FCC820FDF7A2FC2620FDF751FC012047
:10450000FDF732FCE020FDF74BFC0F20FDF72CFC03
:104510002920FDF729FC2420FDF726FC0C20FDF7BF
:1045200023FC0E20FDF720FC0920FDF71DFC4E208A
:10453000FDF71AFC7820FDF717FC3C20FDF714FC72
:104540000920FDF711FC1320FDF70EFC0520FDF7F7
:104550000BFC1720FDF708FC1120FDF705FC0020DF
:10456000FDF702FCE120FDF71BFC0020FDF7FCFB42
:104570001620FDF7F9FB1B20FDF7F6FB0420FDF7E5
:10458000F3FB1120FDF7F0FB0720FDF7EDFB3120D9
:10459000FDF7EAFB3320FDF7E7FB4220FDF7E4FBE4
:1045A0000520FDF7E1FB0C20FDF7DEFB0A20FDF7FF
:1045B000DBFB2820FDF7D8FB2F20FDF7D5FB0F20D4
:1045C000FDF7D2FB1120FDF7EBFBC820FDF736FC11
:1045D0002920FDF7E5FBBDE808402C20FDF7E0BBF6
:1045E00008B5FDF7B1FB0321D320FDF7F5FB80B241
:1045F00008BD10B5C4B2022203212046FDF75AFBC4
:104600000A20FDF79FFB204600220321FDF752FB05
:10461000BDE810400220FDF795BB38B50446E4B272
:10462000FDF746FB00212046FDF75CFB0121054616
:104630002046FDF757FB40EA052080B238BD10B593
:10464000C4B240212046FDF74DFB030607D54C219F
:104650002046FDF747FB003818BF012010BD01229E
:104660004B212046FDF726FB204600224B21FDF77B
:1046700021FB0020F2E773B50423C4B20E461546B1
:10468000D7210DEB03022046FDF746FB019B1BBA29
:104690001A0DC3F30B23328020462B8001224B21BD
:1046A000FDF708FB00224B212046FDF703FB02B07B
:1046B00070BD000010B50A4A1378984204460DD028
:1046C000517888420AD00BB141B90123D454FDF787
:1046D000EFFA2046BDE81040FFF78BBF10BD00BFCA
:1046E000182C002010B5C4B209212046FDF7FAFAB3
:1046F00040F00102D2B220460921BDE81040FDF78A
:10470000D9BA10B5C4B209212046FDF7EBFA092148
:1047100000F0FE022046BDE81040FDF7CBBA38B5E8
:10472000C4B20D4620460A21FDF7DCFA40EA050234
:10473000D2B220460A21BDE83840FDF7BBBA10B519
:104740000446FDF7B6FA20461F21FFF7E8FF204692
:10475000BDE81040FFF7C6BF38B5C4B20D462046CD
:104760000A21FDF7BFFA20EA0502D2B220460A214B
:10477000BDE83840FDF79EBA10B50446FFF7C1FF0B
:1047800020461F21BDE81040FFF7E6BF10B5C0B2BC
:104790000C460B21FDF7A6FA204010BD1F21FFF7A4
:1047A000F5BF0A46C0B20B21FDF784BA1F21FFF7FF
:1047B000F8BF38B5C4B20D4620461721FDF792FA6E
:1047C00020EA0502D2B220461721BDE83840FDF7A5
:1047D00071BA70B5C4B2064604212046FDF782FACC
:1047E000042100F0FB0205462046FDF763FA30463F
:1047F000F021FFF7DEFF05F0F80220460421FDF767
:1048000059FA492220212046FDF754FA0220FDF7EB
:1048100099FA204601222121FDF74CFA20469A22DE
:104820004121FDF747FA204601224A21FDF742FACD
:10483000204601224B21FDF73DFA204600224B2164
:10484000FDF738FA204601225621FDF733FA2046BB
:1048500001225821FDF72EFA204601224021FDF7C2
:1048600029FA2046FF220B21FDF724FABDE870400B
:104870000220FDF767BA0000054BD3F8882042F408
:104880007002C3F888204FF000629A60704700BF42
:1048900000ED00E008B50B4B1A6842F400721A6094
:1048A0001A6842F480621A601A6842F480721A60D0
:1048B000032000F061FA0020FDF768FDFDF7CCFA57
:1048C000002008BD003C0240034A044B11681B78DD
:1048D0000B441360704700BF1C2C002078000020A0
:1048E000014B1868704700BF1C2C002038B50446E7
:1048F000FFF7F6FF631C1CBF054B1B78054618BF6E
:10490000E418FFF7EDFF431BA342FAD338BD00BF05
:104910007800002038B50446002800F09B80056C24
:1049200025B9FDF7B9FA656484F83C50236CDB06C1
:1049300000F18E80236C23F4885323F0020343F0AC
:1049400002032364444B5A6822F440325A605A6886
:1049500061680A435A60236821695A6822F48072A8
:104960005A605A6842EA01225A605A68A16822F0E5
:1049700040725A605A680A435A609A68E16822F4A1
:1049800000629A609A680A439A603449A26A8A422D
:1049900052D0996821F07061996099680A439A60D1
:1049A0009A68E16A22F040529A609A680A439A60D3
:1049B0009A6822F002029A609A68217E42EA4102D5
:1049C0009A6094F82020002A3ED05A68616A42F426
:1049D00000625A605A6822F460425A605A6801398B
:1049E00042EA41325A60DA6AE16922F47002DA621C
:1049F000DA6A013942EA0152DA629A6822F40072F4
:104A00009A609A6894F8301042EA41229A609A6853
:104A1000616922F480629A609A68002042EA8122E9
:104A20009A606064236C23F0030343F00103236462
:104A3000002384F83C3038BD9A6822F070629A6096
:104A40009A6822F04052B2E75A6822F40062C9E73D
:104A50000120EDE70120EEE7002301400100000FF7
:104A600082B00023019390F83C30012B69D00123E0
:104A700080F83C3003689A68D2070BD59A68D10752
:104A80001AD4036C43F010030364436C43F0010336
:104A900043644CE09A682C4942F001029A602B4A28
:104AA0001268B2FBF1F202EB42020192019A002A73
:104AB000E4D0019A013AF8E7026C22F4E06222F0B5
:104AC000010242F4807202645A68520541BF026CCE
:104AD00022F4405242F480520264026C12F480527A
:104AE0001CBF426C22F006024264002280F83C2087
:104AF0006FF022021A60164A516811F01F0F154913
:104B00001CD18B4207D001F580718B420CD15268C9
:104B100012F01F0F0BD19A6812F0405F07D19A680C
:104B200042F080429A6002E00B498B4202D00020A2
:104B300002B07047526812F0100FEBE78B42F6D1CB
:104B4000E9E70220F4E700BF40420F0074000020B4
:104B500000230140002001400022014090F83C3039
:104B6000012B14D003689A6822F001029A609B68B6
:104B7000DB0707D4036C23F4885323F0010343F0CD
:104B800001030364002380F83C301846704702207C
:104B9000704703689A68520570B504460D460BD5F8
:104BA0009B68DE0508D5036C43F0200303640023F3
:104BB00080F83C30012070BDFFF792FE0646236866
:104BC0001A6891070CD56FF012021A60226C42F439
:104BD000007222649A6812F0405F17D00020EAE762
:104BE000681CEDD065B923681B6813F00203E6D199
:104BF000226C84F83C3042F0040222640320DAE79D
:104C0000FFF76EFE801BA842EDD8D8E7227E002A6F
:104C1000E4D1DA6A12F4700F02D09B685A05DDD431
:104C2000236C23F480732364236CDB04D6D4236CBD
:104C300043F001032364D1E70368D86C7047000098
:104C4000F7B50023019390F83C30012B054600F0A6
:104C50008680012380F83C3008682B688E6809281C
:104C600084B233D904EB4402DF681E3A4FF0070CDC
:104C70000CFA02FC27EA0C07DF60DF6806FA02F292
:104C80003A43DA604968062901EB81022DD8596B55
:104C9000053A1F26964021EA06015963596B04FA2A
:104CA00002F20A435A632F4A93420AD1122837D19B
:104CB0002D4B5A6822F400025A605A6842F480026E
:104CC0005A60002085F83C0003B0F0BD1A6900EB83
:104CD000400C072707FA0CF722EA07021A611A6943
:104CE00006FA0CF616431E61CCE70C294FF01F01A3
:104CF0000BD81E6B233A914026EA01011963196B08
:104D000004FA02F20A431A63CDE7DE6A413A91409F
:104D100026EA0101D962D96A94400C43DC62C2E7F9
:104D2000124B984201D01128CBD10F4B5A6822F474
:104D300080025A605A6842F400025A600B4B984253
:104D4000BFD10B4B0B4A1B68B3FBF2F30A22534350
:104D50000193019B002BB4D0019B013BF8E702209B
:104D6000B2E700BF00200140002301401200001004
:104D70007400002040420F000749CA6822F4E06234
:104D80000302120403F4E063120C134343F0BF6305
:104D900043F40033CB60704700ED00E0164B30B5B4
:104DA000DC68C4F30224C4F10703251D042B28BFCB
:104DB0000423062D4FF0FF358CBF033C002405FA79
:104DC00003F321EA0303A54022EA0502A3400028D9
:104DD00043EA0203ACBF00F16040084A4FEA031304
:104DE000B8BF00F00F00DBB2AABF00F5614013545A
:104DF00080F8003330BD00BF00ED00E014ED00E0AE
:104E0000002807DB044A4109012300F01F0083400A
:104E100042F82130704700BF00E100E010B50446C1
:104E200050B1437903F0FF0213B90271FDF764F842
:104E300001236371002010BD0120FCE710B504467A
:104E400020B390F8393003F0FF021BB980F8382006
:104E5000FDF76AF8022384F83930236861681A681C
:104E600022F440320A431A605A6BA16822F007020A
:104E70000A435A631A6CE1686FF30D020A431A641D
:104E800000200123E06384F8393010BD0120FCE7E5
:104E900070477047036870B55E681D68F207044686
:104EA00014D5E90512D51A6822F480721A60C26B13
:104EB00042F00102C26301229A60042380F8393073
:104EC000002380F83830436903B19847B20616D5FD
:104ED000AB0414D523681A6822F400521A60202209
:104EE0009A60E36B43F00203E363042384F83930F0
:104EF000002384F8383063690BB1204698473007A7
:104F000016D5290514D523681A6822F400621A60A0
:104F100008229A60E36B43F00403E363042384F8FC
:104F20003930002384F8383063690BB12046984744
:104F300072070BD56B0509D523681A6822F48062C5
:104F40001A6004229A602046FFF7A2FFB00714D52A
:104F5000A90512D523681A6822F400721A60022289
:104F60009A60E36BE363012384F83930002384F80B
:104F7000383023690BB120469847F20613D5EB046D
:104F800011D523681A6822F480521A6010229A60A0
:104F9000E36BE363012384F83930002384F838306D
:104FA0002046FFF776FF70BDF0B590F83820012A53
:104FB00003464FF002002BD0012283F8382083F8FB
:104FC000390003EB0112D2E90740556A174F44EA52
:104FD0000040093C012C9CBF05F07F4210434FEA82
:104FE00001161A6888BF40EA056091B9516A3940D4
:104FF00001435162012C9969916103D8596A21F0EA
:105000007F4191620122002083F8392083F8380023
:10501000F0BDD16939400143D1619919012C8969E9
:1050200011619CBF25F07F451562EBE7F0FFFC00A6
:105030002DE9F74FDFF8BC916C4A00230D6801247D
:105040009C4004EA0506AC4340F0B7804D68032756
:1050500005F003044FEA430807FA08FC671E012F16
:105060006FEA0C0C34D8876807EA0C0ECF6807FA91
:1050700008F747EA0E078760476827EA060EC5F378
:1050800000179F4047EA0E074760C76807EA0C0E03
:105090008F6807FA08F747EA0E07022CC76019D194
:1050A0004FEAD30A00EB8A0A03F0070BDAF8207004
:1050B0004FEA8B0B4FF00F0E0EFA0BFE27EA0E0E87
:1050C0000F6907FA0BF747EA0E07CAF8207001E0EC
:1050D000032CDAD1076804FA08F407EA0C073C430A
:1050E00015F4403F046068D000240194D9F844408E
:1050F00044F48044C9F84440D9F8444023F00307FD
:1051000007F1804704F4804407F59C37019403F0CD
:10511000030C019CD7F808E04FEA8C0C0F2404FA2A
:105120000CF42EEA040E324CA0424DD004F58064FB
:10513000A0424BD004F58064A04249D004F58064BD
:10514000A04247D004F58064A04245D004F58064B5
:10515000A04243D004F58064A04241D004F58064AD
:10516000A0423FD004F58064A0423DD004F58064A5
:10517000A04214BF0A24092404FA0CF444EA0E04E1
:10518000BC609468F74315F4801F0CBF3C40344367
:105190009460D46815F4001F0CBF3C403443D460C5
:1051A000546815F4003F0CBF3C403443546014680D
:1051B000ED0354BF3C40344314600133102B7FF4A3
:1051C0003DAF03B0BDE8F08F0024D5E70124D3E75D
:1051D0000224D1E70324CFE70424CDE70524CBE75D
:1051E0000624C9E70724C7E70824C5E7003C0140B7
:1051F00000000240003802400369194214BF012038
:10520000002070470AB1816170470904FBE74369D8
:1052100001EA030221EA030141EA02418161704788
:1052200001684B6913F480634FF0000210D06FF4F3
:1052300080634B612023026380F83D3080F83E207C
:10524000036C80F83C2043F00403036401207047A2
:10525000184670472DE9F84606460F4691461D460A
:105260004FEA114A3368BAF1010F0CBF5C699C69BF
:1052700027EA0404A4B2B4FA84F46409A14501D075
:10528000002025E06A1CEED0FFF72AFB089BC01A1D
:10529000A84201D8002DE5D13368BAF1010F0CBF47
:1052A0005B699B6927EA03039BB2B3FA83F35B094B
:1052B0009945D7D100232022336386F83D2086F814
:1052C0003E30326C86F83C3042F0200232640120DD
:1052D000BDE8F8862DE9F04104460F46164698468B
:1052E0002568686927EA000080B2C0B16B695A0579
:1052F00017D52B6843F400732B606FF480636B61E8
:1053000020220023236384F83D2084F83E30236C60
:1053100043F004032364002384F83C300120BDE8FB
:10532000F081731CDDD0FFF7DBFAA0EB0800B04280
:1053300001D8002ED4D123685A6927EA020292B21A
:10534000002ACDD000232022236384F83D2084F856
:105350003E30236C1343DDE770B504460D46164618
:1053600023685B691B0601D500201EE02046FFF77D
:1053700057FFC8B96A1CF3D0FFF7B2FA801BA842E6
:1053800001D8002DECD123685B6913F08003E7D1CD
:105390002022236384F83D2084F83E30226C84F878
:1053A0003C3042F020022264012070BD2DE9F04320
:1053B0001546026885B0DDE90C789946136843F418
:1053C000807313600E463B46CDF8008000224FF0FC
:1053D00001110446FFF73EFF236838B11B68DB0567
:1053E00002D54FF400732364032620E006F0FE0686
:1053F0001E611A4943463A462046FFF76BFFA8B99B
:10540000236803905A6903929B6903934246394685
:105410002046039BFFF7A0FF064660B1236C042BD8
:1054200001BF2268136843F40073136001263046FD
:1054300005B0BDE8F083B9F1010F236802D1EDB2E8
:105440001D61F4E72A0A1A61394642462046FFF7F1
:1054500083FF0028E2D12368F1E700BF02000100CA
:105460002DE9FF479A46036815461A6842F48062A0
:105470001A601A68DDE90C7842F480721A600E46F0
:105480003B46CDF8008000224FF001110446FFF7A3
:10549000E1FE236838B11B68DB0544BF4FF400739D
:1054A0002364032021E05FFA86F906F0FE061E6100
:1054B0002B4943463A462046FFF70CFFA0B9236824
:1054C00003905A6903929B690393424639462046EA
:1054D000039BFFF741FF58B1236C042B01BF2268E7
:1054E000136843F400731360012004B0BDE8F08733
:1054F000BAF1010F23681AD1EDB242461D61394657
:105500002046FFF729FF02460028E5D121680B68F5
:1055100043F480730B602046CDF800803B464FF08B
:105520000111FFF797FE226860B11368B4E72A0AF9
:105530001A61394642462046FFF70EFF0028CBD1BC
:105540002368D9E749F001031361054943463A4608
:105550002046FFF7BFFE003818BF0120C5E700BF97
:105560000200010070B504460D46164623685B69CB
:105570005B0701D500201EE02046FFF751FEC8B9A9
:105580006A1CF3D0FFF7ACF9801BA84201D8002DAC
:10559000ECD123685B6913F00403E7D12022236375
:1055A00084F83D2084F83E30226C84F83C3042F090
:1055B00020022264012070BD70B504460D461646D7
:1055C00021684B6913F0400301D0002011E04A69C3
:1055D000D2060FD56FF010024A612022236384F8AF
:1055E0003D2084F83E30236C2364002384F83C3053
:1055F000012070BDFFF774F9801BA84201D8002D6F
:10560000DED123685B6913F04003D9D120222363E4
:1056100084F83D2084F83E30236C1343E4E7000017
:1056200070B5044608B9012070BD90F83D3003F014
:10563000FF021BB980F83C20FCF798FC242384F877
:105640003D3023681A6822F001021A601A6842F499
:1056500000421A601A6822F400421A6000F08AFEC2
:105660003F4B65689D4294BF3E4B3F4B98428CBF79
:1056700000230123002BD6D12268394E51683B4BC1
:10568000B0FBF3F321F03F011943B542516088BFED
:105690004FF49676116A88BF734321F03F0184BFAF
:1056A0004FF47A76B3FBF6F301330B431362D169FF
:1056B000431E2B4821F44F41854221F0FF0132D88F
:1056C0006D0040F6FC70B3FBF5F30133034242D0AA
:1056D000C3F30B031943D161D4E9073011680343C5
:1056E00021F0C0010B4313609168D4E9030321F456
:1056F0000341034321F0FF010B439360D4E90530DC
:10570000D168034321F0FF010B43D360136843F0DA
:105710000103136000202023206484F83D302063BF
:1057200084F83E0080E7A06850B905EB4505B3FB5F
:10573000F5F30133C3F30B037BB143F40043C9E733
:1057400019206843B3FBF0F30133C3F30B0323B118
:1057500043F44043BEE70423BCE70123BAE700BF9C
:10576000A08601007F841E00FF083D0040420F001C
:105770002DE9F743044699460C9E0F469046FFF7E5
:10578000AFF894F83D30202B054603D0022003B03B
:10579000BDE8F08300903C49192301222046FFF721
:1057A00059FD0028F2D194F83C30012BEED020684E
:1057B000012384F83C300368D9075EBF036843F0D7
:1057C00001030360036823F400630360212384F86A
:1057D0003D30402384F83E30002323640A9B6362FB
:1057E000BDF82C306385638D2385284BE3624246E8
:1057F000CDE900654B4639462046FFF7D7FD002826
:105800002AD00120C3E7FFF7A7FD40B1236C042B8A
:1058100001BF2268136843F400731360F1E7636A01
:1058200027681A4612F8011B39616262628D218D68
:10583000013A92B262857A69481E80B25207208589
:105840000AD548B15A783A6102336362638D013BED
:1058500002399BB221856385238D2A463146204635
:10586000002BD0D1FFF77EFE0028CFD1226813682D
:1058700043F400731360202384F83D3084F83C0027
:1058800084F83E0083E700BF020010000000FFFF25
:105890002DE9F043044687B09946109F0D46904687
:1058A000FFF71EF894F83D30202B064604D0022561
:1058B000284607B0BDE8F08300907A4919230122F9
:1058C0002046FFF7C7FC0028F1D194F83C30012BAB
:1058D000EDD02068012384F83C300368DB075EBF0D
:1058E000036843F001030360036823F4006303606B
:1058F000222384F83D30402384F83E300023236483
:105900000E9B6362BDF83C306385638D2385664BD7
:10591000E3622946CDE900764B4642462046FFF732
:105920009FFD054608B10125C2E7228D2368B2B963
:1059300002905A6902929A690292029A1A6842F493
:1059400000721A60DFF86481238D002B2CD1202295
:1059500084F83D2084F83C3084F83E30A8E7012AE2
:105960000AD11A6822F480621A6003905A6903927D
:105970009A690392039AE1E7022A0ED11A6822F487
:1059800080621A601A6842F400621A6004905A69D0
:1059900004929B690493049BD4E705905A6905928D
:1059A0009B690593059BCDE7032B56D8012B15D199
:1059B000324639462046FFF7FFFD0028B3D1236861
:1059C0001A69636A1A70636A01336362238D013B4B
:1059D0002385638D013B9BB26385B5E7022B00965F
:1059E0003B464FF000024146204619D1FFF732FCFA
:1059F000002898D123681A6842F400721A601A6964
:105A0000636A1A70626A531C6362238D013B2385AB
:105A1000638D013B9BB2638523681B695370D2E79A
:105A2000FFF718FC024600287FF47DAF2368196851
:105A300021F4806119601969636A1970636A01331E
:105A40006362238D013B2385638D013B9BB263859C
:105A5000414600963B462046C8E732463946204636
:105A6000FFF7AAFD00287FF45EAF23681A69636A16
:105A70001A70628D616A013A92B24B1C628522688B
:105A80006362238D5069013B9BB2400723857FF5FC
:105A90005BAF032B02BF136823F4806313601369A9
:105AA0004B7090E7020010000000FFFF04000100AF
:105AB00010B590F83D30202BDCB216D1242380F8AD
:105AC0003D3003681A6822F001021A605A6A22F017
:105AD00010025A625A6A114359621A6842F001026E
