:020000040800F2
:10000000000003205D060008B1230008B3230008A8
:10001000B5230008B7230008B9230008000000003A
:10002000000000000000000000000000817C0008CB
:10003000BB23000800000000117D00089D7500082A
:10004000AD060008AD060008AD060008AD060008C4
:10005000AD060008AD060008AD060008AD060008B4
:10006000AD060008AD060008AD060008AD060008A4
:10007000AD060008AD060008AD060008AD06000894
:10008000AD060008AD060008AD060008AD06000884
:10009000AD060008AD060008AD060008AD06000874
:1000A000AD060008AD060008AD060008AD06000864
:1000B000AD060008AD060008AD060008AD06000854
:1000C000AD060008AD060008AD060008AD06000844
:1000D000AD060008AD060008AD060008AD06000834
:1000E000AD060008AD060008AD060008AD06000824
:1000F000AD060008AD060008AD060008AD06000814
:10010000AD060008AD060008AD060008AD06000803
:10011000AD060008AD060008BD230008AD060008C6
:10012000AD060008AD060008AD060008AD060008E3
:10013000AD060008AD060008AD060008AD060008D3
:10014000AD060008AD060008AD060008AD060008C3
:10015000AD060008AD060008AD060008AD060008B3
:10016000AD060008AD060008AD060008AD060008A3
:10017000AD060008AD060008AD060008000000004E
:10018000AD060008AD060008AD060008AD06000883
:10019000AD060008AD060008AD060008AD06000873
:0C01A000C9230008AD060008D5230008A4
:1001B00010B5054C237833B9044B13B10448AFF3A1
:1001C00000800123237010BD800300200000000088
:1001D0005443020808B5034B1BB103490348AFF36E
:1001E000008008BD00000000840300205443020882
:1001F00001F0FF01102A2BDB10F0070F08D010F8D8
:10020000013B013A8B422DD010F0070F42B3F6D1DB
:10021000F0B441EA012141EA014122F007047FF0F4
:1002200000070023F0E80256083C85EA010586EA4B
:10023000010685FA47F5A3FA87F586FA47F6A5FA87
:1002400087F68EB9EED1F0BC01F0FF0102F0070293
:1002500032B110F8013B013A83EA010313B1F8D13E
:100260000020704701387047002D06BF354603381F
:10027000073815F0010F07D1013015F4807F02BF58
:10028000013015F4C03F0130F0BC0138704700BFA9
:100290007BB972B90029BEBF00204FF0004106E0D3
:1002A00008BF00281CBF6FF000414FF0FF3000F086
:1002B000D3B9ADF1080C6DE904CE002909DB002BA0
:1002C0001ADB00F04DF8DDF804E0DDE9022304B0AC
:1002D0007047404261EB4101002B1BDB00F040F80E
:1002E000DDF804E0DDE9022304B0404261EB4101A6
:1002F000524263EB43037047524263EB430300F007
:100300002FF8DDF804E0DDE9022304B0404261EBA0
:1003100041017047524263EB430300F021F8DDF8DE
:1003200004E0DDE9022304B0524263EB430370476B
:1003300053B94AB9002908BF00281CBF4FF0FF314C
:100340004FF0FF3000F088B9ADF1080C6DE904CE34
:1003500000F006F8DDF804E0DDE9022304B07047A0
:100360002DE9F047089D8E4604468846002B4AD169
:100370008A42174662D9B2FA82F64EB1C6F120031C
:1003800001FA06F820FA03F3B74043EA0808B4403C
:100390004FEA174E1FFA87FCB8FBFEF1230C0EFB49
:1003A000118843EA084301FB0CF29A4209D9FB1871
:1003B00001F1FF3080F0EA809A4240F2E780023992
:1003C0003B449A1AA3B2B2FBFEF00EFB102243EAA2
:1003D000024300FB0CFC9C4509D9FB1800F1FF32DD
:1003E00080F0D6809C4540F2D3803B44023840EAFE
:1003F0000140A3EB0C0300211DB1F3400022C5E92D
:100400000032BDE8F0878B4205D90DB1C5E9000186
:1004100000210846F5E7B3FA83F1002946D1734578
:1004200002D3824200F20581841A6EEB030201209E
:100430009046002DE5D0C5E90048E2E7002A00F02B
:100440009080B2FA82F6002E40F0A4808A1A030C43
:100450004FEA174E80B2BCB20121B2FBFEFC0EFB8C
:100460001C2243EA024304FB0CF29A4207D9FB1810
:100470000CF1FF3802D29A4200F2E080C4469B1A87
:10048000B3FBFEF20EFB123340EA034302FB04F41B
:100490009C4207D9FB1802F1FF3002D29C4200F2C5
:1004A000CA8002461B1B42EA0C40A5E7C1F12006A8
:1004B0008B4022FA06F71F430EFA01F420FA06F3E6
:1004C0002EFA06FE4FEA1749234300FA01F81FFAF5
:1004D00087FCBEFBF9F01C0C09FB10EE44EA0E444D
:1004E00000FB0CFEA64502FA01F209D93C1900F105
:1004F000FF3A80F09C80A64540F2998002383C4447
:10050000A4EB0E041FFA83FEB4FBF9F309FB1344BA
:100510004EEA044403FB0CFCA44508D93C1903F142
:10052000FF3E80F08280A4457FD9023B3C4443EAF1
:100530000040A4EB0C04A0FB02EC64457346E146CA
:1005400062D35FD05DB1B8EB030264EB090404FA37
:1005500006F622FA01F31E43CC40C5E900640021EF
:100560004FE7B1FBF2FC010C41EA0E4180B240EAD8
:1005700001423B4638463C46B846BE462026B1FBC3
:10058000F7F1A2EB080241EA0C4166E7014618E7E1
:1005900010462CE7C6F120022EFA02F3B740B14014
:1005A00020FA02F24FEA174E0A43B3FBFEF8BCB240
:1005B0000EFB1833110C41EA034108FB04F9B0406B
:1005C00089454FEA104380B23ED9791808F1FF3CC3
:1005D00001D289451FD8A1EB0901B1FBFEF909FB46
:1005E00004F80EFB191192B242EA0142424529D2A7
:1005F000BA1809F1FF31C4D24245C2D2A9F10201B1
:100600003A44BEE7F0459DD2BEEB02036CEB070C0B
:100610000138E14696E7A7EB09094944A8F1020C25
:10062000B1FBFEF909FB04F8DBE773467FE75046B0
:1006300066E70846FDE63B44023A33E7ACF1020CBC
:100640003B441CE749469CE7A1EB0901C446B1FBCA
:10065000FEF909FB04F8C4E7704700BFDFF834D0A7
:10066000002103E00C4B5B58435004310B480C4B0A
:1006700042189A42F6D30B4A02E0002342F8043BA8
:10068000094B9A42F9D304F0B1FA23F0F5F801F0DE
:1006900097F8704700000320D86D04080000002080
:1006A000640100208003002074470120FEE77047AA
:1006B00008B500F0BFFDBDE8084000F041BD00F006
:1006C000BBBD704710B50421044621F08BFE2046C7
:1006D00010BD000038B50C4B0C4C18800C4B822020
:1006E00019806368984740F6110398420AD1094D72
:1006F00023682C60822098472B688220DB6898470B
:10070000002038BD0120FCE7A60300204C0000209B
:10071000A4030020A80300204FF4A071F020FFF7ED
:10072000D9BF0000F7B5394D2B6804461B698220FC
:100730009847208000284ED02B680DF106025B6997
:1007400001A982209847324B1B78002B4BD0BDF873
:10075000062040F674639A423FD9ADF80630BDF8E2
:1007600006209B1A9BB20A2B42D90B22B3FBF2F351
:10077000284A1288934201D9013A93B2BDF8042065
:10078000254840F6B8318A4234D8C2F571620E323B
:10079000016892B20F25B2FBF5F2204D2D88AA42D6
:1007A00084BF05F1FF35AAB28A4215468EB22AD916
:1007B000921B91B21A4E3768BB42BAB28CBF9A1ADA
:1007C000D21A92B211440529C4BF05603360036890
:1007D00063803368A38003B0F0BDB32A9CBFB4220A
:1007E000ADF80620BBE7BDF80630A3F5B473B9E752
:1007F0000023C3E7C2F56D62083292B20E2A016887
:10080000C8D800252A46891A89B2D3E7A803002050
:10081000D0280020A4030020A0030020A60300206D
:100820009C03002037B568460D461446FFF77AFF53
:10083000BDF8000030B1BDF802302B60BDF80430C7
:100840002360012003B030BD032821D8DFE800F089
:10085000020B12190F4B1A68B2FA82F252090421E4
:100860000D4804F089BE0B4B5A68B2FA82F2520965
:100870000821F5E7074B9A68B2FA82F25209102173
:10088000EEE7044BDA68B2FA82F252092021E7E778
:10089000704700BFAC03002000100240032821D89D
:1008A000DFE800F0020B12190F4B1A68003A18BF6C
:1008B000012204210D4804F05FBE0B4B5A68003A38
:1008C00018BF01220821F5E7074B9A68003A18BFC4
:1008D00001221021EEE7044BDA68003A18BF01222A
:1008E0002021E7E7704700BFAC0300200010024062
:1008F00003280DD8DFE800F00206080A04210548A5
:1009000004F03FBE0821FAE71021F8E72021F6E7BE
:10091000704700BF0010024008B5032811D8DFE877
:1009200000F0020A0C0E0421074804F01FFE431ECB
:100930005842584108BD0821F6E71021F4E720216C
:10094000F2E70020F3E700BF0010024070B5084D49
:1009500000240126E0B2FFF7DFFF18B12B68012B5E
:1009600018BF2E600134052C05F10405F2D170BDCD
:10097000AC030020012380F8781080F879307047AC
:100980007047002070470000034B4164003918BFD6
:1009900001211970704700BF333A012070470020D1
:1009A0007047836B0BB10846184770474FF6FF70CE
:1009B0007047406803689B691847704770477047E5
:1009C0007047704710B5044600F04CFD236803499A
:1009D000D3F890302046BDE810401847000000D002
:1009E00008B503680446D3F8843098472368204646
:1009F000DB6F984700F0ECF8236820465B6F984760
:100A0000292001F0ABF900F0E3F8236820465B6F82
:100A10009847F8E710B5044609F04AFF23682046D6
:100A2000D3F8BC30BDE81040184700F0FFBC00F020
:100A300003BD00F035BD00F0D5BC00F045BD00F0B1
:100A40004DBD00F0D9BC09F061B910B58421044650
:100A500021F0C8FC204610BD10B590F8341090F875
:100A600078400C4B8C421A7809D03AB90A4A0B49A3
:100A70001488088810800C8001221A7010BD002A8A
:100A8000FCD0054A05491488088810800C80002293
:100A9000F3E700BF2C3A0120283A01202A3A01202E
:100AA00070B50D46194635B9094B0A4A0A4840F255
:100AB000FF2122F0D3FBC0E90F52084B003A18BFC8
:100AC00001221A700368BDE87040D3F890301847CF
:100AD000C4430208FC4302084A440208323A012097
:100AE00008B5094B1B888B4203D8084B1B889342DF
:100AF00005D9074B074A0848A32122F0AFFB074B53
:100B00001980074B1A8008BD283A01202A3A012093
:100B10008F440208F24402084A4402082E3A012097
:100B2000303A0120034690F87A0018B158680368FB
:100B30001B68184770470000012108B500220846CD
:100B400006F0B6FD0A4B186028B90A4B0A4A28215C
:100B50000A4822F083FB00220421012006F047FE10
:100B6000074B186018B9074B034A2C21F0E708BD62
:100B7000C0030020354502087E450208AD45020845
:100B8000BC030020F3450208024B4FF0FF31186808
:100B900006F0D8BDC0030020014B186806F0FEBD6A
:100BA000C0030020024B0021186806F0CBBD00BF37
:100BB000C0030020FFF7F0BF03480449006800238A
:100BC0001A4606F04FBE00BFBC0300200400002000
:100BD00013B5084C00231A4601A9206806F073FEDD
:100BE00020684FF0FF33002201A906F06CFE02B02E
:100BF00010BD00BFBC03002003685B6C18470120D8
:100C0000704703689B6A1847FEE740F2EF30704771
:100C1000054B0360054B4FF08062C3F88820BFF39B
:100C20004F8FBFF36F8F7047A451020800E100E0BF
:100C300010B504464FF45A61FFF7EAFF204621F051
:100C4000D1FB204610BD000082B0002301930E4B63
:100C50001A6B42F400021A631A6B02F4000201924A
:100C6000019A1A6942F400021A611A6922F4000218
:100C70001A61064B064A1A61064A5A61064B4FF042
:100C800080629A6002B0704700380240742A0020E7
:100C9000E90E0008090C000800E100E008B50A2888
:100CA00009D8DFE800F006100E0808080810101038
:100CB0001000022008BD054B054A0648902122F08D
:100CC000CDFA0020F6E70120F4E700BF3546020820
:100CD000504602089B46020838B50C46887FFFF74D
:100CE000DDFFA58AE28A164B2169586342EA054274
:100CF0005A64628BD963521B1A642568082D0ED181
:100D00009A611A615862207F0E4A42EA0062DA61F3
:100D1000E2681A620C4A5961D9601A6038BD002233
:100D2000D8611A61E1680A0A480902F4784200F4BD
:100D3000FC600243C1F3C4010A439A63034AECE72F
:100D400000B002400900010001230200012303005A
:100D500008B50B280BD8DFE800F00612100A0A0AC3
:100D60000A0808080808022008BD0520FCE7054B12
:100D7000054A06486F2122F071FA0020F4E70120AD
:100D8000F2E700BF35460208DF4602089B4602082C
:100D90002DE9F04191F81D800C464046FFF7D8FF41
:100DA000A77F05463846FFF7D3FF06463846FFF7CC
:100DB00075FFA18A628B444B521A1A649A61228B86
:100DC000521A1A61E28A586342EA01425A6421695E
:100DD0006268D963DA602068802828D0227F0FD823
:100DE000202867D0402865D004281AD0364B45EA21
:100DF000026545F40035B845DD6161D0334A44E011
:100E0000B0F5807F04D0B0F5007FEFD1304800E02E
:100E1000304840EA0262DA61E2681A625E62596151
:100E200032E045EA026242F40032DA61F6E7A06895
:100E3000021DDA62227F45EA026545F40035DD6174
:100E40005E625961017841B1012921D0224B234AC8
:100E500023484FF48D7122F001FADA69418822F4B7
:100E60007F42013922F0100242EA0122DA610121B7
:100E7000154BDA6942F02002DA61DA699206FCD495
:100E800010229A600029B9D0164A1A60BDE8F08194
:100E9000B2F1FF01DA69408822F47F4200F1FF30AD
:100EA00022F0100242EA002242F0100218BF012193
:100EB000DA61DDE745EA0262034B42F40032B4E74F
:100EC00042F20132E1E700BF00B00240012301001D
:100ED000090002000A0002002947020843470208ED
:100EE0009B46020801230200024B1B6858680368F6
:100EF0005B691847343A012070B5044625460A4B11
:100F00000C30002660602672667245F8203B602235
:100F1000294609F023FE04F55A63EE6024359D420C
:100F2000FBD1204670BD00BFA4510208034B1A68D4
:100F3000D207FCD423229A60704700BF00B0024061
:100F40007047000030B50F4C2568ED07FCD4232511
:100F50000904A56041F001010225FF2B656361646E
:100F6000E0630AD00849656241EA0363E361074B25
:100F700022626061E060236030BDE561039BA36392
:100F8000034BF8E700B00240090001000100020035
:100F90000100030030B50E4C2568ED07FCD4232575
:100FA0001204A56042F001020225FF2B6563626412
:100FB000E063E16008D01B0643F00213E361054BD8
:100FC00065626061236030BD034BE3610123F9E793
:100FD00000B0024001000200020002FF30B50B4CDD
:100FE0002568ED07FCD4232512041B06A56043F4F5
:100FF0000033022542F0010265636264E063E16050
:10100000E361034B65626061236030BD00B0024064
:10101000010002000120704714207047142303FBD5
:10102000010008307047142303FB010008307047AB
:10103000012070474FF49D5070474FF49D5303FBC0
:101040000100083070474FF49D5303FB0100083046
:101050007047012070471C2070471C2303FB0100D0
:10106000083070471C2303FB010008307047084616
:1010700001F0F4BD10B5034B0360044608F09DFB7E
:10108000204610BD5C52020810B50446FFF7F2FF7F
:1010900020461C2121F0A6F9204610BD10B5034BB7
:1010A0000360044608F089FB204610BD2852020860
:1010B00010B50446FFF7F2FF204641F2A83121F0B7
:1010C00091F9204610BD000010B5034B03600446A3
:1010D00008F073FB204610BDF451020810B5044619
:1010E000FFF7F2FF2046242121F07CF9204610BDB5
:1010F00010B5084B0360044600F59F50FFF7BAFF98
:1011000004F13800FFF7CAFF04F11400FFF7DCFF19
:10111000204610BD9052020808B50248FFF7E8FFCC
:1011200008BD00BF9C12002010B50446FFF7E0FF89
:10113000204641F2645121F055F9204610BD0000CF
:101140002DE9F34101F0C0F9054601F0C1F9002491
:101150000146234628462246009412F091F8284B77
:10116000284A1A60204602F0D5FC274D274B284A12
:1011700028489A6011F0ECFF2B68BFF35B8FDB0708
:1011800037D4284621F030F998B3234C234B236001
:1011900004F59F5707F1280604F1140004F13808FC
:1011A0006060C4F80880E760266108F007FB1C4B0C
:1011B0006361404608F002FB1A4BA363384608F00F
:1011C000FDFA04F5805303F57F70174AC3F8E02356
:1011D00002F028FD224607F11C01304602F018FDFE
:1011E000304601F03BFD114822F056F8284621F028
:1011F00007F90F4802B0BDE8F041FFF7E3BB00BFBD
:10120000983A012048040020981200206804002029
:101210004C040020080000209C120020905202087C
:10122000F4510208285202085C5202081911000801
:10123000C4030020704700000148FFF7D1BB00BF86
:10124000C403002070B5264E264C274D274B236043
:101250003046FFF751FE284617F018F924480FF0E2
:10126000EDFC244B2448DC6000224FF48071C3E97C
:10127000121222491A86C3E91A12214983F858200A
:10128000C3E91E011F49C3F880101F491F480B60A6
:10129000F021C3E90422C3E90622C3E90822C3E915
:1012A0000A22C3E90E22C3E91022C3E91422C3E9CA
:1012B00017225A6683F870205A67C3E901650180D6
:1012C0001348018013484FF4A07101801248018037
:1012D00012490A70012283F83420114A1A6070BD45
:1012E000F40400209412002068040020B443020893
:1012F0004C040020C4030020000001010100000193
:10130000000450001A001400343A0120283A012049
:101310002E3A01202A3A0120303A01202C3A0120AD
:10132000B85002080148FFF773BC00BFF404002066
:101330000020704781807047C180704701817047ED
:10134000418170477047704770477047704710B4CD
:10135000C4880368121B84885B6D091B12B25DF898
:10136000044B09B218474FF6FF7383814FF0FF33E8
:1013700003621368C36110607047002070478B8858
:10138000838001207047704780F82610704790F8DE
:101390002600704710B50022B1F90840B1F90A10D3
:1013A000028042808480C18010BD00220280428081
:1013B0008280C28070470177704780ED080A7047CD
:1013C00080F82410704780F825107047012070477E
:1013D000983070478C307047843070477047704742
:1013E00070470000034B902283F85A2383F8582358
:1013F000704700BF00E100E0094A0A49D3680A4883
:10140000C3F30A03013B9BB20B801169C1F30A01CC
:10141000013901801364536B43F001035363704738
:10142000006801400228002000280020014BD3F86A
:10143000AC00704700680140024B0122C3F8AC10B9
:101440005A6270470068014010B52C21044620F014
:10145000C9FF204610BD10B5BC21044620F0C2FFD4
:10146000204610BD70B5044608F0A5FC23689D6EAB
:101470000EF054F901462046A8472368054AD3F8E0
:101480008C502046AC460023BDE87040A2F51631D2
:10149000604700BF00B004D008F074BC08F07EBC08
:1014A00008F03ABC08F0A9BD90F8252012B10368F5
:1014B0005B691847704790F825201AB190F82420EE
:1014C00002B1186070470000034B4FF080629A60D1
:1014D0004FF080729A60704700E100E0084B4FF0D7
:1014E0008062C3F88820BFF34F8FBFF36F8F4FF038
:1014F0008072C3F88820BFF34F8FBFF36F8F7047A0
:1015000000E100E070B50023124E8380124B0360AF
:10151000336893F8582005460AB1D86C00B998682A
:101520000368DB6A98473368B0FA80F4D86C6409C2
:1015300030B10368DB6A9847002808BF44F0010413
:101540002CB9064B064A07482C2121F087FE284675
:1015500070BD00BF343A0120A4520208814702083E
:10156000DF4702081848020870B5254E3568BFF3FA
:101570005B8F15F0010540D1304620F035FF002883
:101580003BD0204C204B256104F13400C4E90035E8
:10159000C4E90255E584A562A5850FF034FE04F187
:1015A00058000AF091FF194BA3652046184B40F8EC
:1015B000843BFFF7A7FF174BC4F884302433C4F8EB
:1015C0008C304FF4C803C4E928350023C4F8AC308C
:1015D000C4F8B030C4F8B430C4F8B8300E480F4B7B
:1015E000C4F89050C4F89C50C4F8A850C4F898307F
:1015F00021F052FE304620F003FF024870BD00BFCC
:101600000428002008280020A85A0208C452020812
:101610003C5302085C5A0208E11300083C5A0208D5
:1016200038B5184C23685BB3174B184A1B6C1188EC
:101630008B4216D1164B198804F088FD236893F865
:101640006A200025013283F86A2083F87C50FFF776
:10165000B3FA206809F02CF92846BDE83840FFF7B6
:10166000F3B804F073FD2468236820461B6A98478A
:10167000012384F87C300020BDE83840FFF70EB924
:1016800038BD00BF343A0120006801400228002024
:101690000028002007B5064BADF806001B6805487A
:1016A00001220DF1060105F03DFB03B05DF804FBDE
:1016B0000C0000201029002008B5154C154D2046BF
:1016C00003F088FB4FF0FF31204603F01CFC20465E
:1016D00003F06CFC104B80B218804FF0FF312046B5
:1016E00003F011FC204603F061FC0C4B80B2188023
:1016F000204603F0EDFB0821284603F037FF10B920
:10170000074B01221A70642005F0C6FFD7E700BF1F
:10171000BC2A002000080240CA280020C828002057
:10172000C628002030B595B0102200210AA821F06B
:101730009CFF0021142203A821F097FF00241E4BD8
:1017400001941A6C42F080521A641B6C03F08053AF
:101750000193019B194B02941A6842F440421A60AB
:101760001B6803F440430293029B01224FF4803331
:10177000CDE9082302254FF480034FF4B472CDE97C
:101780000E5308A80823CDE91032CDE9125304F016
:1017900035FD04F0F9FC0F23CDE903354FF4A051DA
:1017A0004FF48053CDE9061303A80521059404F0F6
:1017B00001FF15B030BD00BF00380240007000408E
:1017C0002DE980489BB003F01FFAFFF7ABFF14220E
:1017D00000210DA821F049FF0024C94B00941A6B89
:1017E000C84842F010021A631A6B02F0100200920D
:1017F000009A01941A6B42F020021A631A6B02F0ED
:1018000020020192019A02941A6B42F080021A633C
:101810001A6B02F080020292029A03941A6B42F051
:1018200004021A631A6B02F004020392039A0494EE
:101830001A6B42F001021A631A6B02F00102049261
:10184000049A05941A6B42F002021A631A6B02F0B2
:1018500002020592059A06941A6B42F040021A633E
:101860001A6B02F040020692069A07941A6B42F035
:1018700008021A631B6B03F00803224607933C21FE
:10188000079B03F079FEA0480122022103F074FEB9
:1018900022469D48042103F06FFE22469B484FF4E8
:1018A000405103F069FE22469948102103F064FE7E
:1018B00001263C23032593480F940DA90227CDE967
:1018C0000D36109503F06EFD8F480DA9CDE90D760C
:1018D000CDE90F4403F066FD04238B480DA9CDE943
:1018E0000D36CDE90F4703F05DFD082386480F96BE
:1018F0000DA9CDE90D3403F055FD4FF44053834855
:101900000DA9CDE90D36CDE90F4703F04BFD21239D
:1019100080480F940DA9CDE90D354FF0100803F064
:1019200041FD0DA97A487C4DCDE90D86CDE90F44E6
:1019300003F038FD79487A4B036003F029FCDFF8A7
:1019400000C2784B2C62C5E900C328464FF480439F
:10195000C5E90434C5E90244C5E9064404F01AF8AF
:101960004146284604F05EFA2146284604F079FAFA
:101970006D4DDFF8D0E1AC624FF48273C5E900E34E
:101980004FF400781823C5E9068328460A23C5E9E1
:101990000244C5E90444C5E90844EB6205F066F970
:1019A0008F232246394658488DF824308DF834402C
:1019B00003F0E2FD32464FF47A7309A9284605F098
:1019C000B1F94FF47A7332460DA9284605F056FB5B
:1019D000324639464C48554D03F0CEFD9DF8343023
:1019E000D32B04BF524B1E70524B0126C5E9003663
:1019F0004FF0100A40230024C5E904A34FF4C0733C
:101A0000C5E906344FF40063C5E908344FF40053C8
:101A100002274FF00409AB624FF0030B07230DA917
:101A20002846CDE90D73CDE90F934FF00808C5E9BD
:101A30000249CDE911B7139704F0FCFF4FF6FF728E
:101A400009A92846CDE90A86089409960C9405F060
:101A500011F8304603F004F94FF6FF7209A9284641
:101A6000CDE90978CDE90B6405F004F84FF6FF7273
:101A700009A92846CDE909B8CDE90B9404F0FAFF8D
:101A80004FF40C730893089B0C934FF6FF7209A94F
:101A90002846CDE909980B9604F0ECFF40F26A5114
:101AA000284605F005F8342221460DEB020021F00E
:101AB000DCFD214D214B2C61C5E900340923C5E92A
:101AC00005361D23C5E9073B40F20D1240F24313D2
:101AD000C5E9092340F2171140F247132846C5E92A
:101AE0000B13C5E90244AC8685F8364004F04CFA85
:101AF000FF21F022CDE912144FF0050824E000BFC9
:101B0000003802400010024000080240000C024071
:101B10000004024000000240202A0020B42A0020D5
:101B200000300240A086010010290020DC2800209F
:101B3000D0280020400100A0782900200068014042
:101B4000005C0040005001404FF480614FF4A073EE
:101B5000CDE90E24CDE91418CDE916420DA922468F
:101B60002846CDE91037324D18930D94ADF86440F6
:101B70008DF8664004F0BCFA2E4B2B601B6898472A
:101B80002B682D4DDB6898472C4B2846C5E900345F
:101B9000C5E90274C5E90A47C5E90C4403F008FB2E
:101BA0003146284603F0BAFB524621460DA821F0E3
:101BB0005CFD234D2348AC604FF48033C5E900033E
:101BC000214BAB6228462E612C7685F82040EC62D2
:101BD000EC60EF6185F830406E6103F055F80DA9B7
:101BE0002846CDE90D460F9403F0E4F90DA92846E7
:101BF000CDE90D8703F0DEF91448154B036004F0BE
:101C0000CDFEFEF755FDFEF752FD05F0D5FC114A5D
:101C10001148214605F0FCFC104B114A1860214682
:101C2000104805F0F5FC104B186005F0D7FCFEE7F6
:101C3000CC28002014000020742A002000B00240AC
:101C4000BC2A0020002001400100000F682900206C
:101C500000080650A4530208B9160008D82800202E
:101C600080530208BF060008D42800207047704740
:101C70007FB5094B8DF817201B6802930DF11702F1
:101C80000123009201930A460146044803F02AFF0B
:101C900007B05DF804FB00BF10000020202A0020E0
:101CA0007FB500238DF81730084B1B6802930A4656
:101CB00001230DF11701009101930146044803F03F
:101CC000A1FF9DF8170007B05DF804FB100000208D
:101CD000202A00201FB5084C24680092CDE9013469
:101CE0000A4601230146054803F08CFF003818BF5F
:101CF000012004B010BD00BF10000020202A0020E9
:101D000002F0AEBF10B5064C00222046042103F0BD
:101D100033FC20460122BDE81040042103F02CBC16
:101D20000008024038B50B4D044601220A484FF422
:101D3000005103F021FC00220421284603F01CFC82
:101D40002046FFF7A7FC28460122BDE838400421C1
:101D500003F012BC00080240000C024038B50B4DE5
:101D6000044600220A484FF4005103F005FC00220B
:101D70000421284603F000FC2046FFF78BFC284690
:101D80000122BDE83840042103F0F6BB0008024000
:101D9000000C0240F7B5144E144F05460C46304671
:101DA0000022042103F0E8FB00224FF400513846E2
:101DB00003F0E2FB2846FFF76DFC0D4B0D481B6856
:101DC000224601A905F05AF9384601224FF4005184
:101DD000019C03F0D1FB30460122042103F0CCFB2F
:101DE000204603B0F0BD00BF00080240000C0240D6
:101DF0000C0000201029002002F032BF0268034BC3
:101E00009A4201D102F01ABF704700BF0010004093
:101E10007047000082B00E4B00220092596C41F4D2
:101E200080415964596C01F48041009100990192FC
:101E3000196C41F0805119641B6C03F080530193BD
:101E4000019B0F216FF0010002B003F061B900BFE8
:101E50000038024010B5044688B01422002103A8BF
:101E600021F003FC2268124B9A421ED103F58C33F9
:101E7000002101915A6C0F4842F480725A645A6CE6
:101E800002F480720192019A02911A6B42F00102EF
:101E90001A631B6B03F001030293029B21220323AD
:101EA00003A9CDE9032303F07DFA08B010BD00BFFC
:101EB00000200140000002400268094B9A4282B0B3
:101EC0000BD100230193074B1A6B42F480521A6323
:101ED0001B6B03F480530193019B02B0704700BF5A
:101EE000003002400038024007B50F4B02689A42AA
:101EF00016D10022A3F5F0430192196B41F40001C1
:101F000019631B6B03F40003019305215A20019B05
:101F100003F0FEF85A2003B05DF804EB03F02AB991
:101F200003B05DF804FB00BF00B002402DE9F043B0
:101F3000044689B01422002103A821F096FB2268F0
:101F4000244B9A4243D1244C244800250095236B0E
:101F500043F004032363236B03F004030093009B0B
:101F60000195236B43F001032363236B03F001030B
:101F70000193019B4FF012094FF400734FF00108D9
:101F80000327042603A9CDE90339CDE90587079680
:101F900003F008FA4FF480731148079603A9CDE9BE
:101FA0000339CDE9058703F0FDF90295236C43F46D
:101FB00000032364236C03F400030293029B236A4F
:101FC00043F400032362236A23F40003236209B06D
:101FD000BDE8F083005C0040003802400008024089
:101FE00000000240F0B599B004461422002107A871
:101FF00021F03BFB30220DEB0200002121F035FBEC
:1020000022685E4B9A4240F0B78008230C93C023AD
:102010001093042312930CA84FF40033159304F08B
:1020200091FB08B1FFF7F4FE554B5648002400948D
:102030005A6C42F080625A645A6C02F080620092DC
:10204000009A01941A6B42F020021A631A6B02F094
:1020500020020192019A02941A6B42F001021A6363
:102060001A6B02F001020292029A03941A6B42F078
:1020700002021A631A6B02F002020392039A04949A
:102080001A6B42F040021A631A6B02F0400204928B
:10209000049A05941A6B42F004021A631A6B02F058
:1020A00004020592059A06941A6B42F008021A631C
:1020B0001B6B03F00803069302250E26069B0B9666
:1020C0004FF4806307A9CDE90735CDE9094503F051
:1020D00069F941F658032C480B9607A9CDE9073555
:1020E0000927CDE9094503F05DF9032327480B973C
:1020F00007A9CDE90735CDE9094503F053F94FF4B8
:10210000706322480B9607A9CDE90735CDE909454B
:1021100003F048F94FF40C631D480B9607A9CDE96D
:102120000735CDE9094503F03DF9C02319480B9661
:1021300007A9CDE90735CDE9094503F033F90823AF
:1021400015480B9607A9CDE90735CDE9094503F0F8
:1021500029F94FF4A0530E480B9707A9CDE907358D
:10216000CDE9094503F01EF958202246052102F069
:10217000CFFF582002F0FEFF19B0F0BD006801400B
:1021800000380240001402400000024000040240F7
:102190000018024000080240000C02400268094B8F
:1021A0009A4282B00BD100230193074B5A6B42F045
:1021B00040025A635B6B03F040030193019B02B042
:1021C000704700BF000806500038024010B50446B2
:1021D00088B01422002103A821F047FA2268144B8A
:1021E0009A4223D103F56843002101915A6C1148AA
:1021F00042F480125A645A6C02F480120192019ADD
:1022000002911A6B42F020021A631B6B03F0200349
:102210000293029B4FF4607202230321CDE9032352
:102220000523CDE9061303A903F0BCF808B010BDDF
:1022300000500140001402402DE9F04186B0002317
:1022400003932B4B1C68002C4FD14FF00108C3F8AF
:102250000080284B00949A6B274842EA08029A6350
:102260009B6B03EA08030093022703260C25009BBF
:1022700001A94FF63F03CDE90137CDE9046503F02D
:1022800091F81E48059501A9CDE90187CDE90346DE
:1022900003F088F848F233131948059501A9CDE9F0
:1022A0000137CDE9034603F07DF84FF683731548F7
:1022B000059501A9CDE90137CDE9034603F072F890
:1022C0004CF203731048059501A9CDE90137CDE91A
:1022D000034603F067F860230C48059501A9CDE992
:1022E0000137CDE9034603F05DF806B0BDE8F081A3
:1022F000042B002000380240001402400008024075
:102300000018024000100240000C0240000402408D
:1023100070B588B000230293204B1A6C42F0100273
:102320001A641B6C03F010030293054601A903A86D
:10233000029B04F0E9F9069B4BBB04F0D5F9184E5B
:10234000184B336040F2E733F360174BB0FBF3F305
:10235000013B7360304600233361B360B36105F025
:1023600057F8044680B9304604F02CFF044658B9AB
:10237000362002F0FFFE0F2D0DD8224629463620CA
:1023800002F0C6FE094B1D60204608B070BD04F087
:10239000ABF94000D3E70124F6E700BF0038024064
:1023A000082B00200010004040420F007C0000205D
:1023B0007047FEE7FEE7FEE7FEE77047014804F0DE
:1023C0003FBF00BF082B0020014803F034BE00BF10
:1023D00078290020014802F017BF00BF742A0020AE
:1023E0000120704708B521F041FA162303604FF031
:1023F000FF3008BD08B521F039FA16230360FEE767
:1024000070B50D4614460E46731B9C4201DC2046F7
:1024100070BDAFF3008006F8010BF5E770B50D460F
:1024200014460E46731B9C4201DC204670BD16F814
:10243000010BAFF30080F5E74FF0FF3070474FF42A
:1024400000534B6000207047012070470020704708
:102450000A4A116808B5034609B9094911601068AC
:10246000694603448B4206D921F000FA0C2303602D
:102470004FF0FF3008BD1360FCE700BF502B002079
:1024800078470120704710B5042104461FF0AAFFC9
:10249000204610BD08B5032913D8DFE801F0020675
:1024A0000A0E01F083FB006808BD01F07FFB406865
:1024B000FAE701F07BFB8068F6E701F077FBC06884
:1024C000F2E70020F0E7000000487047DC53020804
:1024D0000820704713B5002451B1036801948DF8AA
:1024E000034001AA9C680DF10303A04702B010BD90
:1024F0000846FBE7C0897047008A7047C08870476C
:1025000080887047807A00F07F007047807AC00929
:1025100070470020704700009FED010A704700BF20
:1025200000000000704710B5082104461FF05AFF54
:10253000204610BD7047704700F5987308684968D9
:1025400003C37047704770474160704770477047DA
:10255000064BC0F84C310023C0F8503100F5A2738F
:10256000C0F84801C0F84031704700BF912A000808
:10257000012303727047704770477047704738B542
:10258000054640680368DB699847044604B938BDCE
:10259000A188AB89C91A236820461B6B09B29847EA
:1025A000A469F3E710B4C26841685410034601EB14
:1025B0006200D20748BF0A599B685DF8044B48BFC8
:1025C000D35818470346406830B19A681AB9D8689A
:1025D00000F0010070470120704710B50C2104463F
:1025E0001FF000FF204610BD10B5142104461FF057
:1025F000F9FE204610BD10B5102104461FF0F2FE72
:10260000204610BD10B5102104461FF0EBFE2046F9
:1026100010BD10B54FF4AE7104461FF0E3FE204626
:1026200010BD10B50DF07AF80368BDE81040DB6B03
:10263000184710B50DF072F80368BDE810405B6BE9
:10264000184710B50DF06AF80368BDE810405B6BE1
:102650001847000013B50446807A637A0130C0B28F
:102660009842A07205D9012323720023A37202B0FD
:1026700010BDB4F90C2000210FF02EFAC30707D5C6
:1026800000284FF6FF73C8BF012313FA80F000B291
:10269000144AE08112880023ADF8023083B2D21AC6
:1026A000ADF80020228A20829B1AADF804300E4B30
:1026B0001B88ADF806300DF031F8036802AA1B6CD8
:1026C00012E906009847A37A012BD0D1074B1B785B
:1026D000002BCCD00DF022F802B0BDE810400DF078
:1026E00023B800BF283A01202A3A0120323A0120BB
:1026F00037B50546807A6B7A0130C0B29842A8722D
:1027000005D901232B720023AB7203B030BDB5F99C
:102710000C20B5F90E4000210FF0DEF9C30707D5F4
:1027200000284FF6FF73C8BF012313FA80F000B2F0
:10273000AB7AE881041B012BA4B206D1174B1B789E
:102740001BB10CF0EBFF0CF0EFFF154A00231288D1
:10275000ADF80230EB891A445B42ADF80430114BFE
:10276000ADF800201B88ADF806300CF0D7FF0368E9
:1027700002AA12E906001B6C984768680368DB69C7
:1027800098470546002DC0D0A9882B6821442846CB
:102790001B6B09B29847AD69F4E700BF323A0120DC
:1027A000283A01202A3A012010B50446D0F8400109
:1027B00058B10368DB68984738B1D4F84001036822
:1027C0009B6898470023C4F8403110BD2DE9F14FB4
:1027D000D0E9556A0746B06803681B6A9847B0F5A8
:1027E0009D5F05D2484B494AA321494820F036FD58
:1027F000706803681B6A98471B2803D8454B434AF7
:10280000A421F2E7F06803681B6A98470F2803D8F1
:10281000414B3E4AA521E8E70CF080FFDFF8049128
:1028200004300CF0C8FFD9F8000010B10368DB6871
:102830009847D9F8000010B103681B689847DFF883
:10284000E880D8F8000010B103685B699847D7F8B2
:102850003C0110B103685B689847D8F8000010B1DC
:1028600003681B689847D7F83C0110B103689B6860
:102870009847F068036800215B6A9847274B03601C
:102880004FF4A0530381264B1B884FF0000B80F8B8
:102890000AB05B420446C0F804B0A0F80EB08381D1
:1028A000B068036859465B6A9847054601F0F0FD39
:1028B0007068036859465B6A98472946064601F0E6
:1028C00039FA331DC7F83C61C9F80040C8F8005018
:1028D000CAF800302B68C6F808A02846DB68EE630B
:1028E0009847336830461B689847214628460FF0C2
:1028F000EDF8236820461B69984723685B692046EA
:1029000001B0BDE8F04F18478F4802081D49020882
:10291000024A0208494A0208EC4A02082455020801
:10292000283A01207C3A0120783A01202DE9F14F24
:10293000D0E955BA0746DBF8080003681B6A9847D8
:10294000B0F5277F05D2494B494AA321494820F0D9
:1029500085FCDBF8040003681B6A98470F2803D83E
:10296000454B434AA421F1E7DBF80C0003681B6ADE
:102970009847132803D8414B3D4AA521E6E70CF0C0
:10298000CDFEDFF8049104300CF015FFD9F80000FB
:1029900010B10368DB689847D9F8000010B10368EC
:1029A0001B689847DFF8E480D8F8000010B103688E
:1029B0005B699847D7F83C0110B103685B6898479A
:1029C000D8F8000010B103681B689847D7F83C019D
:1029D00010B103689B689847DBF80C00036800217E
:1029E0005B6A9847264B03604FF4A0530381254B45
:1029F000002686721B8846600446C6810682838153
:102A0000DBF80800036831465B6A9847054601F029
:102A100051F9DBF80400036831465B6A98472946A0
:102A2000064601F019F9331DC7F83C61C9F80040AA
:102A3000C8F80050CAF800302B68C6F808A028462D
:102A4000DB68EE639847336830461B689847214639
:102A500028460FF03BF8236820461B6998472368F7
:102A60005B69204601B0BDE8F04F18478F48020867
:102A70008F4B0208024A0208494A0208EC4A02083F
:102A800048550208283A01207C3A0120783A012072
:102A90002DE9F14FD0E9556A0746B06803681B6A13
:102AA0009847B0F5277F05D2444B454AA3214548B6
:102AB00020F0D4FB706803681B6A98470F2803D87E
:102AC000414B3F4AA421F2E7F06803681B6A98472C
:102AD0000B2803D83D4B3A4AA521E8E70CF01EFE2F
:102AE000DFF8F09004300CF066FED9F8000010B169
:102AF0000368DB689847D9F8000010B103681B68C9
:102B00009847DFF8D480D8F8000010B103685B69FB
:102B10009847D7F83C0110B103685B689847D8F82C
:102B2000000010B103681B689847D7F83C0110B14A
:102B300003689B689847F068036800215B6A9847C0
:102B40004FF0000B224BC0F804B0044680F808B0E8
:102B50000360B068036859465B6A9847054601F010
:102B6000A9F87068036859465B6A98472946064683
:102B700001F072F8331DC7F83C61C9F80040C8F88D
:102B80000050CAF800302B68C6F808A02846DB6859
:102B9000EE639847336830461B68984721462846BD
:102BA0000EF094FF236820461B69984723685B69F1
:102BB000204601B0BDE8F04F184700BF8F4802081B
:102BC000734C0208024A0208494A0208EC4A020809
:102BD000005502087C3A0120783A0120044B1B681A
:102BE00093F858200AB1D86C00B99868704700BFB4
:102BF000343A0120F8B5174604460E460CF078FE2C
:102C0000124B1C60124B2360124B0025C4E9513556
:102C1000114BC4E953551868036801219B68C4E946
:102C20004F55C4E955769847284600F073FFFFF7E3
:102C3000D5FF17F0D4FAFFF7D1FF17F04BFBFFF7E2
:102C4000CDFF17F053FB2046F8BD00BF883A0120A6
:102C5000AC54020894540208343A0120064BC0F8E0
:102C60004C310023C0F8503100F5A273C0F8480180
:102C7000C0F84031704700BF912A0008064BC0F8E9
:102C80004C310023C0F8503100F5A273C0F8480160
:102C9000C0F84031704700BF2D290008064BC0F82E
:102CA0004C310023C0F8503100F5A273C0F8480140
:102CB000C0F84031704700BFCD270008406A704718
:102CC000806A704770478A880B8810B5D20A4C8892
:102CD000C1699BB251F8220043EA0443184410BD75
:102CE00010B50446BAB1107B68B1537BD27A1B028F
:102CF00003F4E0631A43236A03EB82031A888A42CF
:102D000002D193F9020010BD05D8013880B2043316
:102D10000028F3D1F7E70020F5E710B52C21044691
:102D20001FF060FB204610BD30B58BB00446BDF8E7
:102D300060500895BDF85C5007959DF85050069579
:102D40009DF84C5005959DF8485004959DF84450C9
:102D500003959DF8405002959DF83C500195BDF8B3
:102D6000385000950EF00CFB064B2360159BE36179
:102D7000169B2362199B63621A9BA36220460BB0C9
:102D800030BD00BF6C5502087047704770477047F0
:102D9000704730B5036885B06D460181D3F8843043
:102DA000014604462846984795E807003C3484E8E5
:102DB000070005B030BD30B5036885B06D46418170
:102DC000D3F88430014604462846984795E8070022
:102DD0003C3484E8070005B030BD00220280428008
:102DE0008280C280704780F83610704770B50368E3
:102DF00004461B6B154698472368294620465B6EA0
:102E0000BDE87040184700207047806C70477047DD
:102E100070477047704730B4C26844685510034625
:102E200004EB6200D20748BF62599B6830BC48BFC0
:102E3000D35818470346406830B19A681AB9D86821
:102E400000F0010070470120704710B54C21044686
:102E50001FF0C8FA204610BD10B5102104461FF01F
:102E6000C1FA204610BD10B54FF4227104461FF080
:102E7000B9FA204610BD08B5FEF716FB08BD0000E4
:102E8000036870B55E6B124B1B6804468DB22BB99C
:102E9000104B114A6C21114820F0E0F91049828D45
:102EA0000988914203D80F4B0B4A6D21F3E713F8C1
:102EB00012200D4B1B6853F8220003681B6B9847C8
:102EC000291A3346204609B2BDE87040184700BFB2
:102ED0008C3A0120454D0208874D0208C24D020878
:102EE000903A0120094E0208943A0120E4308842C9
:102EF00008B505D10CF012FCBDE80840FFF7CEBEC6
:102F000008BD00224FF0FF31C0E900218260704708
:102F100070B5036804461B6B15469847236829461D
:102F200020465B6BBDE87040184770B504461D46EF
:102F3000BDF91060FFF7ECFF2368294620469B6B24
:102F40009847236831462046DB6BBDE87040184740
:102F50000022C0E90122C0E90322C0E90522C0E93C
:102F600007224FF480728284014A0260704700BFDA
:102F7000D455020810B526220446002120F075FB26
:102F80002046FFF7E5FF044B2360FF2384F826303B
:102F90000023A362204610BDFC5B020810B5262268
:102FA0000446002120F061FB2046FFF7D1FF0A4BC9
:102FB00023600A4BA3624FF6FF73A3854FF47F0291
:102FC0000023C4E90C3223874FF0FF32C4E91023F9
:102FD000E363204610BD00BF6C5B02088454020806
:102FE0002DE9F04F044691B0A04600250EF0C2FB3B
:102FF000BA4BE56348F8403B04F16C094046FFF7E3
:10300000B9FF04F198074846FFF7B4FF3846FFF7C9
:10301000C5FFB34BC4F898304FF0260A04F1E4031F
:10302000524629461846C4F8E050039320F01DFB91
:103030000398FFF78DFF4FF0010304F58C7B4FF6EB
:10304000FF7684F80831A74BC4F8E430524629468D
:10305000A4F81261A4F8146184F81661C4F80C5144
:1030600084F810515846ADF8386020F0FEFA584602
:10307000FFF76EFF9C4BC4F81831BDF83830A4F848
:103080003E310EA984F84061584609F04CFF04F522
:10309000A27318460493FFF781FF04F5C673184620
:1030A0000593FFF77BFF04F5EA7318460693FFF7D5
:1030B00075FF04F5077318460793FFF76FFF8B4BF7
:1030C000C4E99E348A4BC4E9A0354FF4A073261D91
:1030D0002A4600932946F02340464FF07F4AFFF7E7
:1030E00024FFC4F868A04146304606F079FB4FF44F
:1030F000A0732A4600932946F0234846FFF715FFA0
:10310000C4F894A0494630464FF0120A06F068FB16
:103110008B223846CDF800A051237821FFF705FF18
:10312000744BC4F8C830D4F89830A4F8CC500DF1E2
:10313000200839464046D3F88430DFF8C0919847DC
:1031400098E8070004F1D40383E8070004F5197335
:10315000C4F8E0300EA904233846A4F86452ADF850
:103160003C30CDF8389009F047FD3946304606F03E
:1031700037FB0398ED221421FFF7CAFE07230EAA9E
:103180000398ADF834300DA9ADF8383009F092FD50
:1031900004F51E73C4F80C310399304606F020FB89
:1031A0002E2258461421FFF7B3FE03270EA95846D6
:1031B000ADF8387009F0B7FE5946304606F010FBFE
:1031C0001E230498DFF838B10093B522E0230821CC
:1031D000FFF7ABFE0499C4F874B14046A4F87851E7
:1031E00009F070FA98E8070004F5C07383E8070057
:1031F0000498CDF838900EA9ADF83C7009F0FCFCAD
:103200000499304606F0ECFA0598D3222B21FFF7FB
:103210007FFE394B0599C4F8BC314046A4F8C05133
:1032200009F050FA98E8070004F5E47383E8070012
:1032300002230598ADF83C300EA9CDF8389009F07E
:10324000DBFC0599304606F0CBFA0698CDF800A0D5
:103250008B2251232721FFF768FE264B0699C4F8DD
:1032600004324046A4F8085209F02CFA98E8070006
:1032700004F5047383E807004FF001030698ADF8E6
:103280003C300EA9CDF8389009F0B6FC06993046CE
:1032900006F0A6FA2A4607982946FFF739FE07994D
:1032A000C4F84CB24046A4F8505209F00BFA98E822
:1032B000070004F5167383E807000798CDF83890E7
:1032C0000EA9ADF83C5009F097FC3046079906F07E
:1032D00087FA204611B0BDE8F08F00BFE45602081F
:1032E0003C560208645C0208D85C0208CC5602080E
:1032F000ED2E00080505F0FFF5F5FAFF84540208ED
:10330000F5F5FFFF806A7047704770477047704758
:10331000704730B4C26844685510034604EB62003D
:10332000D20748BF62599B6830BC48BFD358184782
:103330000346406830B19A681AB9D86800F00100B5
:1033400070470120704790F82D3080F85C3070474E
:103350000146343091F82C3013B1623109F0E3BDED
:103360006031FBE710B5642104461FF03BF82046AE
:1033700010BD10B5102104461FF034F8204610BDD2
:1033800010B54FF4377104461FF02CF8204610BDDD
:1033900010B50446006B50B10368DB68984730B144
:1033A000206B036821469B68BDE81040184710BD9C
:1033B0000B7970B590F82C6004460D460BB916B128
:1033C00070BD002EFCD0B3FA83F35B0984F82C3077
:1033D00023682046D3F88C309847236820465B69E1
:1033E0009847002EECD02B79012BE9D12368204699
:1033F000D3F88830BDE87040184700F5BA738B42A7
:1034000010B5044609D10CF089F9FFF737FC2368A1
:103410002046DB6ABDE81040184710BD70B5036850
:1034200004469B6B15469847236829462046DB6B6C
:10343000BDE8704018470B8870B5A0F860300546AD
:10344000138825F8623F044628460FF02DFF0646F4
:1034500028460FF05DFF314602462046FFF7DEFFAB
:1034600023682046D3F88C30BDE870401847000030
:1034700038B5262204460D46002120F0F6F82046F5
:10348000FFF766FD064B23602B88E384FF2320466D
:1034900084F82830294609F046FD204638BD00BF93
:1034A000D85C0208F7B54FF47F430646838540F2A7
:1034B000011300258384134B8562C0E90155C0E9DF
:1034C0000355C0E90555C0E90755056346F8343B87
:1034D00004464FF6FF7701A93046ADF80470FFF7B8
:1034E000C7FF2A4629463046A4F86070A4F86270E7
:1034F000FFF70EFD2046314606F072F9204603B074
:10350000F0BD00BF185702082DE9F04F04468FB0F8
:10351000A14600250EF02EF9C14BE56349F8403B6A
:1035200026222946484620F0A0F84846FFF710FD1D
:10353000BC4B2364FF2384F8663004F16C034FF620
:10354000FF7704F1980618460CA9A56604F1C40B90
:103550000293ADF83070FFF78BFF0CA93046ADF841
:103560003070FFF785FF0CA95846ADF83070FFF7B3
:103570007FFF04F1F0030CA918460393ADF83070F7
:10358000FFF776FF04F58E730CA918460493ADF887
:103590003070FFF76DFF04F5A4730CA904F5BA7A37
:1035A00018460593ADF83070FFF762FF5046FFF7FD
:1035B00079FF04F5EC7318469B4F0093FFF7EEFC80
:1035C00004F5097304F51B78C4F8D8711846C4F8DB
:1035D00020520193FFF7E2FC4046FFF7DFFC934BDC
:1035E000C4F86C72C4E9B334914BC4F8B452C4E962
:1035F000B5352A4629464846FFF78AFC4FF4A072A3
:103600004846F021271DFFF709FF4FF07F43A366CF
:103610004946384606F0E4F8062202982946FFF7A4
:1036200077FC4FF004090298ADF830900CA909F02E
:103630007AFC0299384606F0D3F806223046122169
:10364000FFF766FC0CA93046ADF8309009F06BFC32
:103650003146384606F0C4F8062258462421FFF7C2
:1036600057FC0CA95846ADF8309009F05CFC59465F
:10367000384606F0B5F83E2203986C21FFF748FC67
:1036800002260398ADF830600CA909F04CFC0399B0
:10369000384606F0A5F840F20F1204987421FFF79F
:1036A00037FC4FF0050B0498ADF830B00CA909F0C9
:1036B0003AFC0499384606F093F84FF49072059856
:1036C0006821FFF725FC06230598ADF830300CA9DA
:1036D00009F029FC0599384606F082F80122ADF878
:1036E0002C20ADF830200BA90CAA5046FFF7A3FE02
:1036F0002A46294604F5D470FFF70AFC04F5337214
:10370000C4F8A421504640F21D12D221FFF700FC5C
:10371000232250461E21FFF781FE5146384606F00F
:103720005FF80098DFF814A13246A921FFF7F0FBFB
:10373000009811224721FFF771FE3E4AC4F8082283
:10374000D4F8D8210099D2F88420A4F80C5206AEFF
:103750003046904796E8070004F5057C8CE80700A2
:1037600006230098ADF834300CA9CDF830A009F04C
:1037700043FA0099384606F033F8019803223821BD
:10378000FFF7C6FB2C4BC4F854320199A4F85852E9
:10379000304608F097FF96E8070004F5187C8CE89F
:1037A00007000198CDF830A00CA9ADF834B009F0AD
:1037B00023FA0199384606F013F82A4640466C2150
:1037C000FFF7A6FB132240463D21FFF727FE1A4BC9
:1037D000C4F89C32D4F86C32A4F8A052414630466A
:1037E000D3F88430984796E8070004F52A7383E8F5
:1037F000070004F52E73C4F8B4320CA94046A4F8AF
:10380000B852CDF830A0ADF8349009F0F5F938464B
:10381000414605F0E5FF20460FB0BDE8F08F00BF40
:10382000D0570208FC5B02083C560208B857020851
:10383000FB3300081010E8FF0505F0FF8454020870
:103840007047000030B5164D2C6814F001048FB09D
:10385000BFF35B8F21D128461EF0C6FDE8B13F23A0
:103860000993104B0893104B104911480A94CDE965
:10387000064301220423CDE90332142300930C22D2
:10388000CDE90B44CDE901440594FFF74DFA094811
:103890001FF002FD28461EF0B3FD05480FB030BDF5
:1038A000542B0020DC780208EC7802085C740208D3
:1038B000582B0020413800087047000030B5174DE4
:1038C0002C6814F001048FB0BFF35B8F23D128461E
:1038D0001EF08AFDF8B13F230993114B0893114B59
:1038E00007930223CDE9053301220423CDE90332F6
:1038F0000B230D4900932B220D23CDE90B44CDE979
:1039000001440A480A94FFF70FFA09481FF0C4FC63
:1039100028461EF075FD05480FB030BD842B0020F1
:10392000E0780208F078020804750208882B00206D
:10393000B93800087047000030B5174D2C6814F0F6
:1039400001048FB0BFF35B8F22D128461EF04CFDDF
:10395000F0B13F230993114B0893114B07930123B7
:10396000CDE9054304930423CDE902430D230D491A
:10397000009317220F23CDE90B440B480A940194BE
:10398000FFF7D2F909481FF087FC28461EF038FDE2
:1039900005480FB030BD00BFB42B0020E47802080A
:1039A0000079020860770208B82B0020353900083A
:1039B0007047000030B5164D2C6814F001048FB02C
:1039C000BFF35B8F21D128461EF00EFDE8B13F23E7
:1039D0000993104B0893104B079302230422CDE95F
:1039E00005430123CDE9032314230C490093CDE9BA
:1039F0000B44CDE901440A480A94FFF795F90948B8
:103A00001FF04AFC28461EF0FBFC05480FB030BDF5
:103A1000E42B0020E878020804790208A478020860
:103A2000E82B0020B13900080020704700207047C3
:103A30000EB403B503AB002153F8042B01930CF033
:103A40001DFF02B05DF804EB03B070470CB407B57E
:103A500004AB53F8042B01930CF010FF03B05DF896
:103A600004EB02B070470000436C10B5044673B31A
:103A7000038F2BB9184B194AC52119481FF0EEFBCB
:103A8000C38E00EB43035B8C0BB30EF0AAFD238FB8
:103A9000012B03D8134B144ACB21EEE7E28E531CC3
:103AA0009BB2092B194688BFA3F10A0104EB41011F
:103AB00040F63F10498C814209D10A2B04EB4202A7
:103AC00028BF002304EB4303508C588451842046C4
:103AD000BDE810400EF088BC474E0208504E020868
:103AE000FB4E0208454F0208534F02080EF043BC3C
:103AF00010B586B002AC84E806001A460AAB0593FE
:103B00000193099B00932146089B0BF0A5F906B091
:103B100010BD000038B518BB124B13481C68134980
:103B2000B4B1226822440260626822440A60A2683A
:103B300014440F4B00221A8000F038F8054600F0BC
:103B400033F80C4B1C600C4B1D600C4B188007E0CD
:103B50000B4B03600B4B0B600B4B1C68002CE8D12C
:103B600038BD00BF202C0020182C0020142C002071
:103B70001C2C00208C3A0120943A0120903A01201C
:103B80002479020808790208007A0208044B1B68AD
:103B900053F82100034B1B6803EB4000704700BF44
:103BA000142C0020182C0020072070470048704774
:103BB000242C002010B5FFF7BFFE064C2060FFF755
:103BC00041FE6060FFF77AFEA060FFF7F3FEE06061
:103BD00010BD00BF242C002010B5002404600C6030
:103BE00014601C6010BD704710B54FF4AE710446F0
:103BF0001EF0F8FB204610BD10B50446D0F8580161
:103C000000F015F82046BDE810400BF031BE000072
:103C100010B50446FEF7EEFF014B2360204610BDB1
:103C20000858020800220260828082607047704754
:103C3000704704387047D0E9022003689168DB6A56
:103C40001847704710B5102104461EF0CBFB2046E4
:103C500010BDA0F10400F5E700228260024A026074
:103C600018324260C16070475C580208704700001B
:103C7000D0F8882203680132C0F88822014ADB6A42
:103C800011881847C428002010B5034B0360044670
:103C9000FFF7BFF8204610BD8458020810B504464F
:103CA000FFF7F2FF20464FF427711EF09BFB2046E2
:103CB00010BD000010B50446FFF792F9034B2360D6
:103CC0000023C4F88832204610BD00BF8458020883
:103CD000FFF7A0B838B5044600F523750B46284613
:103CE000054A08210FF026FAC4F8E05004F19800C4
:103CF000BDE838400CF0ECBE25500208704704388F
:103D00007047C0680368DB68184710B51C2104467B
:103D10001EF068FB204610BDA0F10400F5E710B5C9
:103D20000446C06800F0AEFBA3689A689042C8BF22
:103D3000986010BD10B5054C046000221834C0E92D
:103D40000312826044604261028310BDBC580208C5
:103D5000704700F5805210B5002304460321C0F8D7
:103D6000FC32C2E9E413C2F8883382F88C33C2F81B
:103D7000983382F89C332146C0F8F03DC2F8843372
:103D8000024600F5167082F808330C32824281F840
:103D90007D3501F12C01F6D104F5A470CE22672106
:103DA000FDF7D5FA236820461B6B0021984723684E
:103DB00020465B6BBDE810401847C36B00F5805090
:103DC000D0F894231A83704738B5044600F6F455AA
:103DD0000B462846054A08210FF0ACF9C4F8B45246
:103DE00004F51B70BDE838400CF072BE2550020887
:103DF00000F5805310B5D3F890330446032B0AD84E
:103E0000DFE803F002171E2703689B6B98470BF04F
:103E100085FCFEF723FF04F16C000CF059FE04F161
:103E200098000CF055FE04F1C400BDE810400CF001
:103E30004FBE012380F89130002384F8BD3005E0A7
:103E4000012380F8913080F8BD30002384F8E930F8
:103E5000E1E7012380F89130EFE700000F4B70B5E8
:103E60000446036041F2503540F60476B54205D071
:103E7000635960191B6898472C3DF7E740F6C45515
:103E800040F22C56635960191B682C3D9847B54287
:103E9000F8D12046FFF73BFA204670BDE4580208EF
:103EA00010B50446FFF7DAFF20464FF49D511EF08F
:103EB00099FA204610BD000013B50A4B0A4A1B8828
:103EC000128892B2044600929BB2084A0C2100F577
:103ED00038700FF02FF904F5EC7002B0BDE8104017
:103EE0000CF0F6BDCA280020C8280020285002087F
:103EF00038B5084D0C4601221021284601F03CFB44
:103F0000204600F0ADFE28460022BDE838401021D2
:103F100001F032BB000402402DE9F74F2C4FDFF8CF
:103F2000B89005460E464FF0000AB24502DB03B0DA
:103F3000BDE8F08F002405F60C620C2101FB04F8AB
:103F400012F8080000283FD16946384602F03EFDCD
:103F500001A9384602F03AFD2C214C4305EB040B35
:103F60001C4BBBF9381F1A88521A0099B1FBF2F0AA
:103F700002FB1011BBF93A0FB9F80020C0EB520058
:103F8000019AB2FBF0FC05EB080300FB1C2240F297
:103F90000110A3F80C0EC3F8041EC3F8082E04F594
:103FA0007364DBF8303F2C449B6D204612B209B29B
:103FB000984701238BF8553FDBF8303F20465B697B
:103FC00098470AF1010AB0E70134192CB6D1F8E795
:103FD00068290020283A01202A3A01202DE9F04FD3
:103FE0002DED028B074683B0064600F5736A00F597
:103FF000967800F58059B7EE008A96F80C3E002BB3
:1040000059D096F80D3E002B55D0B7F95021D9F86C
:104010007C53D6F8043EB7F95241D6F808BE019356
:1040200002EBD27205EB6205BAF9082002EBD272FC
:1040300003EB6202AD1A04EBD472D9F8804304EBAF
:104040006204BAF90A2002EBD2720BEB6202A41AE4
:1040500004FB04F205FB052300EE103AB8EEC00A9B
:104060001EF0EAF9B4EEC80AF1EE10FA23DD6D0095
:1040700007EE905AF8EEE77A640087EE807A019BAB
:104080005046FDEEC77A17EE901A07EE904AF8EE0A
:10409000E77A194487EE807ADAF80030C6F8041E11
:1040A0009B6D09B2FDEEC77A17EE902A5A44C6F806
:1040B000082E12B298470C3646450AF12C0A9CD1BC
:1040C00003B0BDEC028BBDE8F08FB2F90400B2F989
:1040D000083010B5B1F9044003449C4215DAB1F937
:1040E00008302344984210DAB2F90600B2F90A30D7
:1040F000B1F9064003449C4207DAB1F90A3023447F
:104100009842ACBF0020012010BD0020FCE7000059
:104110002DE9F04FD0F8FC32B84DB0F8DC22013375
:1041200087B0C0F8FC322B889BB29A42044606D076
:10413000298889B2FFF7C0FE2B88A4F8DC32B04B87
:10414000B4F952611A882B8840F2D3619BB28B423A
:1041500040F2F680288840F62C1380B298428CBF3B
:1041600003200020A7490B8840F2D3659BB2AB42E5
:1041700040F2E9800B8840F62C119BB28B428CBF39
:104180000323002304F580559F49D5F87C730988E3
:10419000B4F950C1C01900F1D980A1EB0C018142E2
:1041A000A8BF0146D5F88003C5F87C131B1800F1A1
:1041B000CF80921B0A3A9A42A8BF1A4604F5A47B04
:1041C00009B2C5F88023584612B2FDF7C0F8204660
:1041D000FFF704FF8D4B1A7800211970002A40D098
:1041E000D5F88473002F3CD1D4F8F02D884B9A4237
:1041F00037DC04F542710C2000FB07F3CE5C002E87
:1042000040F0A8802344012632442C2083F8086320
:104210007843C4F8F02DB4F95021B4F94C112718A3
:1042200002EBD27201EB6201B7F9602502EBD272A8
:10423000A1EB6201B4F94E21C3F80013C3F80423C3
:10424000D7F8583500F5AB6009B220449B6D98470C
:1042500087F87D650A212046FFF74AFE0F23C5F83F
:104260008433D5F88433002BC4BF03F1FF33C5F882
:10427000843304F55F63019304F60C63A24604F5EE
:10428000AB66274602934FF0000897F808336BB1EE
:10429000D7F80423B6F90A30033A5B429A42C7F8CA
:1042A00004235CDA87F8088386F82580019B2C3686
:1042B0009E4207F10C07E8D195F88C7304F5736200
:1042C000002604F60C690C2303FB06F819F8081005
:1042D00041B13FB959462046FFF7F7FE0C230028AD
:1042E00040F09A800136192E02F12C02ECD1002FF9
:1042F00040F0B18004F596739AF80C2EEAB90AF1F1
:104300000C0A5345F8D1D5F89833312B15DC05A9A3
:10431000404802F05BFB05990523B1FBF3F303EB87
:104320008303C91AD5F8983301315A18322AC8BF05
:10433000C3F132012046FFF7EFFD07B0BDE8F08F73
:104340006FF002000EE76FF002031BE7002129E780
:10435000002233E70137322F7FF44EAF7EE7336818
:10436000B7F900139B6D12B2304698474FF0000921
:1043700004F573620C2303FB09F302990393C95CF0
:10438000A1B331462046FFF7A0FE039B70B3234440
:1043900087F8088386F8258083F80C8E2C2303FB8E
:1043A0000943104683F8558FD3F8303F5B6998472F
:1043B00032212046FFF79CFDD5F8941323680A317B
:1043C0001B6BC5F8941320469847D5F898330133F2
:1043D000312BC5F898337FF769AF95F89C33002BE4
:1043E0007FF464AF012385F89C335FE709F101098D
:1043F000B9F1190F02F12C02BCD157E7CA280020ED
:104400002A3A0120C8280020283A0120C628002086
:10441000FFC99A3B68290020D5F89033013BC5F8C5
:1044200090332C2303FB06461046D6F8303F86F81F
:10443000557F5B699847A044236888F80C7E5B6BC6
:1044400020469847FA212046FFF752FD012385F8C0
:104450008C33C5F88873D5F888330133DA0758BF31
:1044600094F86D21C5F888335CBF82F0010284F8AE
:104470006D213B2BC1BF002385F88C33012384F8C9
:104480006D3137E700F58050D0F894037047000095
:104490002DE9F74F0446FFF737F8364B236000232A
:1044A000C4E9BE3304F5AB66A4F8DC32A04604F5DB
:1044B0005F6935464FF6FF77284601A92C35ADF8E0
:1044C0000470FEF7D5FF4D45F6D1002304F5736562
:1044D00004F59B57C4F8F03D1C37AA464FF6FF7B06
:1044E000504601A90AF12C0AADF804B0FEF7C0FF4E
:1044F000BA45F5D104F580534FF0000AC3E9E1AAAB
:104500000322C3E9E42A83F88CA3C3F898A383F8B1
:104510009CA3052204F1040B336888F808A31B6EE2
:10452000ADF80420304601A9984786F825A0314609
:1045300058462C3605F054F94E4508F10C084FF05A
:104540000502E9D14FF0020800262B6828461B6EB1
:10455000ADF8048001A9984785F82560294658469A
:104560002C3505F03DF9BD42EFD1204603B0BDE842
:10457000F08F00BFE45802082DE9F74F0446FEF71C
:10458000C7FE04F53873C4F82032454B198820461D
:1045900089B2FFF791FC234604F5167022460021EC
:1045A00083F808130C33834282F87D1502F12C0244
:1045B000F6D1DFF8F4A0BAF800300522143B142736
:1045C00093FBF2F34FF0000900934FF0010B3AB266
:1045D00005254FF000080099019209EB08060C230D
:1045E00003FB064308FB01F10A31C3F8041EA3F8DC
:1045F0000CBEC3F8087E2C235E4306F57360264488
:1046000009B2D6F8303F20449B6D9847013D019A8E
:1046100086F855BF08F10108DDD11437782F09F16C
:104620000509D4D1B4F95011BAF8003001EBD171B9
:104630004910C1EB53011B4B1A88B4F9523104F5F0
:104640008056D21A0A3AC6F87C13C6F8802309B2FB
:1046500012B204F5A470FCF77AFE0323C4F8FC52EE
:10466000C6E9E4352368C6F8985320465B6B86F8A4
:104670009C5398472368D6F894131B6B20469847A1
:1046800004F1F00084F815510CF022FA04F58E7054
:1046900084F8415103B0BDE8F04F0CF019BA00BFE7
:1046A000CA2800202A3A0120283A0120F020704729
:1046B0004FF4A07070472920FDF750BB2820FDF76C
:1046C0004DBB08B5FDF71EFBCA20FDF747FBC32015
:1046D000FDF728FB0820FDF725FB5020FDF722FB06
:1046E000CF20FDF73BFB0020FDF71CFBC120FDF7B1
:1046F00019FB3020FDF716FBED20FDF72FFB6420A2
:10470000FDF710FB0320FDF70DFB1220FDF70AFB60
:104710008120FDF707FBE820FDF720FB8520FDF752
:1047200001FB0020FDF7FEFA7820FDF7FBFACB2015
:10473000FDF714FB3920FDF7F5FA2C20FDF7F2FA0E
:104740000020FDF7EFFA3420FDF7ECFA0220FDF728
:10475000E9FAF720FDF702FB2020FDF7E3FAEA2053
:10476000FDF7FCFA0020FDF7DDFA0020FDF7DAFA8C
:10477000B120FDF7F3FA0020FDF7D4FA1B20FDF776
:10478000D1FAB620FDF7EAFA0A20FDF7CBFAA2200B
:10479000FDF7C8FAC020FDF7E1FA1020FDF7C2FAD4
:1047A000C120FDF7DBFA1020FDF7BCFAC520FDF7AC
:1047B000D5FA4520FDF7B6FA1520FDF7B3FAC72064
:1047C000FDF7CCFA9020FDF7ADFA3620FDF7C6FADA
:1047D000C820FDF7A7FAF220FDF7C0FA0020FDF788
:1047E000A1FAB020FDF7BAFAC220FDF79BFAB62075
:1047F000FDF7B4FA0A20FDF795FAA720FDF792FA23
:104800002720FDF78FFA0420FDF78CFA2A20FDF708
:10481000A5FA0020FDF786FA0020FDF783FA0020B4
:10482000FDF780FAEF20FDF77DFA2B20FDF796FAD1
:104830000020FDF777FA0020FDF774FA0120FDF75C
:1048400071FA3F20FDF76EFAF620FDF787FA012096
:10485000FDF768FA0020FDF765FA0620FDF762FA19
:104860002C20FDF77BFAC820FDF7C6FA2620FDF7BD
:1048700075FA0120FDF756FAE020FDF76FFA0F20D8
:10488000FDF750FA2920FDF74DFA2420FDF74AFAEA
:104890000C20FDF747FA0E20FDF744FA0920FDF73A
:1048A00041FA4E20FDF73EFA7820FDF73BFA3C2016
:1048B000FDF738FA0920FDF735FA1320FDF732FA33
:1048C0000520FDF72FFA1720FDF72CFA1120FDF730
:1048D00029FA0020FDF726FAE120FDF73FFA002033
:1048E000FDF720FA1620FDF71DFA1B20FDF71AFA36
:1048F0000420FDF717FA1120FDF714FA0720FDF741
:1049000011FA3120FDF70EFA3320FDF70BFA4220A1
:10491000FDF708FA0520FDF705FA0C20FDF702FA6D
:104920000A20FDF7FFF92820FDF7FCF92F20FDF7FD
:10493000F9F90F20FDF7F6F91120FDF70FFAC8205D
:10494000FDF75AFA2920FDF709FABDE808402C20A6
:10495000FDF704BA08B5FDF7D5F90321D320FDF71B
:1049600019FA80B208BD10B5C4B202220321204654
:10497000FDF77EF90A20FDF7C3F920460022032146
:10498000FDF776F9BDE810400220FDF7B9B938B55A
:104990000446E4B2FDF76AF900212046FDF780F9EC
:1049A000012105462046FDF77BF940EA052080B24B
:1049B00038BD10B5C4B240212046FDF771F9030699
:1049C00007D54C212046FDF76BF9003818BF0120B0
:1049D00010BD01224B212046FDF74AF92046002256
:1049E0004B21FDF745F90020F2E773B50423C4B26B
:1049F0000E461546D7210DEB03022046FDF76AF956
:104A0000019B1BBA1A0DC3F30B23328020462B8067
:104A100001224B21FDF72CF900224B212046FDF706
:104A200027F902B070BD000010B50A4A1378984209
:104A300004460DD0517888420AD00BB141B9012308
:104A4000D454FDF713F92046BDE81040FFF78BBFA3
:104A500010BD00BF342C002010B5C4B2092120467F
:104A6000FDF71EF940F00102D2B220460921BDE84F
:104A70001040FDF7FDB810B5C4B209212046FDF77E
:104A80000FF9092100F0FE022046BDE81040FDF7B5
:104A9000EFB838B5C4B20D4620460A21FDF700F93B
:104AA00040EA0502D2B220460A21BDE83840FDF7AF
:104AB000DFB810B50446FDF7DAF820461F21FFF7EE
:104AC000E8FF2046BDE81040FFF7C6BF38B5C4B2C6
:104AD0000D4620460A21FDF7E3F820EA0502D2B28E
:104AE00020460A21BDE83840FDF7C2B810B504469B
:104AF000FFF7C1FF20461F21BDE81040FFF7E6BFCA
:104B000010B5C0B20C460B21FDF7CAF8204010BD0D
:104B10001F21FFF7F5BF0A46C0B20B21FDF7A8B869
:104B20001F21FFF7F8BF38B5C4B20D462046172144
:104B3000FDF7B6F820EA0502D2B220461721BDE8FB
:104B40003840FDF795B870B5C4B20646042120463A
:104B5000FDF7A6F8042100F0FB0205462046FDF70C
:104B600087F83046F021FFF7DEFF05F0F802204617
:104B70000421FDF77DF8492220212046FDF778F831
:104B80000220FDF7BDF8204601222121FDF770F833
:104B900020469A224121FDF76BF8204601224A2146
:104BA000FDF766F8204601224B21FDF761F820460B
:104BB00000224B21FDF75CF8204601225621FDF72B
:104BC00057F8204601225821FDF752F820460122CD
:104BD0004021FDF74DF82046FF220B21FDF748F854
:104BE000BDE870400220FDF78BB80000054BD3F8FC
:104BF000882042F47002C3F888204FF000629A6067
:104C0000704700BF00ED00E008B50B4B1A6842F496
:104C100000721A601A6842F480621A601A6842F4DC
:104C200080721A60032000F061FA0020FDF770FB2B
:104C3000FDF7F0F8002008BD003C0240034A044B99
:104C400011681B780B441360704700BF382C00209C
:104C500078000020014B1868704700BF382C0020F6
:104C600038B50446FFF7F6FF631C1CBF054B1B78E5
:104C7000054618BFE418FFF7EDFF431BA342FAD324
:104C800038BD00BF7800002038B50446002800F089
:104C90009B80056C25B9FDF7DDF8656484F83C5010
:104CA000236CDB0600F18E80236C23F4885323F001
:104CB000020343F002032364444B5A6822F4403257
:104CC0005A605A6861680A435A60236821695A68C1
:104CD00022F480725A605A6842EA01225A605A6885
:104CE000A16822F040725A605A680A435A609A6872
:104CF000E16822F400629A609A680A439A60344933
:104D0000A26A8A4252D0996821F0706199609968CC
:104D10000A439A609A68E16A22F040529A609A685F
:104D20000A439A609A6822F002029A609A68217E89
:104D300042EA41029A6094F82020002A3ED05A6844
:104D4000616A42F400625A605A6822F460425A6012
:104D50005A68013942EA41325A60DA6AE16922F45A
:104D60007002DA62DA6A013942EA0152DA629A685A
:104D700022F400729A609A6894F8301042EA412254
:104D80009A609A68616922F480629A609A68002049
:104D900042EA81229A606064236C23F0030343F0AB
:104DA00001032364002384F83C3038BD9A6822F064
:104DB00070629A609A6822F04052B2E75A6822F410
:104DC0000062C9E70120EDE70120EEE70023014082
:104DD0000100000F82B00023019390F83C30012BBA
:104DE00069D0012380F83C3003689A68D2070BD55C
:104DF0009A68D1071AD4036C43F010030364436C20
:104E000043F0010343644CE09A682C4942F00102EC
:104E10009A602B4A1268B2FBF1F202EB4202019255
:104E2000019A002AE4D0019A013AF8E7026C22F4D0
:104E3000E06222F0010242F4807202645A68520574
:104E400041BF026C22F4405242F480520264026C70
:104E500012F480521CBF426C22F00602426400220F
:104E600080F83C206FF022021A60164A516811F057
:104E70001F0F15491CD18B4207D001F580718B4261
:104E80000CD1526812F01F0F0BD19A6812F0405FDC
:104E900007D19A6842F080429A6002E00B498B4247
:104EA00002D0002002B07047526812F0100FEBE7FA
:104EB0008B42F6D1E9E70220F4E700BF40420F0041
:104EC0007400002000230140002001400022014026
:104ED00090F83C30012B14D003689A6822F001024C
:104EE0009A609B68DB0707D4036C23F4885323F094
:104EF000010343F001030364002380F83C301846AB
:104F000070470220704703689A68520570B50446DE
:104F10000D460BD59B68DE0508D5036C43F02003D6
:104F20000364002380F83C30012070BDFFF792FE3F
:104F3000064623681A6891070CD56FF012021A60B2
:104F4000226C42F4007222649A6812F0405F17D01B
:104F50000020EAE7681CEDD065B923681B6813F0F0
:104F60000203E6D1226C84F83C3042F00402226451
:104F70000320DAE7FFF76EFE801BA842EDD8D8E7E2
:104F8000227E002AE4D1DA6A12F4700F02D09B6804
:104F90005A05DDD4236C23F480732364236CDB0473
:104FA000D6D4236C43F001032364D1E70368D86CA3
:104FB00070470000F7B50023019390F83C30012BB7
:104FC000054600F08680012380F83C3008682B6895
:104FD0008E68092884B233D904EB4402DF681E3A94
:104FE0004FF0070C0CFA02FC27EA0C07DF60DF68C1
:104FF00006FA02F23A43DA604968062901EB8102B7
:105000002DD8596B053A1F26964021EA06015963AF
:10501000596B04FA02F20A435A632F4A93420AD1A7
:10502000122837D12D4B5A6822F400025A605A6870
:1050300042F480025A60002085F83C0003B0F0BDC5
:105040001A6900EB400C072707FA0CF722EA07025F
:105050001A611A6906FA0CF616431E61CCE70C2990
:105060004FF01F010BD81E6B233A914026EA010135
:105070001963196B04FA02F20A431A63CDE7DE6A78
:10508000413A914026EA0101D962D96A94400C4321
:10509000DC62C2E7124B984201D01128CBD10F4BF2
:1050A0005A6822F480025A605A6842F400025A6038
:1050B0000B4B9842BFD10B4B0B4A1B68B3FBF2F36F
:1050C0000A2253430193019B002BB4D0019B013B67
:1050D000F8E70220B2E700BF0020014000230140B2
:1050E000120000107400002040420F000749CA68F7
:1050F00022F4E0620302120403F4E063120C13438F
:1051000043F0BF6343F40033CB60704700ED00E031
:10511000164B30B5DC68C4F30224C4F10703251D27
:10512000042B28BF0423062D4FF0FF358CBF033C12
:10513000002405FA03F321EA0303A54022EA05024D
:10514000A340002843EA0203ACBF00F16040084AD4
:105150004FEA0313B8BF00F00F00DBB2AABF00F59F
:105160006140135480F8003330BD00BF00ED00E013
:1051700014ED00E0002807DB044A4109012300F098
:105180001F00834042F82130704700BF00E100E07B
:1051900010B5044650B1437903F0FF0213B9027110
:1051A000FCF78AFE01236371002010BD0120FCE79B
:1051B00010B5044620B390F8393003F0FF021BB954
:1051C00080F83820FCF790FE022384F839302368F9
:1051D00061681A6822F440320A431A605A6BA16867
:1051E00022F007020A435A631A6CE1686FF30D025A
:1051F0000A431A6400200123E06384F8393010BDAB
:105200000120FCE770477047036870B55E681D6851
:10521000F207044614D5E90512D51A6822F4807203
:105220001A60C26B42F00102C26301229A60042339
:1052300080F83930002380F83830436903B198474B
:10524000B20616D5AB0414D523681A6822F40052AE
:105250001A6020229A60E36B43F00203E3630423A5
:1052600084F83930002384F8383063690BB1204664
:105270009847300716D5290514D523681A6822F4F3
:1052800000621A6008229A60E36B43F00403E36350
:10529000042384F83930002384F8383063690BB173
:1052A0002046984772070BD56B0509D523681A6805
:1052B00022F480621A6004229A602046FFF7A2FF5F
:1052C000B00714D5A90512D523681A6822F4007214
:1052D0001A6002229A60E36BE363012384F8393099
:1052E000002384F8383023690BB120469847F20632
:1052F00013D5EB0411D523681A6822F480521A6082
:1053000010229A60E36BE363012384F839300023B1
:1053100084F838302046FFF776FF70BDF0B590F87E
:105320003820012A03464FF002002BD0012283F8D7
:10533000382083F8390003EB0112D2E90740556A9F
:10534000174F44EA0040093C012C9CBF05F07F4206
:1053500010434FEA01161A6888BF40EA056091B908
:10536000516A394001435162012C9969916103D816
:10537000596A21F07F4191620122002083F839208F
:1053800083F83800F0BDD16939400143D1619919E2
:10539000012C896911619CBF25F07F451562EBE7FF
:1053A000F0FFFC002DE9F74FDFF8BC916C4A0023B9
:1053B0000D6801249C4004EA0506AC4340F0B78028
:1053C0004D68032705F003044FEA430807FA08FC79
:1053D000671E012F6FEA0C0C34D8876807EA0C0EA1
:1053E000CF6807FA08F747EA0E078760476827EA99
:1053F000060EC5F300179F4047EA0E074760C768CF
:1054000007EA0C0E8F6807FA08F747EA0E07022C26
:10541000C76019D14FEAD30A00EB8A0A03F0070BE1
:10542000DAF820704FEA8B0B4FF00F0E0EFA0BFEDE
:1054300027EA0E0E0F6907FA0BF747EA0E07CAF8BC
:10544000207001E0032CDAD1076804FA08F407EAB7
:105450000C073C4315F4403F046068D000240194DD
:10546000D9F8444044F48044C9F84440D9F8444051
:1054700023F0030707F1804704F4804407F59C37C5
:10548000019403F0030C019CD7F808E04FEA8C0C60
:105490000F2404FA0CF42EEA040E324CA0424DD034
:1054A00004F58064A0424BD004F58064A04249D04A
:1054B00004F58064A04247D004F58064A04245D042
:1054C00004F58064A04243D004F58064A04241D03A
:1054D00004F58064A0423FD004F58064A0423DD032
:1054E00004F58064A04214BF0A24092404FA0CF4D1
:1054F00044EA0E04BC609468F74315F4801F0CBFA7
:105500003C4034439460D46815F4001F0CBF3C4009
:105510003443D460546815F4003F0CBF3C4034431E
:1055200054601468ED0354BF3C40344314600133AD
:10553000102B7FF43DAF03B0BDE8F08F0024D5E71A
:105540000124D3E70224D1E70324CFE70424CDE7E5
:105550000524CBE70624C9E70724C7E70824C5E7E5
:10556000003C01400000024000380240036919423B
:1055700014BF0120002070470AB1816170470904FF
:10558000FBE7436901EA030221EA030141EA024120
:105590008161704701684B6913F480634FF000022A
:1055A00010D06FF480634B612023026380F83D309C
:1055B00080F83E20036C80F83C2043F00403036431
:1055C00001207047184670472DE9F84606460F46F9
:1055D00091461D464FEA114A3368BAF1010F0CBFDC
:1055E0005C699C6927EA0404A4B2B4FA84F46409EF
:1055F000A14501D0002025E06A1CEED0FFF72AFB70
:10560000089BC01AA84201D8002DE5D13368BAF131
:10561000010F0CBF5B699B6927EA03039BB2B3FAD6
:1056200083F35B099945D7D100232022336386F8A1
:105630003D2086F83E30326C86F83C3042F0200245
:1056400032640120BDE8F8862DE9F04104460F469A
:10565000164698462568686927EA000080B2C0B1FE
:105660006B695A0517D52B6843F400732B606FF4F0
:1056700080636B6120220023236384F83D2084F83B
:105680003E30236C43F004032364002384F83C3051
:105690000120BDE8F081731CDDD0FFF7DBFAA0EB41
:1056A0000800B04201D8002ED4D123685A6927EAF5
:1056B000020292B2002ACDD000232022236384F874
:1056C0003D2084F83E30236C1343DDE770B504467B
:1056D0000D46164623685B691B0601D500201EE0B7
:1056E0002046FFF757FFC8B96A1CF3D0FFF7B2FA9C
:1056F000801BA84201D8002DECD123685B6913F010
:105700008003E7D12022236384F83D2084F83E30D3
:10571000226C84F83C3042F020022264012070BDEB
:105720002DE9F0431546026885B0DDE90C7899460D
:10573000136843F4807313600E463B46CDF8008037
:1057400000224FF001110446FFF73EFF236838B1F5
:105750001B68DB0502D54FF400732364032620E0A9
:1057600006F0FE061E611A4943463A462046FFF7F8
:105770006BFFA8B9236803905A6903929B6903934E
:10578000424639462046039BFFF7A0FF064660B11C
:10579000236C042B01BF2268136843F40073136069
:1057A0000126304605B0BDE8F083B9F1010F23684A
:1057B00002D1EDB21D61F4E72A0A1A613946424668
:1057C0002046FFF783FF0028E2D12368F1E700BFFE
:1057D000020001002DE9FF479A46036815461A6842
:1057E00042F480621A601A68DDE90C7842F4807233
:1057F0001A600E463B46CDF8008000224FF00111A2
:105800000446FFF7E1FE236838B11B68DB0544BF9F
:105810004FF400732364032021E05FFA86F906F059
:10582000FE061E612B4943463A462046FFF70CFF11
:10583000A0B9236803905A6903929B690393424677
:1058400039462046039BFFF741FF58B1236C042BD8
:1058500001BF2268136843F400731360012004B091
:10586000BDE8F087BAF1010F23681AD1EDB24246C4
:105870001D6139462046FFF729FF02460028E5D181
:1058800021680B6843F480730B602046CDF80080DC
:105890003B464FF00111FFF797FE226860B1136895
:1058A000B4E72A0A1A61394642462046FFF70EFF3E
:1058B0000028CBD12368D9E749F0010313610549DA
:1058C00043463A462046FFF7BFFE003818BF012086
:1058D000C5E700BF0200010070B504460D4616463C
:1058E00023685B695B0701D500201EE02046FFF7B7
:1058F00051FEC8B96A1CF3D0FFF7ACF9801BA8426F
:1059000001D8002DECD123685B6913F00403E7D1C3
:105910002022236384F83D2084F83E30226C84F8F2
:105920003C3042F020022264012070BD70B5044674
:105930000D46164621684B6913F0400301D0002044
:1059400011E04A69D2060FD56FF010024A61202299
:10595000236384F83D2084F83E30236C23640023C5
:1059600084F83C30012070BDFFF774F9801BA84219
:1059700001D8002DDED123685B6913F04003D9D133
:105980002022236384F83D2084F83E30236C1343A7
:10599000E4E7000070B5044608B9012070BD90F836
:1059A0003D3003F0FF021BB980F83C20FCF7BEFA43
:1059B000242384F83D3023681A6822F001021A601B
:1059C0001A6842F400421A601A6822F400421A600F
:1059D00000F08AFE3F4B65689D4294BF3E4B3F4BB3
:1059E00098428CBF00230123002BD6D12268394E68
:1059F00051683B4BB0FBF3F321F03F011943B54233
:105A0000516088BF4FF49676116A88BF734321F0C6
:105A10003F0184BF4FF47A76B3FBF6F301330B43B7
:105A20001362D169431E2B4821F44F41854221F076
:105A3000FF0132D86D0040F6FC70B3FBF5F3013383
:105A4000034242D0C3F30B031943D161D4E90730B9
:105A50001168034321F0C0010B4313609168D4E93E
:105A6000030321F40341034321F0FF010B4393603F
:105A7000D4E90530D168034321F0FF010B43D36023
:105A8000136843F00103136000202023206484F88E
:105A90003D30206384F83E0080E7A06850B905EBF4
:105AA0004505B3FBF5F30133C3F30B037BB143F4BB
:105AB0000043C9E719206843B3FBF0F30133C3F394
:105AC0000B0323B143F44043BEE70423BCE70123A7
:105AD000BAE700BFA08601007F841E00FF083D00DA
